:020000040800F2
:10000000100B002089010008BB190008A119000885
:10001000B7190008771400081B2900080000000029
:10002000000000000000000000000000ED200008BB
:100030007B14000800000000D51F0008FB21000809
:10004000A3010008A3010008A3010008A301000800
:10005000A3010008A3010008A3010008A3010008F0
:10006000A3010008A3010008A3010008A3010008E0
:10007000A3010008A3010008A3010008A3010008D0
:10008000A3010008A3010008A3010008A3010008C0
:10009000A3010008A3010008A3010008A3010008B0
:1000A000A3010008A3010008A3010008A3010008A0
:1000B000A30100085D220008A3010008A3010008B5
:1000C000A3010008A3010008A3010008A301000880
:1000D000A3010008E9260008A30100083127000851
:1000E000A3010008A3010008A301000800F002F822
:1000F00000F03AF80AA090E8000C82448344AAF188
:100100000107DA4501D100F02FF8AFF2090EBAE885
:100110000F0013F0010F18BFFB1A43F0010318473B
:100120001054000030540000103A24BF78C878C141
:10013000FAD8520724BF30C830C144BF04680C60ED
:10014000704700000023002400250026103A28BF35
:1001500078C1FBD8520728BF30C148BF0B60704739
:100160001FB51FBD10B510BD00F030F91146FFF7E7
:10017000F7FF02F0F3FB00F04EF903B4FFF7F2FFD4
:1001800003BC00F051F900000948804709480047C6
:10019000FEE7FEE7FEE7FEE7FEE7FEE7FEE7FEE737
:1001A000FEE7FEE704480549054A064B7047000094
:1001B000FD210008ED00000810050020100B0020B4
:1001C000100700201007002030B505460B462A46D0
:1001D00013F8014B12F8010B08B1A042F8D01CB182
:1001E000002802D06D1CF1E7284630BD40EA01032B
:1001F000024630B59B0710D14FF0013400E008C231
:1002000008C91D1B9D4315EAC41FF8D013F0FF0158
:1002100002F8011B0DD01B0AF8E711F8013B002B77
:1002200002F8013B05D011F8013B002B02F8013B1D
:10023000F3D130BD421E12F8013F002BFBD111F863
:10024000013B002B02F8013BF9D17047032A40F231
:10025000308010F0030C00F0158011F8013BBCF168
:10026000020F624498BF11F801CB00F8013B38BF80
:1002700011F8013BA2F1040298BF00F801CB38BF8E
:1002800000F8013B11F0030300F06980083AC0F068
:10029000088051F8043B083A51F804CBA0E8081054
:1002A000F5E7121D5CBF51F8043B40F8043BAFF387
:1002B0000080D20724BF11F8013B11F801CB48BFE1
:1002C00011F8012B24BF00F8013B00F801CB48BF17
:1002D00000F8012B704700004FF0013C50F8042B50
:1002E00051F8043B9A4221D1A2EB0C03934313EA49
:1002F000CC1317D150F8042B51F8043B9A4215D176
:10030000A2EB0C03934313EACC130BD150F8042B4C
:1003100051F8043B9A4209D1A2EB0C03934313EA30
:10032000CC13DBD04FF00000704700BFD01A01BAE9
:10033000B1FA81F101F0180122FA01F0CB40C1F1CC
:100340002001DBB2C0B2C01A2CFA01F3D11A9143DA
:1003500011EAC311E6D1704770477047704710B576
:10036000203AC0F00B80B1E81850203AA0E81850AD
:10037000B1E81850A0E81850BFF4F5AF5FEA027C6E
:1003800024BFB1E81850A0E8185044BF18C918C0DD
:10039000BDE810405FEA827C24BF51F8043B40F87E
:1003A000043B08BF7047D20728BF31F8023B48BF63
:1003B00011F8012B28BF20F8023B48BF00F8012BA1
:1003C0007047000000487047AC0400207546FFF7F6
:1003D000F9FFAE4605006946534620F00700854602
:1003E00018B020B5FFF7DEFEBDE820404FF0000654
:1003F0004FF000074FF000084FF0000B21F007010D
:10040000AC46ACE8C009ACE8C009ACE8C009ACE84F
:10041000C0098D46704710B50446AFF300802046F2
:10042000BDE81040FFF7A9BE01491820ABBEFEE7AA
:10043000260002007047000070B50425284801F02E
:1004400097FE284801F0B2FE502001F01FF8264820
:1004500001F04EFE35E0254800880D2800D035E03B
:1004600000240FE0214800880D2800D00CE0204631
:1004700002F044FC064601F059FE1D48008801F0D8
:1004800005F8641C2D2CEDDD00BF2D240FE017486E
:1004900000880D2800D00CE0204602F02FFC064614
:1004A00001F044FE1248008800F0F0FF641E002CAA
:1004B000EDDC00BF0D4800880D2800D006E0681E66
:1004C00085B21DB1094800880D28C4D000BF074877
:1004D00000880D2802D102200449088070BD000068
:1004E0000000A041000034420000B4423600002069
:1004F0003A00002010B51C480088D0B91B4801F014
:1005000055FE1B4801F0F4FD1A48008800F0BEFFBC
:10051000164801F02DFE164801F008FE1548008827
:1005200000F0B4FF0C201449088001200E49088017
:1005300019E00E4801F01CFE0D4801F0F7FD0D48D2
:10054000008800F0A3FF094801F030FE084801F0E0
:10055000CFFD0848008800F099FF0C20064908806C
:1005600000200149088010BD4A00002000000C4214
:1005700000000C43380000203600002010B51D4854
:100580000088D8B91C4801F0B3FD1C4801F00EFEEC
:100590001B48008800F07AFF174801F0C7FD174894
:1005A00001F0E6FD16480088503000F06FFF022091
:1005B0001449088001200F4908801AE00E4801F014
:1005C000B5FD0E4801F0D4FD0D48008800F05EFF37
:1005D000094801F08DFD094801F0E8FD0848008850
:1005E000503000F053FF02200649088000200149E6
:1005F000088010BD4800002000000C4300000C42A1
:10060000380000203600002010B55EE0022031499D
:10061000088008460088801C088040E02E4801F0D1
:1006200085FD2E4801F0A4FD2D48008800F02EFF26
:100630002C480088062800D03BE0274801F058FDF0
:10064000264801F0B3FD2648008800F01FFF25482A
:100650000088062800D02CE0234801F067FD2248DE
:1006600001F086FD1E48008800F010FF1D4800883C
:10067000062800D01DE01C4801F03AFD1A4801F0A0
:1006800095FD1748008800F001FF164800880628ED
:1006900000D00EE00F480088401E0E4908800D482B
:1006A000008810B91148008818B10E480088062843
:1006B000B4D000BF0D480088012806D00948008842
:1006C000062802D10220074908800648008806282B
:1006D0009CD010BD460000200000344200000743BB
:1006E00038000020360000200000B4423400002012
:1006F0002DE9F04101260324A7E0574801F0F8FC5A
:10070000564801F013FD3C2000F0C0FE544801F0B3
:100710004DFD5A250EE0534800880F2800D00BE00D
:10072000284602F0EBFA074601F022FD062000F011
:10073000ADFE6D1CB42DEEDB00BF14E0B4250EE061
:10074000484800880F2800D00BE0284602F0D6FA6F
:10075000074601F00DFD0F2000F098FE6D1E962D4E
:10076000EEDC00BF641E1CB13E4800880F28E5D0B7
:100770003C4800880F2800D06AE0642000F086FE24
:10078000354801F0B5FC344801F0D0FC354800880C
:100790000F2800D05CE0502000F078FE2E4801F0D9
:1007A000E7FC2D4801F002FD642000F06FFE2D48AB
:1007B00000880F2800D04BE00324274801F0B6FC46
:1007C000264801F095FC274800880F2800D03FE01C
:1007D0003C2000F05BFE224801F0CAFC5A250EE0E6
:1007E000204800880F2800D00BE0284602F086FA47
:1007F000074601F0DBFC062000F048FE6D1CB42D1E
:10080000EEDB00BF14E0B4250EE0164800880F2888
:1008100000D00BE0284602F071FA074601F0C6FC52
:100820000F2000F033FE6D1E962DEEDC00BF641E1F
:100830001CB10C4800880F28E5D00A4800880F2812
:1008400002D10220074908800026002E7FF455AF10
:1008500000BFBDE8F08100000000B4420000A041EC
:100860000000DC423600002010B5034802F058F8C2
:1008700000200249087010BD0000B4423E00002074
:1008800010B55EE002203149088008460088801CCF
:10089000088040E02E4801F02BFC2E4801F086FC39
:1008A0002D48008800F0F2FD2C480088072800D071
:1008B0003BE0274801F03AFC264801F059FC264865
:1008C000008800F0E3FD25480088072800D02CE0D0
:1008D000234801F00DFC224801F068FC1E48008806
:1008E00000F0D4FD1D480088072800D01DE01C48FA
:1008F00001F01CFC1A4801F03BFC1748008800F08E
:10090000C5FD16480088072800D00EE00F48008873
:10091000401E0E4908800D48008810B91148008813
:1009200018B10E4800880728B4D000BF0D480088D1
:10093000012806D009480088072802D1022007496B
:1009400008800648008807289CD010BD460000207B
:100950000000344200000743380000203600002029
:100960000000B4423400002070B503255BE01E2473
:1009700022E0204602F0DAF9064601F0B9FB2046F3
:1009800002F0D4F9064601F0D1FB204602F0CEF980
:10099000064601F0EDFB204602F0C8F9064601F0DC
:1009A00005FC3C48008800F071FD3B4800880828A1
:1009B00000D003E0601CC4B2962CDADB00BF3648DE
:1009C0000088082800D033E0962422E0204602F078
:1009D000ADF9064601F08CFB204602F0A7F9064669
:1009E00001F0A4FB204602F0A1F9064601F0C0FB8D
:1009F000204602F09BF9064601F0D8FB2548008806
:100A000000F044FD24480088082800D003E0601E60
:100A1000C4B21E2CDADC00BF1F480088082800D0B2
:100A200006E0681E85B21DB11B48008808289ED0CC
:100A300000BF1E2422E0204602F078F9064601F0AD
:100A400057FB204602F072F9064601F06FFB204684
:100A500002F06CF9064601F08BFB204602F066F9C5
:100A6000064601F0A3FB0B48008800F00FFD0A4882
:100A70000088082800D003E0601CC4B25A2CDADBDE
:100A800000BF05480088082802D1022002490880DA
:100A900070BD00003A0000203600002070B503252C
:100AA0003C2000F0F3FC37E01E2410E0204602F06A
:100AB0003DF9064601F034FF2348008800F0E6FCCB
:100AC00022480088092800D003E0601CC4B2962C9C
:100AD000ECDB00BF1D480088092800D022E09624E6
:100AE00010E0204602F022F9064601F019FF1648F0
:100AF000008800F0CBFC15480088092800D003E0EE
:100B0000601EC4B21E2CECDC00BF1048008809280F
:100B100000D007E0681E05B2002D03DD0B480088F9
:100B20000928C1D000BF0A4801F0FAFE3C2000F0BD
:100B3000ADFC06480088092802D10220034908803C
:100B400000200449087070BD3A00002036000020E3
:100B50000000B4423E00002010B597E002204E494C
:100B600008807CE04D4801F0E1FA4C4801F000FBC0
:100B70004B48008800F08AFC4A480088042800D0CE
:100B800078E0494801F0B4FA474801F00FFB4448C7
:100B9000008800F07BFC43480088042800D069E00E
:100BA000424801F0C3FA414801F0E2FA3C480088AB
:100BB00000F06CFC3B480088042800D05AE03B4819
:100BC00001F096FA394801F0F1FA3548008800F052
:100BD0005DFC34480088042800D04BE02F4801F029
:100BE00087FA2E4801F0E2FA2D48008800F04EFC0A
:100BF0002C480088042800D03CE02B4801F096FAED
:100C0000294801F0B5FA2648008800F03FFC254845
:100C10000088042800D02DE0244801F069FA234818
:100C200001F0C4FA1E48008800F030FC1D4800881E
:100C3000042800D01EE01D4801F078FA1B4801F09E
:100C400097FA1748008800F021FC1648008804280D
:100C500000D00FE010480088401E0F4908800E4861
:100C6000008810B91248008820B10E480088042876
:100C70003FF478AF00BF0E480088012806D009482D
:100C80000088042802D1022006490880054800880F
:100C900004283FF463AF10BD46000020000034423A
:100CA0003800002036000020000007430000B44256
:100CB0003400002010B597E002204E4908807CE007
:100CC0004D4801F033FA4C4801F052FA4B48008885
:100CD00000F0DCFB4A480088052800D078E049484D
:100CE00001F006FA474801F061FA4448008800F034
:100CF000CDFB43480088052800D069E0424801F058
:100D000015FA414801F034FA3C48008800F0BEFB77
:100D10003B480088052800D05AE03B4801F0E8F93C
:100D2000394801F043FA3548008800F0AFFB3448F9
:100D30000088052800D04BE02F4801F0D9F92E4853
:100D400001F034FA2D48008800F0A0FB2C48008800
:100D5000052800D03CE02B4801F0E8F9294801F0D3
:100D600007FA2648008800F091FB254800880528EE
:100D700000D02DE0244801F0BBF9234801F016FA19
:100D80001E48008800F082FB1D480088052800D01E
:100D90001EE01D4801F0CAF91B4801F0E9F91748A7
:100DA000008800F073FB16480088052800D00FE08B
:100DB00010480088401E0F4908800E48008810B96E
:100DC0001248008820B10E48008805283FF478AF0B
:100DD00000BF0E480088012806D009480088052871
:100DE00002D10220064908800548008805283FF402
:100DF00063AF10BD4600002000000743380000200C
:100E000036000020000034420000B44234000020CC
:100E100010B50B4801F06CF9094801F087F9502032
:100E200000F034FB064801F0A3F9054801F0BEF9D3
:100E300004480078012802D109200349088010BD28
:100E40000000A0413E0000203600002010B50848F8
:100E500001F04EF9064801F069F9502000F016FB48
:100E6000044801F085F9034801F0A0F910BD000025
:100E70000000A0410000204310B50B4801F038F9F4
:100E8000094801F053F9502000F000FB074801F039
:100E90006FF9064801F08AF905480078012802D167
:100EA00009200449088010BD0000B4420000A041A0
:100EB0003E0000203600002070B53C4801F058F993
:100EC0003A4801F073F9502000F0E0FA5A2414E097
:100ED000204601F013FF054601F00AF9204601F013
:100EE0000DFF054601F022F9314800880E2800D098
:100EF00005E00F2000F0CAFA641E0A2CE8DC00BFEF
:100F00000A2414E0204601F0F9FE054601F0F0F84D
:100F1000204601F0F3FE054601F008F92448008858
:100F20000E2800D005E00F2000F0B0FA641C5A2C07
:100F3000E8DB00BF5A2414E0204601F0DFFE05463E
:100F400001F016F9204601F0D9FE054601F02EF910
:100F5000174800880E2800D005E00F2000F096FA10
:100F6000641CAA2CE8DB00BFAA2414E0204601F090
:100F7000C5FE054601F0FCF8204601F0BFFE05461F
:100F800001F014F90A4800880E2800D005E00F206F
:100F900000F07CFA641E5A2CE8DC00BF044800888C
:100FA0000E2802D10F200249088070BD0000B44213
:100FB0003600002010B50B4801F09AF8094801F0FE
:100FC000B5F8502000F062FA064801F0D1F8054863
:100FD00001F0ECF804480078012802D10920034907
:100FE000088010BD0000B4423E0000203600002002
:100FF00010B50B4801F0BCF8094801F0D7F85020B3
:1010000000F044FA064801F073F8054801F08EF844
:1010100004480078012802D109200349088010BD46
:101020000000B4423E0000203600002070B50446A7
:1010300026E0164800F0E2FA2021144801F09BFB5C
:1010400001281AD1114801F05FFCC5B210480078A0
:101050003F280AD20E4801780078401C0C4A1070D4
:101060000C4845540021127881540BA10948FFF720
:10107000ABF808B1012070BD02E0782000F0FEF965
:10108000201EA4F10104D4D100BFF4E700480040C1
:10109000440000206C0000204F4B0D0A00000000AF
:1010A00000B58DB000201A4908701A4908701A4915
:1010B00008701A491AA000F0AFF908B90DB000BDC8
:1010C0000120134908702021134800F05BF900B992
:1010D000F4E701200F49087012A10F48FFF7FCF850
:1010E00000B9EBE713A101A8FFF780F80DA101A853
:1010F000FFF7A0F8124901A800F08EF930B109A15C
:101100000548FFF773F801200249087000BFD5E7D2
:101110003F000020400000204C000020E09304002D
:10112000415400006775616775616C655F6D616E44
:10113000626F000041542B4E414D453D00000000C0
:10114000C027090010B5074800F058FA02E005482A
:1011500001F0DAFB2021034801F00DFB0128F6D055
:1011600010BD00000048004000B587B001210420F8
:1011700000F042FF0121880300F03EFF012108201A
:1011800000F03AFF0121880400F026FF18208DF8B6
:101190001B004FF40070ADF8180003208DF81A0002
:1011A00006A94D4800F04EFA48208DF81B004FF478
:1011B0008060ADF8180003208DF81A0006A9464893
:1011C00000F040FA18208DF81B004FF48060ADF855
:1011D000180003208DF81A0006A9404800F032FAE2
:1011E00048208DF81B004FF40060ADF81800032074
:1011F0008DF81A0006A9394800F024FA10208DF85D
:101200001B00ADF8180003208DF81A0006A932481B
:1012100000F018FA1021304800F0AAFA04208DF8E6
:101220001B002020ADF8180003208DF81A0006A935
:10123000294800F007FA0020ADF814000C20ADF8A2
:1012400012000020ADF81000ADF80E00ADF80C0053
:101250004FF41650029002A9214801F0E9FA02A9C0
:10126000204801F0E5FA012240F225511C4801F026
:10127000B9FA002240F225511A4801F0B3FA4FF4AE
:10128000A06000F0D3FB25208DF8040001208DF82C
:1012900007008DF805008DF8060001A800F08EFB10
:1012A00027208DF8040000208DF8070002208DF81B
:1012B000050001208DF8060001A800F07FFB012148
:1012C000074801F04CFA0121064801F048FAFFF7FF
:1012D000E7FE07B000BD000000080140000C01401F
:1012E000003801400048004070B52021204800F03F
:1012F00034FA04461F4800F081F91F480078844200
:1013000007D01D480470012C03D140F6B8301B49AA
:1013100008801A480088002804DD18480088401E0C
:1013200016490880012C04D11021114800F01EFA42
:1013300003E010210E4800F01BFA11E00D4801F007
:10134000E3FAC5B20D48008848B9284600F02AFBE8
:1013500028B100200A490880284600F011FA00BF91
:101360002021044801F007FA0128E7D070BD0000F1
:1013700000080140004800404500002042000020D5
:10138000340000202DE9F04180460F46154916A093
:1013900000F042F810B90020BDE8F08115A117480F
:1013A000FEF712FF04460CB90020F5E7A41D14A1B6
:1013B0002046FEF709FF05460DB1A54201D80020E1
:1013C000EAE7281BC6B2BE4201DB781EC6B232462F
:1013D00021464046FEF73AFF002008F806000120AB
:1013E000DAE70000C027090041542B4E414D453F2C
:1013F000000000002B4E414D453A00006C000020DB
:101400000D0A000000200249087002490870704768
:10141000440000206C00002070B505460C46FFF724
:10142000F1FFFFF78FFE284600F01AF803A000F046
:1014300017F82046FFF7FAFD70BD00000D0A000006
:1014400010B504462146054801F063FA00BF40216B
:10145000024801F090F90028F9D010BD0048004082
:1014600010B5044603E02078FFF7EAFF641C2078FB
:101470000028F8D110BD00BFFEE7704701B500BFDE
:101480000098411E00910028FAD108BD10B504460D
:1014900003E04FF47A7000F005F8201EA4F1010477
:1014A000F7D110BD01460F4A12680F4BB2FBF3F2A1
:1014B0004A434FF0E0235A6100229A6105221A61E3
:1014C00000BF4FF0E022106900F001021AB100F4F1
:1014D0008032002AF5D004224FF0E0231A61002266
:1014E0009A6170470000002040420F0008B53B4859
:1014F000008860B900F0A4FA394840238022002116
:101500000090084600F0BEFB00F03AFC64E033486F
:10151000008801280CD100F093FA32484023802241
:1015200000210090084600F0ADFB00F029FC53E0DC
:101530002A48008802280CD100F082FA2A48402369
:10154000802200210090084600F09CFB00F018FC6F
:1015500042E02248008803280CD100F071FA2348A9
:101560004023802200210090084600F08BFB00F011
:1015700007FC31E01948008804280CD100F060FA1B
:101580001B484023802200210090084600F07AFB8F
:1015900000F0F6FB20E01148008805280CD100F08F
:1015A0004FFA14484023802200210090084600F0A2
:1015B00069FB00F0E5FB0FE00848008806280BD126
:1015C00000F03EFA0C48402380220021009008469B
:1015D00000F058FB00F0D4FB08BD00003C000020E8
:1015E00030490008304D00083041000830450008FF
:1015F00030510008303D0008303900081CB5044661
:101600000821204601F0B7F8012811D00421204616
:1016100001F0B1F801280BD00221204601F0ABF80F
:10162000012805D00121204601F0A5F8012808D1A4
:1016300020880190A0880090BDF80400BDF800004B
:1016400000BF1CBD2DE9F041024600250026002008
:1016500000230024002791F803C00CF00F0591F837
:1016600003C00CF0100CBCF1000F03D091F802C0C5
:101670004CEA050591F800C0BCF1000F31D01468A8
:1016800000202BE04FF0010C0CFA00F3B1F800C081
:101690000CEA03069E4220D183004FF00F0C0CFA97
:1016A00003F7BC4305FA03FC4CEA040491F803C0B9
:1016B000BCF1280F06D14FF0010C0CFA00FCC2F867
:1016C00014C00AE091F803C0BCF1480F05D14FF0F7
:1016D000010C0CFA00FCC2F810C0401C0828D1D341
:1016E0001460B1F800C0BCF1FF0F34DD5468002075
:1016F0002EE000F1080C4FF0010808FA0CF3B1F8E5
:1017000000C00CEA03069E4221D183004FF00F0C6B
:101710000CFA03F7BC4305FA03FC4CEA040491F805
:1017200003C0BCF1280F05D100F1080C08FA0CF831
:10173000C2F8148091F803C0BCF1480F07D100F142
:10174000080C4FF0010808FA0CF8C2F81080401C91
:101750000828CED35460BDE8F0810246002093688B
:101760000B400BB1012000E0002070474161704741
:10177000016170470AB1016100E0416170470000FA
:1017800010B50446A4F12900212876D2DFE800F044
:1017900011F7F7F7F7F7F71A232C353E4750596240
:1017A0007FF7F7F7F7F7F79BBAC3CCD5D9DDE1E5BB
:1017B000EE00002073490880FFF798FE0020724970
:1017C0000880DDE001206F490880FFF78FFE0120CF
:1017D0006D490880D4E005206A490880FFF786FE3D
:1017E000022069490880CBE0012066490880FFF7A4
:1017F0007DFE032064490880C2E002206149088020
:10180000FFF774FE042060490880B9E002205D49BA
:101810000880FFF76BFE05205B490880B0E00220DE
:1018200058490880FFF762FE062057490880A7E064
:10183000022054490880FFF759FE072052490880CA
:101840009EE004204F490880FFF750FE08204E49D3
:10185000088095E04D480088782804D10320494944
:101860000880FFF743FE49480088642806DD4748A2
:10187000008814384549088008E080E0022041498A
:101880000880FFF733FEC8204049088078E04048D0
:101890000088042804D103203A490880FFF726FE77
:1018A0003B480088032805DD39480088401E384938
:1018B000088007E0042033490880FFF717FE09205D
:1018C000334908805CE03348007808B9012000E023
:1018D00000203049087001202A490880FFF706FEE1
:1018E0002C480078012803D109202749088008E006
:1018F00025480088092804D1022023490880FEF7E2
:10190000B3FF3DE002201F490880FFF7EFFD0A20EA
:101910001D49088034E002201A490880FFF7E6FDDF
:101920000B20194908802BE0062016490880FFF794
:10193000DDFD0D201449088022E0012016490880B1
:101940001EE00020144908801AE001201349088095
:1019500016E000201149088012E00620094908809D
:10196000FFF7C4FD0E200849088009E0062005495C
:101970000880FFF7BBFD0F200349088000E000BF8F
:1019800000BF10BD3C0000203600002038000020C1
:101990003A0000203E0000203000002032000020ED
:1019A00000BFFEE70146292903DB492901DC0120AC
:1019B00070470020FCE700BFFEE7704770B50021CC
:1019C00000230F22C47804B3154C246804F4E064A7
:1019D000C4F5E064210AC1F10403CA40447804FA62
:1019E00003F184781440214309010E4C0678A15577
:1019F000047804F01F050124AC4005786D11AD009A
:101A000005F1E025C5F8004109E0047804F01F0560
:101A10000124AC40044D0678761145F8264070BD8F
:101A20000CED00E000E400E080E100E00249014349
:101A3000024A1160704700000000FA050CED00E05A
:101A400000200CE0002106E00022064B03EBC0134F
:101A50005A544A1CD1B28029F6DB421CD0B2082865
:101A6000F0DB7047AC0000202DE9F04304460D4642
:101A700016461F46284638E0224631E0002A2DDB74
:101A80007F2A2BDC002829DB3F2827DC4FEAE07C7B
:101A900000EB5C7C4FEAEC0CDFF8588008EBCC1CC8
:101AA0001CF802C003464FEAE07800EB58784FEA92
:101AB000E808A0EBC8094FF0010808FA09F82CEA79
:101AC000080C01464FEAE07800EB58784FEAE80846
:101AD000DFF8209009EBC81808F802C0511C0AB2C0
:101AE000A1199142CADC411C08B2E9198142C3DC48
:101AF000BDE8F083AC00002038B5002406E00025E6
:101B000000E06D1CB5F57A7FFBD3641CB4F57A7FD9
:101B1000F5D30121082000F06FFA14208DF803009E
:101B200003208DF802004020ADF800006946084807
:101B3000FFF788FD8020ADF8000069460448FFF7F4
:101B400081FD012000F030F9012000F037F938BDA7
:101B5000000C014070B50546002411E080212141B0
:101B6000294009B1012100E00021084600F026F9D2
:101B7000012000F019F9002000F016F9601CC4B231
:101B8000082CEBDB012000F00FF9002000F00CF92D
:101B900070BD10B5012000F011F9012000F004F92A
:101BA000002000F00BF9002000F0FEF810BD10B589
:101BB000002000F003F9012000F0F6F8012000F009
:101BC000FDF810BD10B5FFF797FFAE2000F000F94B
:101BD000D52000F0FDF8802000F0FAF8A82000F0F1
:101BE000F7F83F2000F0F4F8D32000F0F1F80020DF
:101BF00000F0EEF8402000F0EBF8A12000F0E8F84B
:101C0000C82000F0E5F8DA2000F0E2F8122000F039
:101C1000DFF8812000F0DCF8CF2000F0D9F8D920DF
:101C200000F0D6F8F12000F0D3F8DB2000F0D0F877
:101C3000302000F0CDF8A42000F0CAF8A62000F073
:101C4000C7F88D2000F0C4F8142000F0C1F8AF20D0
:101C500000F0BEF8FFF7F4FE00F092F810BD70B58A
:101C600005460C46A01CC4B245F0B00000F0B0F828
:101C7000102141EA141000F0ABF804F00F0000F05E
:101C8000A7F870BD2DE9FF4F80460E469146DDF85E
:101C900034B0002500244A4631464046039BFFF7F6
:101CA000E3FE00BF5EE0002558E008EB05000028D9
:101CB00052DB08EB05007F284EDC3046F11706EBBF
:101CC0005171C9100FB2F11706EB5171C910A6EB93
:101CD000C10A002E05DA781E07B20AF108000FFAD1
:101CE00080FA3819002817DB3819072814DC38194E
:101CF000224901EBC01008EB0501405C04FB0951CF
:101D00001BF8011001FA0AF1084339191B4A02EBCA
:101D1000C11108EB050288543819401C00281BDB50
:101D20003819401C072817DC3819401C134901EBEF
:101D3000C01008EB0501405C04FB09511BF80110C1
:101D4000CAF10802114108433919491C0B4A02EB38
:101D5000C11108EB05028854681CC5B24D45A4DBCF
:101D6000601CC4B20399481EC11700EB51710122D7
:101D700002EBE101A14296DCBDE8FF8FAC00002040
:101D800010B500240BE000212046FFF768FF05494D
:101D900001EBC410802100F02BF8601CC4B2082CA9
:101DA000F1DB10BDAC00002010B5044622464021F6
:101DB0000148FFF7DFFC10BD000C014010B50446E0
:101DC000224680210148FFF7D5FC10BD000C0140E0
:101DD00010B50446FFF7DDFE7820FFF7BBFE0020BC
:101DE000FFF7B8FE2046FFF7B5FEFFF7E0FE10BD97
:101DF00070B505460E46FFF7CCFE7820FFF7AAFE29
:101E00004020FFF7A7FE002404E0285DFFF7A2FEB4
:101E1000601CC4B2B442F8DBFFF7C9FE70BD00001D
:101E200000B589B00121084600F0D6F80121022052
:101E300000F0D2F80121042000F0DEF80121082092
:101E400000F0DAF818208DF823004F20ADF82000BC
:101E500003208DF8220008A93C48FFF7F3FB182067
:101E60008DF823000320ADF820008DF8220008A98A
:101E70003748FFF7E7FB4FF0804000F09CFA354809
:101E800000F099FA0020ADF81A00ADF8160044F6FB
:101E90001F60ADF818000720ADF8140000208DF881
:101EA0001C0005A94FF0804000F0CCFB05A9294893
:101EB00000F0C8FB1D208DF8100001208DF81300E4
:101EC00000208DF811008DF8120004A8FFF776FDB0
:101ED000012211461F4800F065FA684600F09EFB9B
:101EE0006020ADF800000020ADF808000120ADF83A
:101EF00002000020ADF8060069464FF0804000F077
:101F000061FA69464FF0804000F0A8FA69464FF048
:101F1000804000F0F5FA69464FF0804000F040FB49
:101F200069460C4800F04EFA69460A4800F0E8FAA3
:101F30006946084800F034FB0121880700F015FAD3
:101F40000121044800F011FA09B000BD0008014069
:101F5000000C01400004004010B504462146024830
:101F600000F06AFB10BD00000004004010B50446FC
:101F70002146024800F062FB10BD00000004004052
:101F800010B5044621464FF0804000F051FB10BDD3
:101F900010B5044621464FF0804000F04BFB10BDC9
:101FA00010B5044621464FF0804000F045FB10BDBF
:101FB00010B5044621464FF0804000F03FFB10BDB5
:101FC00010B504462146024800F032FB10BD000067
:101FD000000400407047000029B1064AD26902435C
:101FE000044BDA6104E0034AD2698243014BDA61AF
:101FF000704700000010024029B1064A926902436E
:10200000044B9A6104E0034A92698243014B9A614E
:10201000704700000010024030B50021002200246B
:1020200000232D4D6D6805F00C0121B1042905D068
:10203000082923D105E0294D056022E0274D0560E0
:102040001FE0254D6D6805F47012234D6D6805F491
:102050008034022505EB92421CB9214D55430560A1
:102060000BE01D4D6D6805F400351DB11C4D554349
:10207000056002E0194D5543056002E0174D05600B
:1020800000BF00BF144D6D6805F0F0010909154D42
:102090006B5C0568DD4045600F4D6D6805F4E061DF
:1020A000090A104D6B5C4568DD4085600A4D6D681E
:1020B00005F46051C90A0B4D6B5C4568DD40C56095
:1020C000054D6D6805F44041890B074D6B5CC56893
:1020D000B5FBF3F5056130BD0010024000127A0037
:1020E00000093D001400002024000020704700007B
:1020F0002DE9F04104460A49204600F01DFD8046C6
:10210000084900F027FE0746074900F0B3FC0646E1
:1021100000F0D4FD85B22846FFF732FFBDE8F0811C
:10212000000034430000FA440000FA432DE9F04770
:1021300004460C49204600F0D9FE8146094900F0CA
:10214000FBFC8046084900F005FE0746074900F001
:1021500091FC064600F0B2FD85B22846FFF718FF55
:10216000BDE8F087000034430000FA440000FA4361
:102170002DE9F04104460A49204600F0DDFC804686
:10218000084900F0E7FD0746074900F073FC0646E2
:1021900000F094FD85B22846FFF702FFBDE8F0810C
:1021A000000034430000FA440000FA432DE9F047F0
:1021B00004460C49204600F099FE8146094900F08A
:1021C000BBFC8046084900F0C5FD0746074900F002
:1021D00051FC064600F072FD85B22846FFF7E8FE86
:1021E000BDE8F087000034430000FA440000FA43E1
:1021F00010B5FFF715FE10BD7047704710B51348B6
:10220000006840F001001149086008464068104924
:1022100008400E494860084600680E4908400B49CE
:1022200008600846006820F480200860084640687E
:1022300020F4FE0048604FF41F008860FFF7DCFFC9
:102240004FF000600449086010BD0000001002401B
:102250000000FFF8FFFFF6FE08ED00E010B50121D9
:102260003A4800F08EF801286ED1394800880128DC
:102270000BD13848008840B944F62060FFF76CFE67
:1022800044F62060FFF772FE5AE0314800880128CA
:102290004DD130480088012849D12F4800880128B5
:1022A00016D12E48008864302C49088008460088E2
:1022B000FFF752FE29480088FFF758FE274800889C
:1022C00044F6206188423BD102202349088037E050
:1022D00021480088022813D12048008864381F490B
:1022E000088008460088FFF737FE1C480088FFF783
:1022F0003DFE1A48008818BB0320174908801FE0DC
:102300001548008803281BD11548008800F57A700D
:10231000134908800846008844F6206188420FD19E
:1023200001200D49088000200D49088008E0084878
:10233000008828B90020FFF70FFE0020FFF716FEE7
:102340000121024800F00EF810BD0000000400401A
:1023500030000020320000202C0000202A00002045
:102360002E000020CA430282704721B1028842F049
:102370000102028004E002884FF6FE731A400280D8
:10238000704730B50246002000230024158A05EA74
:102390000103958905EA010413B10CB1012000E0A5
:1023A000002030BD1AB183890B43838102E0838909
:1023B0008B438381704701894FF6F8721140018188
:1023C0007047000070B5002400220023058C4FF6F2
:1023D000FE7635400584028C8388048B4FF68F751A
:1023E0002C40B51E2C400D882C43751E2A400D89AB
:1023F0002A434D882A43144DA8420BD0134DA842BE
:1024000008D0134DA84205D0124DA84202D0124D5B
:10241000A84213D14FF6F7752A404D892A434FF64B
:10242000FB752A408D882A434FF6FF652B404FF6F7
:10243000FF552B408D892B43CD892B43838004830B
:10244000CD888586028470BD002C01400034014097
:1024500000400140004401400048014070B50024A4
:1024600000220023058C4FF6EF7635400584028C60
:102470008388048B48F6FF752C404FF6FF452C40AF
:102480000D884FF6FF7606EA05252C434FF6DF75DB
:102490002A400D8906EA05152A434D8806EA0515E6
:1024A0002A43154DA84202D0144DA8421DD14FF623
:1024B0007F752A404D894FF6FF7606EA05152A43B7
:1024C0004FF6BF752A408D8806EA05152A434FF658
:1024D000FF352B404FF2FF752B408D8906EA8505AD
:1024E0002B43CD8906EA85052B4383800483CD8861
:1024F0000587028470BD0000002C014000340140BB
:1025000070B5002400220023058C4FF6FF6635408D
:102510000584028C8388848B4FF68F752C404FF690
:10252000FC752C400D882C434FF6FF552A400D8931
:102530004FF6FF7606EA05252A434D8806EA05256B
:102540002A43154DA84202D0144DA8421DD14FF286
:10255000FF752A404D894FF6FF7606EA05252A4386
:102560004FF6FF352A408D8806EA05252A434EF6A8
:10257000FF752B404DF6FF752B408D8906EA05153A
:102580002B43CD8906EA05152B4383808483CD88B0
:102590008587028470BD0000002C0140003401409A
:1025A00070B5002200230024058C4EF6FF763540DE
:1025B0000584038C8488828B48F6FF752A404FF689
:1025C000FF452A400D884FF6FF7606EA05252A4387
:1025D0004DF6FF752B400D8906EA05352B434D88D6
:1025E00006EA05352B430B4DA84202D00A4DA842FE
:1025F00008D14BF6FF752C408D894FF6FF7606EA21
:1026000085152C4384808283CD88A0F840500384B4
:1026100070BD0000002C0140003401400021018009
:1026200041808180C180018141818181C181704768
:10263000818670470187704781877047A0F84010F6
:1026400070470000002202881D4B98420ED01D4B9F
:1026500098420BD0B0F1804F08D01B4B984205D068
:102660001A4B984202D01A4B984204D14FF68F73FE
:102670001A404B881A43174B984207D0164B984282
:1026800004D04FF6FF431A40CB881A4302808B8850
:1026900083850B8803850A4B98420BD0094B9842DF
:1026A00008D00E4B984205D00D4B984202D00D4BEE
:1026B000984201D10B7A0386012383827047000080
:1026C000002C01400034014000040040000800409C
:1026D000000C004000100040001400400040014089
:1026E000004401400048014010B50F48FEF786FF46
:1026F00040F225510C4800F04BF8012813D10A484C
:1027000000F002F9C4B22046FFF74CF928B10020CE
:10271000064908802046FFF733F840F22551024869
:1027200000F00EF800BF10BD00380140340000205A
:1027300010B50248FEF762FF10BD000000480040DF
:1027400010B50022002340F66A14A14200D100BF58
:102750000A1201249440A3B2DC43048010BD21B1CD
:10276000828942F40052828104E082894DF6FF732F
:102770001A408281704702460020B1F5007F00D1E7
:1027800000BF13880B400BB1012000E00020704710
:1027900070B50246002400230025002040F66A168A
:1027A000B14200D100BFC1F3421501F01F03012661
:1027B00006FA03F3012D02D19689334006E0022D7B
:1027C00002D1168A334001E0968A33400C1201266A
:1027D00006FA04F41688344013B10CB1012000E06D
:1027E000002070BDF0B5034600240026002500201F
:1027F00040F66A17B94200D100BF1846C1F342142F
:1028000001F01F06012707FA06F5012C01D10C3053
:1028100004E0022C01D1103000E014301AB1076836
:102820002F43076002E00768AF430760F0BD000078
:102830002DE9F04786B005460E460024A24600BFAB
:10284000A1460027B08900B100BF2F462C8A4CF664
:10285000FF700440F08804432C82AC894EF6F310DC
:102860000440B08831890843718908430443AC812E
:10287000AC8A4FF6FF400440B0890443AC8201A803
:10288000FFF7CAFB1F48874202D1DDF810A001E024
:10289000DDF80CA0A88900F4004040B10AEBCA00A2
:1028A00000EB0A1031684900B0FBF1F807E00AEBD1
:1028B000CA0000EB0A1031688900B0FBF1F864200F
:1028C000B8FBF0F004012009642101FB1089A889FC
:1028D00000F4004040B1322000EBC900B0FBF1F041
:1028E00000F00700044308E0322000EB09106421E7
:1028F000B0FBF1F000F00F0004432C8106B0BDE8FE
:10290000F08700000038014001468888C0F30800C5
:102910007047C1F308028280704700BFFEE70000E5
:102920002DE9F04104460A49204600F005F98046A9
:10293000084900F00FFA0746074900F09BF80646E1
:1029400000F0BCF985B22846FFF73AFBBDE8F081FC
:10295000000034430000FA440000FA4308B5FFF7D2
:1029600047FCFFF72FF940484023802200210090C8
:102970000846FFF787F9FFF703FAFEF7F5FB72E069
:10298000FEF7B2FC3948008828B9FEF75FFA3848EC
:10299000FFF7C6FF67E035480088012802D1FEF73F
:1029A0006BFA60E031480088022802D1FEF702FB92
:1029B00059E02E480088032802D1FEF729FA52E098
:1029C0002A480088042802D1FEF7C6F84BE02748C1
:1029D0000088052802D1FEF76DF944E023480088FD
:1029E000062802D1FDF710FE3DE0204800880728A8
:1029F00002D1FDF745FF36E01C480088082802D1C7
:102A0000FDF7B2FF2FE019480088092802D1FEF730
:102A100045F828E0154800880A2802D1FDF7AEFDE8
:102A200021E0124800880B2802D1FDF763FD1AE06F
:102A30000E4800880C2802D1FEF7DAFA13E00B48A2
:102A400000880D2802D1FDF7F7FC0CE0074800884C
:102A50000E2802D1FEF730FA05E0044800880F285E
:102A600001D1FDF745FE8BE7304900083600002014
:102A70000000B44290EA010F48BF81F0004100F12C
:102A80004682421A3CBF801A89184FEAD0524FF052
:102A90007F4C1CEA410FA2EBD15318BF9CEA026F96
:102AA00000F03B804FF0004C4CEA00204CEA012142
:102AB00021FA03FC10EB0C0C1ED202F1FF325FEA8C
:102AC0001C2040EBC25038BF70471CF07F0F4FEA0C
:102AD000400C18BFBCF17F4F38BF7047C3F12003D3
:102AE000994008BF20F00100BCF17F4F38BF70470C
:102AF000A0F1C04000F0F5B94FEA3C00000A40EBFD
:102B0000C25028BF1CF0FF0F4FEA400CE6D018BFA0
:102B1000BCF17F4F38BF7047EAE79CEA026F05D0EF
:102B200010EA5C0F08BF00F00040704710B500F0DD
:102B300092F900BF64FBBE3E4FF47F0C1CEAD0123A
:102B40001EBF1CEAD11392EA0C0F93EA0C0F00F09F
:102B5000858090EA010F48BF42F4807240F4000C77
:102B600041F400002CF07F4120F07F4000B581420D
:102B7000A2EB03020FF2081CACEB504EC0F10000B8
:102B80009EF800E04FEA4E0E00FB0EFC38BF4900F5
:102B90004FEA2C1C02F5FA020CFB0EF34FEACE1E94
:102BA0004FEA112C4FEAC1210EEB635E42EB224249
:102BB0000EFB0CFC4FEA1C5300FB03114FEA112CD7
:102BC0004FEA01310EFB0CFC4FEADC4C00FB0C1110
:102BD000C14228BF09184CEB03335DF804EB10EB3E
:102BE000410143EBC250B2F57C0F38BF704729D585
:102BF00012F0F00F1CBF00F1C04000F00040704721
:102C0000008182838485868788898B8C8D8E8F91C5
:102C10009293959697999A9C9D9FA0A2A3A5A7A8E9
:102C2000AAACAEB0B2B3B5B7B9BCBEC0C2C5C7C915
:102C3000CCCED1D4D7D9DCDFE2E6E9ECF0F3F7FA79
:102C4000FE0000004FEA400C0CF1807CBCF17E4F8E
:102C500028BF7047B0F1C04000F043B990EA010FBF
:102C60000CEAD11348BF42F48072624538BF634515
:102C700007D213F47F0F16D080EA010000F0004065
:102C8000704710B500F0E7F8097EFC3E00F005B88B
:102C900080EA010000F00040704780EA010000F087
:102CA000004000F01EB912F47F0F04BF02487047C5
:102CB00080EA010000F015B90000C07FC10DD1F11C
:102CC0009E0206DB4FEA002343F0004323FA02F0A2
:102CD0007047004207D54FEA4001B1F1FE4F02D2E2
:102CE0004FF00000704710B500F0B5F8499224800D
:102CF000002070476FEA20007047000010F000418C
:102D000048BF4042B0FA80F310FA03F2C3F19D03CA
:102D10000BD051EAC35101EB1220530638BF704764
:102D200000F1010008BF20F001007047B0FA80F305
:102D300010FA03F2C3F19D030AD0D90501EB12206A
:102D4000530638BF704700F1010008BF20F00100B2
:102D5000704700004FF47F0C1CEAD0121EBF1CEA23
:102D6000D11392EA0C0F93EA0C0F00F0478090EA1F
:102D7000010F48BF42F480724FF0004C4CEA002033
:102D80004CEA012102EB0302A0FB0113A2F50002B1
:102D9000002918BF43F001035B0028BF4FEA33034B
:102DA00042EB22425FEA132C4CEBC2502EBFBCEB2D
:102DB000436FB2F57C0F70474FEA036CBCF1004FD4
:102DC00008BF20F00100B2F57C0F38BF70470BD56B
:102DD00082F0FF0212F5803FC8BF704700F1C0408B
:102DE000D8BF00F00040704700F5000C5FEA4C0CC3
:102DF00048BF7047B0F1C04000F073B890EA010FCF
:102E00000CEAD11348BF42F48072624538BF634573
:102E100004D280EA010000F00040704710B500F0D5
:102E20001AF800BF8900013E00F007B800F009B8A9
:102E30005FEA410C5FEA1C6C08D080EA010000F0F8
:102E400050B85FEA400C5FEA1C6CF6D14FF00040CE
:102E5000A0F5800070470EF1020E2EF0030E5EF812
:102E6000044B244204D44FEA4102B2F17F4F11D8FF
:102E70004FEA4003B3F17F4F0CD80ED14FEAD07C1C
:102E8000B2F17F4F0CEB4C0C0CF1020C08BF4CEB79
:102E9000D17C04E04FF0080C01E04FEAD17C0CEB50
:102EA0004C0324FA03F404F00704B4F1040C06D232
:102EB0000EEB840CBDE810404CF0010C6047DFE8DD
:102EC0000CF0070802024FF00040A0F5800010BD92
:102ED0000846420018BFD2F1807288BF00F000405F
:102EE00010BDFF2141EAD050C005704780F000407E
:102EF00090EA010F7FF5C5AD81F0004100F007B801
:102F000090EA010F48BF81F000413FF5BAAD421A87
:102F100004D882F00042A0EB020011444FEAD052E4
:102F20004FF07F4C1CEA410FA2EBD15318BF9CEA33
:102F3000026F4AD04FF0004C4CEA00204CEA0121CD
:102F400021FA03FCB0EB0C0C0FD412F0FE0F36D0BC
:102F50005FEA4C001DD5001240EBC25038BF7047ED
:102F60001CF03F0F18BF70470BE0A2F101025FEAAF
:102F70001C2040EBC25038BF70471CF07F0F18BFB9
:102F80007047C3F12003994014BF401E20F0010098
:102F9000704780084FEA122308BF7047B0FA80FCE0
:102FA000A2EB0C02CCF1280C60FA0CF093EA122F81
:102FB00004BF00EBC25070474FEAC3707047130A5A
:102FC0005FEADC1008BF7047F6E79CEA026F04D0A6
:102FD00010EA5C0F08BF0020704710B5FFF73BFFF9
:102FE00040DFF63E81F00040704700000000000026
:102FF00000000000000000000000000000F80000D9
:103000000000000000333000000000160E00160E15
:103010000000000000000000000040C07840C078C0
:103020004000043F04043F040400007088FC0830A2
:103030000000001820FF211E0000F008F000E0183A
:10304000000000211C031E211E0000F008887000F3
:1030500000001E21232419272110000000160E0055
:1030600000000000000000000000000000E0180464
:103070000200000000071820400000020418E000D1
:1030800000000040201807000000404080F0804011
:1030900040000202010F01020200000000F00000E7
:1030A00000000101011F01010100000000000000FB
:1030B000000000B0700000000000000000000000F0
:1030C00000000001010101010101000000000000F9
:1030D00000000030300000000000000000008060B0
:1030E0001804006018060100000000E01008081035
:1030F000E000000F102020100F00001010F800005A
:1031000000000020203F20200000007008080888F0
:1031100070000030282422213000003008888848C0
:1031200030000018202020110E000000C02010F8F0
:10313000000000070424243F240000F808888808C1
:1031400008000019212020110E0000E010888818C6
:103150000000000F112020110E0000380808C838A8
:1031600008000000003F0000000000708808088888
:103170007000001C222121221C0000E01008081011
:10318000E0000000312222110F00000000C0C0004A
:1031900000000000003030000000000000C0C0004F
:1031A0000000000080B0700000000000804020108F
:1031B0000800000102040810200040404040404048
:1031C00040000404040404040400000810204080AB
:1031D00000000020100804020100007048080808E0
:1031E000F0000000003036010000C030C828E810B0
:1031F000E0000718272423140B000000C038E0006B
:103200000000203C23020227382008F888888870B4
:103210000000203F202020110E00C03008080808C0
:103220003800071820202010080008F808080810A7
:10323000E000203F202020100F0008F88888E808D0
:103240001000203F20202320180008F88888E80874
:103250001000203F200003000000C030080808389C
:10326000000007182020221E020008F808000008AD
:10327000F808203F210101213F20000808F8080834
:1032800000000020203F2020000000000808F8086F
:103290000800C08080807F00000008F888C02818DF
:1032A0000800203F20012638200008F80800000010
:1032B0000000203F20202020300008F8F800F8F817
:1032C0000800203F003F003F200008F830C0000801
:1032D000F808203F200007183F00E01008080810F9
:1032E000E0000F10202020100F0008F80808080840
:1032F000F000203F210101010000E0100808081043
:10330000E0000F18242438504F0008F88888888877
:103310007000203F2000030C30200070880808084F
:1033200038000038202121221C00180808F808085D
:1033300018000000203F2000000008F808000008E6
:10334000F808001F202020201F000878880000C8EF
:103350003808000007380E010000F80800F80008DF
:10336000F800033C0700073C0300081868808068E9
:10337000180820302C03032C30200838C800C83827
:1033800008000000203F2000000010080808C8388E
:1033900008002038262120201800000000FE02022C
:1033A00002000000007F40404000000C30C00000E0
:1033B0000000000000010638C00000020202FE000A
:1033C0000000004040407F0000000020100804087A
:1033D00010200000000000000000000000000000BD
:1033E00000008080808080808080000204080000CF
:1033F00000000000000000000000000080808080CD
:1034000000000019242222223F2008F800808000BA
:103410000000003F112020110E000000008080807D
:103420000000000E11202020110000000080808884
:10343000F800000E112020103F20000080808080C6
:103440000000001F222222221300008080F08888C2
:1034500088180020203F202000000000808080800D
:103460008000006B94949493600008F80080808042
:103470000000203F210000203F200080989800009D
:1034800000000020203F20200000000000809898CD
:10349000000000C08080807F000008F8000080806D
:1034A0008000203F24022D302000000808F8000092
:1034B00000000020203F202000008080808080804D
:1034C0008000203F20003F20003F0080800080805F
:1034D000000000203F2100203F20000080808080ED
:1034E0000000001F202020201F008080008080001E
:1034F000000080FFA12020110E00000000808080CD
:103500008000000E112020A0FF808080800080803D
:10351000800020203F21200001000000808080806A
:1035200080000033242424241900008080E080805F
:1035300000000000001F20200000808000000080AC
:103540008000001F202020103F208080800000800D
:10355000808000010E30080601008080008000801D
:1035600080800F300C030C300F00008080008080C2
:1035700080000020312E0E312000808080000080ED
:10358000808080818E70180601000080808080809D
:1035900080000021302C2221300000000000807CBF
:1035A000020200000000003F404000000000FF0059
:1035B000000000000000FF0000000002027C80000C
:1035C00000000040403F00000000008040408000BC
:1035D0000080000000000001010000000000000069
:1035E0000000002F000000000700070000147F14F7
:1035F0007F1400242A7F2A120023130864620036F5
:103600004955225000000007000000001C22410024
:10361000000041221C000014083E08140008083E67
:103620000808000000A06000000808080808000062
:1036300060600000002010080402003E5149453E31
:103640000000427F4000004261514946002141454F
:103650004B31001814127F10002745454539003CB6
:103660004A49493000017109050300364949493684
:1036700000064949291E0000363600000000563673
:103680000000000814224100001414141414000057
:1036900041221408000201510906003E4955592EE5
:1036A000007C1211127C007F49494936003E41419D
:1036B0004122007F4141221C007F49494941007F4E
:1036C00009090901003E4149497A007F0808087F3D
:1036D0000000417F4100002040413F01007F08146D
:1036E0002241007F40404040007F020C027F007F6B
:1036F0000408107F003E4141413E007F0909090650
:10370000003E4151215E007F091929460046494982
:1037100049310001017F0101003F4040403F001F4F
:103720002040201F003F4038403F006314081463CE
:1037300000070870080700615149454300007F41B8
:103740004100000204081020000041417F000004F5
:103750000201020400404040404000000102040019
:10376000002054545478007F48444438003844447E
:10377000442000384444487F00385454541800080A
:103780007E0901020018A4A4A47C007F0804047828
:103790000000447D4000004080847D00007F1028B0
:1037A00044000000417F4000007C04180478007C45
:1037B0000804047800384444443800FC24242418C5
:1037C0000018242418FC007C080404080048545401
:1037D000542000043F444020003C4040207C001C1A
:1037E0002040201C003C4030403C0044281028442D
:1037F000001CA0A0A07C004464544C440000087F3E
:1038000041000000007F00000000417F0800000828
:1038100004081008EFBC8C0000000000000000004D
:103820000000000000000000000058380000000008
:103830000000000000000000E380820000000000A3
:10384000000000000000000000000000000018243C
:10385000241800000000000000000000E4BDA000EB
:10386000008060F8074020180F08C80808281800D2
:10387000010000FF00100C0340807F0001061800CB
:10388000E5A5BD001010F01F10F000808282E292CA
:103890008A868000402215081661000040807F0063
:1038A00000000000E4B89600202020FE2020FF2029
:1038B0002020FF20202020000000007F40404744BF
:1038C0004444474040400000E7958C00000000FE63
:1038D000929292FE929292FE0000000008080484E8
:1038E000621E010001FE020404080800000000003E
:1038F000FF0101013109090909897101010101FF74
:10390000FF8080808080809681808080808080FFA2
:10391000FF01818181FD8991A1C1FD81818101FF2B
:10392000FF808080809F888482819F80808080FF4C
:103930000000000000000000000000000000000087
:103940000000000000000000000000000000000077
:103950000000000000000000000000000000000067
:103960000000000000000000000000000000000057
:103970000000000000000000000000000000000047
:103980000000000000000000000000000000000037
:103990000000000000000000000000000000000027
:1039A0000000000000000000000000000000000017
:1039B0000000000000000000000000000000000007
:1039C00000000000000000000000000000000000F7
:1039D00000000000000000000000000000000000E7
:1039E00000000000000000000000000000000000D7
:1039F00000000000000000000000000000000000C7
:103A000000000000000000000000000000000000B6
:103A100000000000000000000000000000000000A6
:103A20000000000000000000000000000000000096
:103A30000000000000000000000000000000000086
:103A40000000000000000000000000000000000076
:103A50000000000000000000000000000000808066
:103A600080808080800000000000000000000000D6
:103A70000000000000000000000000000000000046
:103A80000000000000000000000000000000000036
:103A90000000000000000000000000000000000026
:103AA0000000000000000000000000000000000016
:103AB0000000000000000000000000000000000006
:103AC00000000000000000000000000000000000F6
:103AD00000000000000086C6C6C7C7E3E3E3E3E3D7
:103AE000E1E1E3E7C7C7870600000000000000002F
:103AF00000000000000000000000000000000010B6
:103B0000181C1C1E0E0607878383870707070606F7
:103B10000E1E1C1C1C18000000000000000000000D
:103B20000000000000000000000000000000000095
:103B30000000000000000000000000000000000085
:103B40000000000000000000000000000000000075
:103B500000000000000F0F1F1F3F3F38383030308B
:103B600038383D3F1F1F1F0F0000000000000000FD
:103B7000000000000000000000000000000000083D
:103B80003C7E7EFEFFEFC7C3C3C3C3C3E7FFFFFF97
:103B90007E7E3C18000000000000000000000000D5
:103BA0000000000000000000000000000000000015
:103BB000000000000000000000000000103838384D
:103BC0007C7C7C7C7C7C6C6C6C6C6C6C6C6C6C6CD5
:103BD0007C7C7C7838383000000000000000000059
:103BE000000000C0C0C0C0C0000000000000008095
:103BF00080808000000000000000C0C0C0C08000C5
:103C000000000000000001010101010100008080AE
:103C1000C0C0C0C0C0C0C0C0C0C0C0C0C0C0C080E4
:103C20008080000000000000000000000000000094
:103C30000000000000000000000000000000000084
:103C40000000000000000000000000000000000074
:103C50000000000000000000000000000000000064
:103C6000000000070F1F1F1F1C181818181C1F0F1B
:103C70000F1F1F3E383838383838393F1F1F0F0F95
:103C80000400000000000000000000000307070718
:103C900007070706060E0E0E0E0E0E0E0E0F0F076E
:103CA0000707030300000000000000000000000000
:103CB0000000000000000000000000000000000004
:103CC00000000000000000000000000000000000F4
:103CD00000000000000000000000000000000000E4
:103CE00000000000000000000000000000000000D4
:103CF00000000000000000000000000000000000C4
:103D000000000000000000000000000000000000B3
:103D100000000000000000000000000000000000A3
:103D20000000000000000000000000000000000093
:103D30000000000000000000000000000000000083
:103D40000000000000000000000000000000000073
:103D50000000000000000000000000000000000063
:103D60000000000000000000000000000000000053
:103D70000000000000000000000000000000000043
:103D80000000000000000000000000000000000033
:103D90000000000000000000000000000000000023
:103DA0000000000000000000000000000000000013
:103DB0000000000000000000000000000000000003
:103DC0000000000000000000000000000080C0E0D3
:103DD000F0F8F8FCFCFCFCFCFCF8F0F0E0800000E3
:103DE00000000000000000000000000000000000D3
:103DF00000000000000000000000000000000000C3
:103E00000080C0E0F0F8F8FCFCFCFCFCF8F8F0F0F6
:103E1000E080000000000000000000000000000042
:103E20000000000000000000000000000000000092
:103E30000000000000000000000000000000000082
:103E400000000000000000000000C0F8FEFFFFFFBF
:103E5000FFFFFFFFFFFFFFFFFFFFFFFFFFFFFFFC75
:103E6000F0800000000000000000000000000000E2
:103E70000000000000000000000000000000C0F88A
:103E8000FEFFFFFFFFFFFFFFFFFFFFFFFFFFFFFF43
:103E9000FFFFFFFCF08000000000000000000000B9
:103EA0000000000000000000000000000000000012
:103EB0000000000000000000000000000000000002
:103EC000000000000000000000FCFFFFFFFFFFFFFC
:103ED000FFFFFFFFFFFFFFFFFFFFFFFFFFFFFFFFF2
:103EE000FFFF0000000000000000000000000000D4
:103EF00000000000000000000000000000FCFFFFC8
:103F0000FFFFFFFFFFFFFFFFFFFFFFFFFFFFFFFFC1
:103F1000FFFFFFFFFFFF00000000000000000000A7
:103F20000000000000000000000000000000000091
:103F30000000000000000000000000000000000081
:103F40000000000000000000003FFFFFFFFFFFFF38
:103F5000FFFFFFFFFFFFFFFFFFFFFFFFFFFFFFFF71
:103F6000FFFF000000000000000000000000000053
:103F7000000000000000000000000000003FFFFF04
:103F8000FFFFFFFFFFFFFFFFFFFFFFFFFFFFFFFF41
:103F9000FFFFFFFFFFFF0000000000000000000027
:103FA0000000000000000000000000000000000011
:103FB0000000000000000000000000000000000001
:103FC00000000000000000000000031F7FFFFFFF53
:103FD000FFFFFFFFFFFFFFFFFFFFFFFFFFFFFF3FB1
:103FE0000F010000000000000000000000000000C1
:103FF0000000000000000000000000000000031F9F
:104000007FFFFFFFFFFFFFFFFFFFFFFFFFFFFFFF40
:10401000FFFFFF3F0F010000000000000000000054
:104020000000000000000000000000000000000090
:104030000000000000000000000000000000000080
:104040000000000000000000000000000001030765
:104050000F1F1F3F3F3F3F3F3F1F1F0F0703000042
:104060000000000000000000000000000000000050
:104070000000000000000000000000000000000040
:10408000000103070F1F1F3F3F3F3F3F3F1F1F0F11
:104090000703000000000000000000000000000016
:1040A0000000000000000000000000000000000010
:1040B0000000000000000000000000000000000000
:1040C00000000000000000000000000000000000F0
:1040D00000000000000000000000000000000000E0
:1040E00000000000000000000000000000000000D0
:1040F00000000000000000000000000000000000C0
:1041000000000000000000000000000000000000AF
:10411000000000000000000000000000000000009F
:10412000000000000000000000000000000000008F
:10413000000000000000000000000000000000007F
:10414000000000000000000000000000000000006F
:10415000000000000000000000000000000000005F
:10416000000000000000000000000000000000004F
:10417000000000000000000000000000000000003F
:10418000000000000000000000000000000000002F
:10419000000000000000000000000000000000001F
:1041A000000000000000000000000000000000000F
:1041B00000000000000000003070F0F0F0E0E0E0EF
:1041C000C0C08080800000000000000000000000EF
:1041D00000000000000000000000000000000000DF
:1041E00000000000000000000000000000000000CF
:1041F00000000000000000000000000000000000BF
:1042000000000000000000000000000000000000AE
:10421000000000000000000000808080C0C0E0E0DE
:10422000F0F07078787830000000000000000000A6
:10423000000000000000000000000000000001017C
:104240000303030707070F0E1E1E1C3C3C787878FB
:10425000F0F0E0E0E0C0C0C080800000000000009E
:10426000000000000000000000000000000000004E
:10427000000000000000000000000000000000003E
:10428000000000000000000000C0E0E0F0F0F0F8E6
:10429000F8F83C1C1E1E0F0F07070707030101015A
:1042A000010000000000000000000000000000000D
:1042B0000000000000000000000000008080C0C07E
:1042C000C0C0E0E0E0E0F07070787838383C3C1C2A
:1042D0001C1E1F1F0F0F0F0F070703000000000019
:1042E00000000000000000000000000000000000CE
:1042F00000000000000000000000000000000000BE
:104300000000000000000000000001030303070795
:10431000070F0F0F0F1E1E1E3C3C3C787878F0F004
:10432000F0E0E0E0E0C080000000000000000000DD
:10433000000000000000000000008081030303F380
:104340006101010180E03000000080C0C000000079
:10435000000000000000000000000000000000005D
:1043600000000000103878F8F8F878383838383815
:1043700038383838383838383878F8F878383000FD
:10438000000000000000000000000000000000002D
:10439000000000C0E0000080F03000000080F070FD
:1043A00000000101E1C10000000000000000000069
:1043B000000000000000000000070F0100103F0F88
:1043C0000000007C1F030000603C0F0300000000A1
:1043D00000000000000000000000000000000000DD
:1043E00000000000000000000F3FFCF0C0C0C0C093
:1043F000C0C0C0C0C0C0C0C0E0FC7F0F0000000053
:1044000000000000000000000000000000000000AC
:10441000000000070300003F070000003C1F0000F1
:1044200000103C1F01000000000000000000000020
:10443000000000000000000000000000000000007C
:10444000000000000000000000000000000000006C
:10445000000000000000000000000000000000005C
:10446000000000000000000000000000000000004C
:10447000000000000000000000000000000000003C
:10448000000000000000000000000000000000002C
:10449000000000000000000000000000000000001C
:1044A000000000000000000000000000000000000C
:1044B00000000000000000000000000000000000FC
:1044C00000000000000000000000000000000000EC
:1044D00000000000000000000000000000000000DC
:1044E00000000000000000000000000000000000CC
:1044F00000000000000000000000000000000000BC
:1045000000000000000000000000000000000000AB
:10451000000000000000000000000000000000009B
:10452000000000000000000000000000000000008B
:10453000000000000000000000000000000000007B
:10454000000000000000000000000000000000006B
:10455000000000000000000000000000000000005B
:10456000000000000000000000000000000000004B
:10457000000000000000000000000000000000003B
:10458000000000000000000000000000000000002B
:10459000000000000000000000000000000000001B
:1045A000000000000000000000000000000000000B
:1045B00000000000000000C0F838383060E0C08023
:1045C00000000000000000000000000000000000EB
:1045D00000000000000000000000000000000000DB
:1045E00000000000000000000000000000000000CB
:1045F00000000000000000000000000000000000BB
:1046000000000000000000000000000000000000AA
:10461000000000000000000000000000000080C05A
:10462000E07030387CF080000000000000000000E6
:10463000000000000000FCFF8700000000000103F4
:10464000070E0C183870E0C0800000000000000069
:10465000000000000000000000000000000000005A
:10466000000000000000000000000000000000004A
:10467000000000000000000000000000000000003A
:10468000000000000000000000000000000000002A
:10469000000000000080C0E070381C0E0607030117
:1046A0000000000000FFFF300000000000000000DC
:1046B00000000000000000071F3C70E0C080800088
:1046C00000000000000000010103070E1C387060AC
:1046D000C0C08000000000000000000000000000DA
:1046E00000000000000000000000000000000000CA
:1046F00080C0C000000000000000000000000000BA
:10470000000000000000000000000080C0E06030F9
:10471000381C0E070301000000000000000080802C
:10472000C0C060381C0F0300000000000000000043
:1047300000000000000000000000000000010183F4
:1047400003070606068C8C0C0C0C18181818181881
:1047500018191B1F1E1C181000000000000000008C
:104760000000000000FEFE0E1C38706070180E077E
:1047700003010103061C3830381C0EFFFF00000047
:1047800000000000000018181C1E1F1B1918181824
:104790001898980C0C0C0C0C8C0606060703038169
:1047A0000100000000000000000000000000000008
:1047B00000000000000000000000000000101E07C4
:1047C0000000C0701C030000000000F03E0000006C
:1047D00000000000000000000000000000000000D9
:1047E0000000000000FFFF8000000000000000004B
:1047F0000000000000000000000080FFFF0000003B
:104800000000000000000000000000000000001890
:104810000E0300000000380F0100000000003F03FD
:104820000000000000000000000000000000000088
:104830000000000000000000000000000000000078
:104840000000000000000000000000000000000068
:104850000000000000000000000000000000000058
:10486000000000000000030303030303030303032A
:104870000303030303030303030303030100000013
:104880000000000000000000000000000000000028
:104890000000000000000000000000000000000018
:1048A0000000000000000000000000000000000008
:1048B00000000000000000000000000000000000F8
:1048C00000000000000000000000000000000000E8
:1048D00000000000000000000000000000000000D8
:1048E00000000000000000000000000000000000C8
:1048F00000000000000000000000000000000000B8
:1049000000000000000000000000000000000000A7
:104910000000000000000000000000000000000097
:104920000000000000000000000000000000000087
:104930000000000000000000000000000000000077
:104940000000000000000000000000000000000067
:104950000000000000000000000000000000000057
:104960000000000000000000000000000000000047
:104970000000000000000000000000000000000037
:104980000000000000000000000000000000000027
:104990000000000000000000000000000000000017
:1049A0000000000000000000000000000000000007
:1049B00000000000000000000000000000000000F7
:1049C00000000000000000000000000000000000E7
:1049D00000000000000000000000000000000000D7
:1049E00000000000000000000000000000000000C7
:1049F00000000000000000000000000000000000B7
:104A000000000000000000000000000000000000A6
:104A10000000000000000000000000000000000096
:104A20000000000000000000000000000000000086
:104A300000000000000000808080C0C0C0C0C0C076
:104A4000C0C0C0C0C0C0C0C0E0E0E0E0E0E0E0E066
:104A5000E0E0E0E0E0E0F0F0F0F020000000000036
:104A60000000000000000000000000000000000046
:104A70000000000000000000000000000000000036
:104A8000000008181858F8F8F8F8F8F8F8F8F8F8E6
:104A9000F8F8F8F8F8F8F8F8F8F8F8F8F8F8F0F0A6
:104AA000F0F0F0F0F0F0F0F0F0F0F00000000000B6
:104AB000000000000080F3F3FBFBFBFBFBFFFFFFAC
:104AC000FFFFFFFFFFFFFFFFFFFFFFFF7D7D7D3D3E
:104AD0003D3D3D3D3D1D1F1F1F1F1E0E0E0C0C00BA
:104AE00000000000000000000000000000000000C6
:104AF00000000000000000000000000000000000B6
:104B0000000000003C7EFFFFFFFFFFFFFFFFFFFFF5
:104B1000FFFFFFFFFFFFFFFFFFFFFFFFFFFDFDF9AF
:104B2000F9F9F9F9F9F9F1F1F1703000000000003C
:104B30000000000000010100113F3F3F1F1F1F1F29
:104B40001F1F1F1F0F0F0F0F0F0F0F0F0F0F070745
:104B5000070707070707070703030303030000000E
:104B60000000808080808080808080808080808045
:104B70008080808080808080808080808080000035
:104B80000000000000000000000000000000000025
:104B90000000000000000000000000000000000015
:104BA0000000000000000000000000000000000005
:104BB00000000000000000000000000000000000F5
:104BC00000000000000000000000000000000000E5
:104BD00000000000000000000000000000000000D5
:104BE0000000FFFF010000000000000000000000C6
:104BF00000000000000000000000000081FFFF0036
:104C000000000000000000000000000000000000A4
:104C10000000000000000000000000000000000094
:104C20000000000000000000000000000000000084
:104C30000000000000000000000000000000000074
:104C40000000000000000000000000000000000064
:104C50000000000000000000000000000000000054
:104C60000000010101010101010101010101010136
:104C7000010101010101FFFF00000003FF0100002D
:104C80000000000000000000000000000000000024
:104C90000000000000000000000000000000000014
:104CA0000000000000000000000000000000000004
:104CB00000000000000000000000000000000000F4
:104CC00000000000000000000000000000000000E4
:104CD00000000000000000000000000000000000D4
:104CE00000000000000000000000000000000000C4
:104CF00000000000000000030306020301000000A2
:104D000000000000000000000000000000000000A3
:104D10000000000000000000000000000000000093
:104D20000000000000000000000000000000000083
:104D30000000000000000000000000000000000073
:104D40000000000000000000000000000000000063
:104D50000000000000000000000000000000000053
:104D60000000000000000000000000000000000043
:104D70000000000000000000000000000000000033
:104D80000000000000000000000000000000000023
:104D90000000000000000000000000000000000013
:104DA0000000000000000000000000000000000003
:104DB00000000000000000000000000000000000F3
:104DC00000000000000000000000000000000000E3
:104DD00000000000000000000000000000000000D3
:104DE00000000000000000000000000000000000C3
:104DF00000000000000000000000000000000000B3
:104E000000000000000000000000000000000000A2
:104E10000000000000000000000000000000000092
:104E20000000000000000000000000000000000082
:104E300000000000000000C0E0F0F8F8FC7C3E3EFE
:104E40001E1F1F1F1F1E3E3E7CFCF8F8F0E0800076
:104E50000000000000000000000000000000000052
:104E600000000000000000000000000000C0000082
:104E70000000000080800000000000000000000032
:104E800000800000000000000000000000000000A2
:104E9000000080E0F0F8F8FC7C3E3E1E1F1F1E1E46
:104EA0001E3E3E7CFCF8F8F0E080000000000000B0
:104EB0000000000000F8FFFFFFFF070100000000F6
:104EC000000000000000000000000107FFFFFFFFDE
:104ED000F000000000000000000000000060301C36
:104EE0000603C0E0380E0700C0E0380E07010000DE
:104EF000E0701C07030060701C0703000060380EA0
:104F0000070130380E030000000000000000000020
:104F1000F8FFFFFFFF030100000000000000000099
:104F200000000000000107FFFFFFFFF0000000008D
:104F30000000000000010F3F7FFFFCF8F0E0C0C060
:104F4000808080808080C0C0E0F0F8FEFF7F1F0F6F
:104F50000000000000000000000000000000000051
:104F60000000000000000000000000000000000041
:104F70000000000000000000000000000000000031
:104F80000000000000000000000000000000000021
:104F9000010F3F7FFFFCF8F0E0C0C0808080808080
:104FA00080C0C0E0F0F8FEFF7F3F0F01000000006E
:104FB00000000000000000000000010303070707D5
:104FC000070F0F0F0F0F0707070301010000000075
:104FD00000000000000000000000000000000000D1
:104FE00000007FFC8000000000000000000000E0E6
:104FF000FFFE800000000000000000000080FE7E38
:1050000000000000000000000000000000000000A0
:105010000000000000010303070707070F0F0F0F31
:10502000070707070301010000000000000000005F
:105030000000000000000000000000000000000070
:105040000000000000000000000000000000000060
:105050000000000000000000000000000000000050
:105060000000000103030606060606060606030105
:1050700001010307060606060606060603030100ED
:105080000000000000000000000000000000000020
:105090000000000000000000000000000000000010
:1050A0000000000000000000000000000000000000
:1050B00000000000000000000000000000000000F0
:1050C00000000000000000000000000000000000E0
:1050D00000000000000000000000000000000000D0
:1050E00000000000000000000000000000000000C0
:1050F00000000000000000000000000000000000B0
:10510000000000000000000000000000000000009F
:10511000000000000000000000000000000000008F
:10512000000000000000000000000000000000007F
:10513000000000000000000000000000000000006F
:10514000000000000000000000000000000000005F
:10515000000000000000000000000000000000004F
:10516000000000000000000000000000000000003F
:10517000000000000000000000000000000000002F
:10518000000000000000000000000000000000001F
:10519000000000000000000000000000000000000F
:1051A00000000000000000000000000000000000FF
:1051B0000000E0E0E0E0C0C0C0808000000000002F
:1051C00000000000000000000000000000000000DF
:1051D00000000000000000000000000000000000CF
:1051E00000000000000000000000000000000000BF
:1051F00000000000000000000000000000000000AF
:10520000000000000000000000000000000000009E
:10521000000000000000000000000000000000008E
:10522000008080C0C0C0E0E0F0F0F00000000000AE
:1052300000000001010303030707070F0F0F1E1EE5
:105240003E3C7C7C78F8F0F0E0E0E0E0C0C080809C
:1052500080000000000000000000000000000000CE
:10526000000000000000000000000000000000003E
:10527000000000000000000000000000000000002E
:10528000000000000000000000000000008080C05E
:10529000C0C0E0E0E0F0F0F8F8F8BCBC9E9E9F8F44
:1052A0008F8FC7C7C3C3C3C1C1C0C0C00000000047
:1052B00000000000081C1C1C1C1C1C1C1C1C1C1CB2
:1052C0009C9C9C9CDCDCDCDCFDFDFFFFFFFFFFFF0A
:1052D0007F7F7F3E3E3E3C1C00000000000000003F
:1052E000E0E0E0000000000000000000000000001E
:1052F00000C0C0C00000000000000000000000C0AE
:10530000C0C00000000000000000000F0F0F1F1FB2
:105310001F3F3F3F3F7F7F7FFBF3F3F3E3E3E3E395
:10532000C1C1C181818101010101000000000000B3
:105330000000000000001C3C3C1E1E1E1F0F0F0F33
:105340000F870707070303030101010100000000A5
:10535000000000000000000000000000000000004D
:10536000031F7FF8E0C0C0808080808080C0E0F0B4
:10537000783F7FFFE080000000000000000080F325
:10538000FFFF00000000000000000000000000001F
:105390000000000000000000000000010101030304
:1053A00003038787070F0F0F0F0E0C00000000008C
:1053B00000000000F8FC0000C0FE7F02000080F04A
:1053C0007F0F010000C0F81E040000000000000074
:1053D00000000000000000000000000000000000CD
:1053E000000000000003FFFFFF03030303010100AF
:1053F000000000010307070FFEFE3E060707070334
:10540000010000000000000000000000000000009B
:105410000000000000F07E0C0000F87F0700000094
:10542000E0FC1F030000C0F03E060000000000008A
:1054300000000000010000000303000000040F074B
:10544000000000000607000000000000000000004F
:10545000000000000000000000000000000000004C
:105460000000000000000003070F1E1C1C1C1C1C79
:105470001C1C1C1C1C1C1E0F0F0300000000000045
:10548000000000000000000000000000000000001C
:105490000000000000000000000003000000000702
:1054A00007000000000207010000000000000000EB
:1054B00000000000000000000000000000000000EC
:1054C00000000000000000000000000000000000DC
:1054D00000000000000000000000000000000000CC
:1054E00000000000000000000000000000000000BC
:1054F00000000000000000000000000000000000AC
:10550000000000000000000000000000000000009B
:10551000000000000000000000000000000000008B
:10552000000000000000000000000000000000007B
:1055300050550008000000204C0000002801000821
:105540009C5500084C000020C40A000044010008DB
:1055500000127A00000000000000000001020304B5
:105560000607080900000000010203040102030409
:1055700006070809020406080000000001000000F8
:105580000100000000000000C8000600000000004C
:0C5590000000000000000200000000000D
:04000005080000ED02
:00000001FF
