:020000040800F2
:10000000180B002089010008231B0008091B0008A9
:100010001F1B0008ED150008D32A0008000000008F
:100020000000000000000000000000005522000851
:10003000F1150008000000003D21000863230008BE
:10004000A3010008A3010008A3010008A301000800
:10005000A3010008A3010008A3010008A3010008F0
:10006000A3010008A3010008A3010008A3010008E0
:10007000A3010008A3010008A3010008A3010008D0
:10008000A3010008A3010008A3010008A3010008C0
:10009000A3010008A3010008A3010008A3010008B0
:1000A000A3010008A3010008A3010008A3010008A0
:1000B000A3010008C5230008A3010008A30100084C
:1000C000A3010008A3010008A3010008A301000880
:1000D000A301000855280008A30100089D28000876
:1000E000A3010008A3010008A301000800F002F822
:1000F00000F03AF80AA090E8000C82448344AAF188
:100100000107DA4501D100F02FF8AFF2090EBAE885
:100110000F0013F0010F18BFFB1A43F0010318473B
:100120001456000034560000103A24BF78C878C135
:10013000FAD8520724BF30C830C144BF04680C60ED
:10014000704700000023002400250026103A28BF35
:1001500078C1FBD8520728BF30C148BF0B60704739
:100160001FB51FBD10B510BD00F058F91146FFF7BF
:10017000F7FF02F0CFFC00F076F903B4FFF7F2FFCF
:1001800003BC00F079F9000009488047094800479E
:10019000FEE7FEE7FEE7FEE7FEE7FEE7FEE7FEE737
:1001A000FEE7FEE704480549054A064B7047000094
:1001B00065230008ED00000818050020180B00203A
:1001C000180700201807002030B505460B462A46C0
:1001D00013F8014B12F8010B08B1A042F8D01CB182
:1001E000002802D06D1CF1E7284630BD40EA01032B
:1001F000024630B59B0710D14FF0013400E008C231
:1002000008C91D1B9D4315EAC41FF8D013F0FF0158
:1002100002F8011B0DD01B0AF8E711F8013B002B77
:1002200002F8013B05D011F8013B002B02F8013B1D
:10023000F3D130BD10B5431C02E010F8011B71B1C1
:100240008107FAD14FF0013202C88C1A8C4314EAAC
:10025000C211F9D0C01A0A0603D0C01E10BDC01AC0
:1002600010BD0A0401D0801E10BD0902FCD0401E42
:1002700010BD40EA010370B59B072ED14FF0013647
:10028000042A2AD308C810C99D1B9D43121F15EAD2
:10029000C61517D0D8B2E1B2401A50EA056110D1A4
:1002A00098B2A1B2401A50EA05410AD123F07F402A
:1002B00024F07F41401A50EA052102D1180EA0EB2C
:1002C000146070BDA342DBD018BA21BA884201D9AC
:1002D000012070BD4FF0FF3070BD0AB9002070BD25
:1002E00010F8013B11F8014B63B1A3420AD1521E31
:1002F00008D010F8013B11F8014B1BB1A34201D10A
:10030000521EEDD1181B70BD421E12F8013F002B8A
:10031000FBD111F8013B002B02F8013BF9D17047EA
:10032000032A40F2308010F0030C00F0158011F821
:10033000013BBCF1020F624498BF11F801CB00F8F9
:10034000013B38BF11F8013BA2F1040298BF00F84D
:1003500001CB38BF00F8013B11F0030300F0288007
:10036000083AC0F0088051F8043B083A51F804CB31
:10037000A0E80810F5E7121D5CBF51F8043B40F8F7
:10038000043BAFF30080D20724BF11F8013B11F802
:1003900001CB48BF11F8012B24BF00F8013B00F846
:1003A00001CB48BF00F8012B70477047704770477A
:1003B00010B5203AC0F00B80B1E81850203AA0E800
:1003C0001850B1E81850A0E81850BFF4F5AF5FEA34
:1003D000027C24BFB1E81850A0E8185044BF18C9E7
:1003E00018C0BDE810405FEA827C24BF51F8043B8E
:1003F00040F8043B08BF7047D20728BF31F8023BE2
:1004000048BF11F8012B28BF20F8023B48BF00F875
:10041000012B704700487047B80400207546FFF76D
:10042000F9FFAE4605006946534620F007008546B1
:1004300018B020B5FFF7B6FEBDE820404FF000062B
:100440004FF000074FF000084FF0000B21F00701BC
:10045000AC46ACE8C009ACE8C009ACE8C009ACE8FF
:10046000C0098D46704710B50446AFF300802046A2
:10047000BDE81040FFF781BE01491820ABBEFEE782
:10048000260002007047000070B50425284801F0DE
:1004900023FF284801F03EFF502001F0AAF826482B
:1004A00001F0DAFE35E0254800880D2800D035E05F
:1004B00000240FE0214800880D2800D00CE02046E1
:1004C00002F00AFD064601F0E5FE1D48008801F035
:1004D00090F8641C2D2CEDDD00BF2D240FE0174893
:1004E00000880D2800D00CE0204602F0F5FC0646FE
:1004F00001F0D0FE1248008801F07BF8641E002C49
:10050000EDDC00BF0D4800880D2800D006E0681E15
:1005100085B21DB1094800880D28C4D000BF074826
:1005200000880D2802D102200449088070BD000017
:100530000000A041000034420000B4423600002018
:100540003A00002010B51C480088D0B91B4801F0C3
:10055000E1FE1B4801F080FE1A48008801F049F8CE
:10056000164801F0B9FE164801F094FE15480088BF
:1005700001F03FF80C201449088001200E49088042
:1005800019E00E4801F0A8FE0D4801F083FE0D4869
:10059000008801F02EF8094801F0BCFE084801F07F
:1005A0005BFE0848008801F024F80C20064908800A
:1005B00000200149088010BD5400002000000C42BA
:1005C00000000C43380000203600002010B51D4804
:1005D0000088D8B91C4801F03FFE1C4801F09AFE83
:1005E0001B48008801F005F8174801F053FE174832
:1005F00001F072FE16480088503000F0FAFF022029
:100600001449088001200F4908801AE00E4801F0C3
:1006100041FE0E4801F060FE0D48008800F0E9FF41
:10062000094801F019FE094801F074FE08480088E5
:10063000503000F0DEFF022006490880002001490A
:10064000088010BD5200002000000C4300000C4246
:10065000380000203600002010B55EE0022031494D
:10066000088008460088801C088040E02E4801F081
:1006700011FE2E4801F030FE2D48008800F0B9FF31
:100680002C480088062800D03BE0274801F0E4FD14
:10069000264801F03FFE2648008800F0AAFF2548C2
:1006A0000088062800D02CE0234801F0F3FD224802
:1006B00001F012FE1E48008800F09BFF1D480088D4
:1006C000062800D01DE01C4801F0C6FD1A4801F0C4
:1006D00021FE1748008800F08CFF16480088062885
:1006E00000D00EE00F480088401E0E4908800D48DB
:1006F000008810B91148008818B10E4800880628F3
:10070000B4D000BF0D480088012806D009480088F1
:10071000062802D1022007490880064800880628DA
:100720009CD010BD50000020000034420000074360
:1007300038000020360000200000B44234000020C1
:100740002DE9F04101260324A7E0574801F084FD7C
:10075000564801F09FFD3C2000F04BFF544801F04B
:10076000D9FD5A250EE0534800880F2800D00BE031
:10077000284602F0B1FB074601F0AEFD062000F06E
:1007800038FF6D1CB42DEEDB00BF14E0B4250EE085
:10079000484800880F2800D00BE0284602F09CFB58
:1007A000074601F099FD0F2000F023FF6D1E962DE6
:1007B000EEDC00BF641E1CB13E4800880F28E5D067
:1007C0003C4800880F2800D06AE0642000F011FF48
:1007D000354801F041FD344801F05CFD35480088A2
:1007E0000F2800D05CE0502000F003FF2E4801F0FD
:1007F00073FD2D4801F08EFD642000F0FAFE2D48B7
:1008000000880F2800D04BE00324274801F042FD68
:10081000264801F021FD274800880F2800D03FE03E
:100820003C2000F0E6FE224801F056FD5A250EE07D
:10083000204800880F2800D00BE0284602F04CFB2F
:10084000074601F067FD062000F0D3FE6D1CB42DB5
:10085000EEDB00BF14E0B4250EE0164800880F2838
:1008600000D00BE0284602F037FB074601F052FDAE
:100870000F2000F0BEFE6D1E962DEEDC00BF641E44
:100880001CB10C4800880F28E5D00A4800880F28C2
:1008900002D10220074908800026002E7FF455AFC0
:1008A00000BFBDE8F08100000000B4420000A0419C
:1008B0000000DC423600002010B5034802F00CF9BD
:1008C00000200249087010BD0000B4423E00002024
:1008D00010B55EE002203149088008460088801C7F
:1008E000088040E02E4801F0B7FC2E4801F012FDD0
:1008F0002D48008800F07DFE2C480088072800D095
:100900003BE0274801F0C6FC264801F0E5FC2648FC
:10091000008800F06EFE25480088072800D02CE0F3
:10092000234801F099FC224801F0F4FC1E4800889D
:1009300000F05FFE1D480088072800D01DE01C481D
:1009400001F0A8FC1A4801F0C7FC1748008800F025
:1009500050FE16480088072800D00EE00F48008897
:10096000401E0E4908800D48008810B911480088C3
:1009700018B10E4800880728B4D000BF0D48008881
:10098000012806D009480088072802D1022007491B
:1009900008800648008807289CD010BD5000002021
:1009A00000003442000007433800002036000020D9
:1009B0000000B4423400002070B503255BE01E2423
:1009C00022E0204602F0A0FA064601F045FC20464F
:1009D00002F09AFA064601F05DFC204602F094FA15
:1009E000064601F079FC204602F08EFA064601F038
:1009F00091FC3C48008800F0FCFD3B48008808283A
:100A000000D003E0601CC4B2962CDADB00BF36488D
:100A10000088082800D033E0962422E0204602F027
:100A200073FA064601F018FC204602F06DFA0646FD
:100A300001F030FC204602F067FA064601F04CFC5B
:100A4000204602F061FA064601F064FC2548008861
:100A500000F0CFFD24480088082800D003E0601E85
:100A6000C4B21E2CDADC00BF1F480088082800D062
:100A700006E0681E85B21DB11B48008808289ED07C
:100A800000BF1E2422E0204602F03EFA064601F096
:100A9000E3FB204602F038FA064601F0FBFB204655
:100AA00002F032FA064601F017FC204602F02CFA5A
:100AB000064601F02FFC0B48008800F09AFD0A481A
:100AC0000088082800D003E0601CC4B25A2CDADB8E
:100AD00000BF05480088082802D10220024908808A
:100AE00070BD00003A0000203600002070B50325DC
:100AF0003C2000F07EFD37E01E2410E0204602F08E
:100B000003FA064601F0E8FF2348008800F071FD73
:100B100022480088092800D003E0601CC4B2962C4B
:100B2000ECDB00BF1D480088092800D022E0962495
:100B300010E0204602F0E8F9064601F0CDFF164825
:100B4000008800F056FD15480088092800D003E011
:100B5000601EC4B21E2CECDC00BF104800880928BF
:100B600000D007E0681E05B2002D03DD0B480088A9
:100B70000928C1D000BF0A4801F0AEFF3C2000F0B8
:100B800038FD06480088092802D102200349088060
:100B900000200449087070BD3A0000203600002093
:100BA0000000B4423E00002010B597E002204E49FC
:100BB00008807CE04D4801F06DFB4C4801F08CFB57
:100BC0004B48008800F015FD4A480088042800D0F2
:100BD00078E0494801F040FB474801F09BFB44485E
:100BE000008800F006FD43480088042800D069E032
:100BF000424801F04FFB414801F06EFB3C48008841
:100C000000F0F7FC3B480088042800D05AE03B483D
:100C100001F022FB394801F07DFB3548008800F0E7
:100C2000E8FC34480088042800D04BE02F4801F04D
:100C300013FB2E4801F06EFB2D48008800F0D9FC14
:100C40002C480088042800D03CE02B4801F022FB0F
:100C5000294801F041FB2648008800F0CAFC2548DD
:100C60000088042800D02DE0244801F0F5FA23483C
:100C700001F050FB1E48008800F0BBFC1D480088B6
:100C8000042800D01EE01D4801F004FB1B4801F0C1
:100C900023FB1748008800F0ACFC164800880428A5
:100CA00000D00FE010480088401E0F4908800E4811
:100CB000008810B91248008820B10E480088042826
:100CC0003FF478AF00BF0E480088012806D00948DD
:100CD0000088042802D102200649088005480088BF
:100CE00004283FF463AF10BD5000002000003442E0
:100CF0003800002036000020000007430000B44206
:100D00003400002010B597E002204E4908807CE0B6
:100D10004D4801F0BFFA4C4801F0DEFA4B4800881C
:100D200000F067FC4A480088052800D078E0494870
:100D300001F092FA474801F0EDFA4448008800F0CB
:100D400058FC43480088052800D069E0424801F07B
:100D5000A1FA414801F0C0FA3C48008800F049FC83
:100D60003B480088052800D05AE03B4801F074FA5F
:100D7000394801F0CFFA3548008800F03AFC344891
:100D80000088052800D04BE02F4801F065FA2E4876
:100D900001F0C0FA2D48008800F02BFC2C48008898
:100DA000052800D03CE02B4801F074FA294801F0F6
:100DB00093FA2648008800F01CFC25480088052886
:100DC00000D02DE0244801F047FA234801F0A2FAB0
:100DD0001E48008800F00DFC1D480088052800D042
:100DE0001EE01D4801F056FA1B4801F075FA17483D
:100DF000008800F0FEFB16480088052800D00FE0B0
:100E000010480088401E0F4908800E48008810B91D
:100E10001248008820B10E48008805283FF478AFBA
:100E200000BF0E480088012806D009480088052820
:100E300002D10220064908800548008805283FF4B1
:100E400063AF10BD500000200000074338000020B1
:100E500036000020000034420000B442340000207C
:100E600010B50B4801F0F8F9094801F013FA5020C9
:100E700000F0BFFB064801F02FFA054801F04AFADE
:100E800004480078012802D109200349088010BDD8
:100E90000000A0413E0000203600002010B50848A8
:100EA00001F0DAF9064801F0F5F9502000F0A1FB55
:100EB000044801F011FA034801F02CFA10BD0000BB
:100EC0000000A0410000204310B50B4801F0C4F918
:100ED000094801F0DFF9502000F08BFB074801F0D2
:100EE000FBF9064801F016FA05480078012802D1FE
:100EF00009200449088010BD0000B4420000A04150
:100F00003E0000203600002070B53C4801F0E4F9B6
:100F10003A4801F0FFF9502000F06BFB5A2414E02E
:100F2000204601F0D9FF054601F096F9204601F070
:100F3000D3FF054601F0AEF9314800880E2800D0F5
:100F400005E00F2000F055FB641E0A2CE8DC00BF12
:100F50000A2414E0204601F0BFFF054601F07CF9A9
:100F6000204601F0B9FF054601F094F924480088B5
:100F70000E2800D005E00F2000F03BFB641C5A2C2B
:100F8000E8DB00BF5A2414E0204601F0A5FF054627
:100F900001F0A2F9204601F09FFF054601F0BAF9E1
:100FA000174800880E2800D005E00F2000F021FB34
:100FB000641CAA2CE8DB00BFAA2414E0204601F040
:100FC0008BFF054601F088F9204601F085FF0546B4
:100FD00001F0A0F90A4800880E2800D005E00F2093
:100FE00000F007FB641E5A2CE8DC00BF04480088B0
:100FF0000E2802D10F200249088070BD0000B442C3
:101000003600002010B50B4801F026F9094801F020
:1010100041F9502000F0EDFA064801F05DF905486D
:1010200001F078F904480078012802D10920034929
:10103000088010BD0000B4423E00002036000020B1
:1010400010B50B4801F048F9094801F063F9502048
:1010500000F0CFFA064801F0FFF8054801F01AF950
:1010600004480078012802D109200349088010BDF6
:101070000000B4423E0000203600002010B50446B7
:101080000AE000F037FA08A000F066FA08B1012083
:1010900010BD012000F0ADFA201EA4F101018CB2B8
:1010A000EFD100BFF4E700004F4B0D0A0000000035
:1010B00000B595B000202D4908702D4908702D49C4
:1010C00008702D490870002240F225512B4801F08C
:1010D00065FC00F063F841F2883129A000F04AFA7B
:1010E00000B931E001202149087041F2883125A082
:1010F00000F040FA00B927E020211E4800F0CAF9AC
:1011000000B921E001201A4908701A4800F066F978
:1011100000B119E020210DA800F052F81CA101A88F
:10112000FFF764F80DA901A8FFF7EEF841F2883146
:1011300001A800F01FFA30B10DA90E48FFF756F8CC
:1011400001200B49087000BF00F028F801200A496F
:10115000087040F22551094801F0CEFB012240F20F
:101160002551064801F01AFC15B000BD3F000020D3
:1011700040000020580000204500002000480040AA
:101180004154000041542B4E414D453F00000000AA
:1011900041542B4E414D453D0000000010B507481D
:1011A00000F0E0FA02E0054801F08AFC2021034843
:1011B00001F0BDFB0128F6D010BD00000048004042
:1011C0002DE9F04104460E460F27781DB04205DB9D
:1011D000002E01DD00202070BDE8F0810CA120462A
:1011E000FFF704F800250CE000F022F92421B0FB01
:1011F000F1F201FB12000A49085C79196054681C7D
:10120000C5B2052DF0DB0021781D215400BFE3E7B6
:101210006775616775616C655F6D616E626F5F00B8
:10122000C631000800B587B00121042000F098FF06
:101230000121880300F094FF0121082000F090FFB5
:101240000121880400F07CFF18208DF81B004FF46A
:101250000070ADF8180003208DF81A0006A9514857
:1012600000F0A4FA48208DF81B004FF48060ADF820
:10127000180003208DF81A0006A94A4800F096FAD3
:1012800018208DF81B004FF48060ADF81800032083
:101290008DF81A0006A9444800F088FA48208DF815
:1012A0001B004FF40060ADF8180003208DF81A0001
:1012B00006A93D4800F07AFA10208DF81B00ADF821
:1012C000180003208DF81A0006A9364800F06EFABF
:1012D0001021344800F000FB04208DF81B00202072
:1012E000ADF8180003208DF81A0006A92D4800F06B
:1012F0005DFA0020ADF814000C20ADF812000020BB
:10130000ADF81000ADF80E00ADF80C004FF416501B
:10131000029002A9254801F067FB02A9244801F0C8
:1013200063FB012240F22551204801F037FB0022E7
:1013300040F225511E4801F031FB4FF4A06000F04F
:1013400029FC25208DF8040001208DF807008DF878
:1013500005008DF8060001A800F0E4FB27208DF8B9
:10136000040001208DF8070002208DF805000120FF
:101370008DF8060001A800F0D5FB01210B4801F013
:10138000CAFA01210A4801F0C6FA01200949087089
:101390004FF47A700849088000200849087007B0A7
:1013A00000BD000000080140000C01400038014071
:1013B0000048004045000020460000204800002072
:1013C0000146612901DB7A2903DD302903DB392954
:1013D00001DC012070470020FCE7000070B50646E4
:1013E0000F253046FEF726FF691D884201D00020F8
:1013F00070BD2A460AA13046FEF73BFF08B1002027
:10140000F6E7002408E02919705CFFF7D9FF08B956
:101410000020EDE7601CC4B2052CF4DB0120E7E7F7
:101420006775616775616C655F6D616E626F5F00A6
:10143000054800680549484343F239010844024918
:1014400008600846006870474C0000206D4EC64199
:1014500010B50C4800F086F90B480088002804DD20
:1014600009480088401E084908800848007838B9B3
:101470000748008820B9012004490870FFF718FECA
:1014800010BD00000048004042000020480000203D
:10149000460000202DE9F04180460F4611A1134877
:1014A000FEF792FE044614B90020BDE8F081A41DA9
:1014B0000FA12046FEF788FE05460DB1A54201D8D2
:1014C0000020F2E7281BC6B2BE4201DB781EC6B27E
:1014D000324621464046FEF723FF002008F806006A
:1014E0000120E2E72B4E414D453A000078000020F4
:1014F0000D0A000010B5104800F034F914E00E4851
:1015000001F0DEFAC4B20D4800783F280BD20B4838
:1015100001780078401C094A1070094844540020A2
:1015200007491278885400BF2021034801F0FFF9D1
:101530000128E4D010BD0000004800404400002015
:1015400078000020002002490870024908707047A6
:10155000440000207800002010B5044621460448CD
:10156000FEF732FE08B1012010BD0020FCE70000AC
:101570007800002070B505460C46FFF7E3FFFFF743
:101580000DFE284600F01AF803A000F017F82046D8
:10159000FFF774FD70BD00000D0A000010B5044691
:1015A0002146054801F091FA00BF4021024801F0B0
:1015B000BEF90028F9D010BD0048004010B504461F
:1015C00003E02078FFF7EAFF641C20780028F8D1B8
:1015D00010BD000004480088002804DD024800888F
:1015E000401E0149088070474600002000BFFEE70A
:1015F000704710B5044603E04FF47A7000F006F827
:10160000201EA4F10104F7D110BD000001460F4ACD
:1016100012680F4BB2FBF3F24A434FF0E0235A61DA
:1016200000229A6105221A6100BF4FF0E022106982
:1016300000F001021AB100F48032002AF5D0042231
:101640004FF0E0231A6100229A61704700000020E9
:1016500040420F0008B53B48008860B900F0A4FA8A
:1016600039484023802200210090084600F0BEFB4C
:1016700000F03AFC64E03348008801280CD100F007
:1016800093FA32484023802200210090084600F05F
:10169000ADFB00F029FC53E02A48008802280CD159
:1016A00000F082FA2A484023802200210090084658
:1016B00000F09CFB00F018FC42E022480088032860
:1016C0000CD100F071FA23484023802200210090C1
:1016D000084600F08BFB00F007FC31E01948008859
:1016E00004280CD100F060FA1B484023802200211E
:1016F0000090084600F07AFB00F0F6FB20E011486D
:10170000008805280CD100F04FFA144840238022AD
:1017100000210090084600F069FB00F0E5FB0FE0B7
:101720000848008806280BD100F03EFA0C484023F8
:10173000802200210090084600F058FB00F0D4FB06
:1017400008BD00003C000020314B0008314F00086C
:10175000314300083147000831530008313F000889
:10176000313B00081CB504460821204601F0DFF893
:10177000012811D00421204601F0D9F801280BD00E
:101780000221204601F0D3F8012805D0012120468E
:1017900001F0CDF8012808D120880190A0880090A0
:1017A000BDF80400BDF8000000BF1CBD2DE9F041EC
:1017B000024600250026002000230024002791F87F
:1017C00003C00CF00F0591F803C00CF0100CBCF135
:1017D000000F03D091F802C04CEA050591F800C053
:1017E000BCF1000F31D0146800202BE04FF0010C49
:1017F0000CFA00F3B1F800C00CEA03069E4220D1B7
:1018000083004FF00F0C0CFA03F7BC4305FA03FCFE
:101810004CEA040491F803C0BCF1280F06D14FF044
:10182000010C0CFA00FCC2F814C00AE091F803C0E5
:10183000BCF1480F05D14FF0010C0CFA00FCC2F8C6
:1018400010C0401C0828D1D31460B1F800C0BCF10E
:10185000FF0F34DD546800202EE000F1080C4FF03B
:10186000010808FA0CF3B1F800C00CEA03069E4226
:1018700021D183004FF00F0C0CFA03F7BC4305FA9B
:1018800003FC4CEA040491F803C0BCF1280F05D115
:1018900000F1080C08FA0CF8C2F8148091F803C0A3
:1018A000BCF1480F07D100F1080C4FF0010808FA0D
:1018B0000CF8C2F81080401C0828CED35460BDE854
:1018C000F0810246002093680B400BB1012000E03C
:1018D0000020704741617047016170470AB10161A2
:1018E00000E041617047000010B50446A4F12900F2
:1018F000212876D2DFE800F011F7F7F7F7F7F71AAB
:10190000232C353E475059627FF7F7F7F7F7F79BDF
:10191000BAC3CCD5D9DDE1E5EE00002073490880DB
:10192000FFF798FE002072490880DDE001206F4932
:101930000880FFF78FFE01206D490880D4E0052064
:101940006A490880FFF786FE022069490880CBE0DB
:10195000012066490880FFF77DFE03206449088066
:10196000C2E0022061490880FFF774FE042060494C
:101970000880B9E002205D490880FFF76BFE052072
:101980005B490880B0E0022058490880FFF762FEFA
:10199000062057490880A7E0022054490880FFF735
:1019A00059FE0720524908809EE004204F490880D4
:1019B000FFF750FE08204E49088095E04D4800880A
:1019C000782804D1032049490880FFF743FE49489D
:1019D0000088642806DD4748008814384549088097
:1019E00008E080E0022041490880FFF733FEC8206C
:1019F0004049088078E040480088042804D103204A
:101A00003A490880FFF726FE3B480088032805DD99
:101A100039480088401E3849088007E004203349CF
:101A20000880FFF717FE0920334908805CE033483F
:101A3000007808B9012000E000203049087001203A
:101A40002A490880FFF706FE2C480078012803D1B8
:101A500009202749088008E025480088092804D182
:101A6000022023490880FEF727FF3DE002201F499E
:101A70000880FFF7EFFD0A201D49088034E00220AE
:101A80001A490880FFF7E6FD0B20194908802BE072
:101A9000062016490880FFF7DDFD0D201449088057
:101AA00022E00120164908801EE000201449088029
:101AB0001AE001201349088016E00020114908802F
:101AC00012E0062009490880FFF7C4FD0E200849EE
:101AD000088009E0062005490880FFF7BBFD0F20BC
:101AE0000349088000E000BF00BF10BD3C0000209B
:101AF00036000020380000203A0000203E00002080
:101B0000300000203200002000BFFEE701462929F6
:101B100003DB492901DC012070470020FCE700BFFE
:101B2000FEE7704770B5002100230F22C47804B38C
:101B3000154C246804F4E064C4F5E064210AC1F1A2
:101B40000403CA40447804FA03F184781440214322
:101B500009010E4C0678A155047804F01F050124F4
:101B6000AC4005786D11AD0005F1E025C5F80041E8
:101B700009E0047804F01F050124AC40044D067808
:101B8000761145F8264070BD0CED00E000E400E061
:101B900080E100E002490143024A11607047000001
:101BA0000000FA050CED00E000200CE0002106E04A
:101BB0000022064B03EBC0135A544A1CD1B28029B1
:101BC000F6DB421CD0B20828F0DB7047B8000020DA
:101BD0002DE9F04304460D4616461F46284638E0D8
:101BE000224631E0002A2DDB7F2A2BDC002829DB6E
:101BF0003F2827DC4FEAE07C00EB5C7C4FEAEC0CF2
:101C0000DFF8588008EBCC1C1CF802C003464FEAF2
:101C1000E07800EB58784FEAE808A0EBC8094FF0ED
:101C2000010808FA09F82CEA080C01464FEAE078A6
:101C300000EB58784FEAE808DFF8209009EBC81865
:101C400008F802C0511C0AB2A1199142CADC411C19
:101C500008B2E9198142C3DCBDE8F083B800002076
:101C600038B5002406E0002500E06D1CB5F57A7F4C
:101C7000FBD3641CB4F57A7FF5D30121082000F072
:101C80006FFA14208DF8030003208DF80200402025
:101C9000ADF8000069460848FFF788FD8020ADF8E0
:101CA000000069460448FFF781FD012000F030F98B
:101CB000012000F037F938BD000C014070B5054631
:101CC000002411E080212141294009B1012100E0D7
:101CD0000021084600F026F9012000F019F9002043
:101CE00000F016F9601CC4B2082CEBDB012000F0F8
:101CF0000FF9002000F00CF970BD10B5012000F0C4
:101D000011F9012000F004F9002000F00BF9002087
:101D100000F0FEF810BD10B5002000F003F901201E
:101D200000F0F6F8012000F0FDF810BD10B5FFF747
:101D300097FFAE2000F000F9D52000F0FDF88020DC
:101D400000F0FAF8A82000F0F7F83F2000F0F4F8CF
:101D5000D32000F0F1F8002000F0EEF8402000F071
:101D6000EBF8A12000F0E8F8C82000F0E5F8DA2050
:101D700000F0E2F8122000F0DFF8812000F0DCF83B
:101D8000CF2000F0D9F8D92000F0D6F8F12000F0EB
:101D9000D3F8DB2000F0D0F8302000F0CDF8A420FC
:101DA00000F0CAF8A62000F0C7F88D2000F0C4F8B3
:101DB000142000F0C1F8AF2000F0BEF8FFF7F4FEE9
:101DC00000F092F810BD70B505460C46A01CC4B2D8
:101DD00045F0B00000F0B0F8102141EA141000F016
:101DE000ABF804F00F0000F0A7F870BD2DE9FF4F2D
:101DF00080460E469146DDF834B0002500244A4660
:101E000031464046039BFFF7E3FE00BF5EE000253E
:101E100058E008EB0500002852DB08EB05007F289E
:101E20004EDC3046F11706EB5171C9100FB2F117B5
:101E300006EB5171C910A6EBC10A002E05DA781E17
:101E400007B20AF108000FFA80FA3819002817DBE8
:101E50003819072814DC3819224901EBC01008EBA7
:101E60000501405C04FB09511BF8011001FA0AF15D
:101E7000084339191B4A02EBC11108EB05028854CB
:101E80003819401C00281BDB3819401C072817DCB8
:101E90003819401C134901EBC01008EB0501405CE8
:101EA00004FB09511BF80110CAF108021141084353
:101EB0003919491C0B4A02EBC11108EB0502885481
:101EC000681CC5B24D45A4DB601CC4B20399481E12
:101ED000C11700EB5171012202EBE101A14296DC36
:101EE000BDE8FF8FB800002010B500240BE00021F2
:101EF0002046FFF768FF054901EBC410802100F080
:101F00002BF8601CC4B2082CF1DB10BDB800002017
:101F100010B50446224640210148FFF7DFFC10BD02
:101F2000000C014010B50446224680210148FFF70D
:101F3000D5FC10BD000C014010B50446FFF7DDFED6
:101F40007820FFF7BBFE0020FFF7B8FE2046FFF722
:101F5000B5FEFFF7E0FE10BD70B505460E46FFF773
:101F6000CCFE7820FFF7AAFE4020FFF7A7FE002452
:101F700004E0285DFFF7A2FE601CC4B2B442F8DBA7
:101F8000FFF7C9FE70BD000000B589B00121084609
:101F900000F0D6F80121022000F0D2F8012104203F
:101FA00000F0DEF80121082000F0DAF818208DF8A2
:101FB00023004F20ADF8200003208DF8220008A94F
:101FC0003C48FFF7F3FB18208DF823000320ADF801
:101FD00020008DF8220008A93748FFF7E7FB4FF0F3
:101FE000804000F09EFA354800F09BFA0020ADF8E2
:101FF0001A00ADF8160044F61F60ADF8180007206F
:10200000ADF8140000208DF81C0005A94FF08040A9
:1020100000F0CEFB05A9294800F0CAFB1D208DF871
:10202000100001208DF8130000208DF811008DF8AC
:10203000120004A8FFF776FD012211461F4800F0A8
:1020400067FA684600F0A0FB6020ADF800000020B1
:10205000ADF808000120ADF802000020ADF8060040
:1020600069464FF0804000F063FA69464FF08040C7
:1020700000F0AAFA69464FF0804000F0F7FA69468E
:102080004FF0804000F042FB69460C4800F050FAE7
:1020900069460A4800F0EAFA6946084800F036FB4B
:1020A0000121880700F017FA0121044800F013FA13
:1020B00009B000BD00080140000C014000040040D0
:1020C00010B504462146024800F06CFB10BD00002C
:1020D0000004004010B504462146024800F064FBAD
:1020E00010BD00000004004010B5044621464FF02A
:1020F000804000F053FB10BD10B5044621464FF060
:10210000804000F04DFB10BD10B5044621464FF055
:10211000804000F047FB10BD10B5044621464FF04B
:10212000804000F041FB10BD10B504462146024836
:1021300000F034FB10BD00000004004070470000B8
:1021400029B1064AD2690243044BDA6104E0034A2A
:10215000D2698243014BDA617047000000100240EF
:1021600029B1064A92690243044B9A6104E0034A8A
:1021700092698243014B9A6170470000001002404F
:1021800030B500210022002400232D4D6D6805F09C
:102190000C0121B1042905D0082923D105E0294DDE
:1021A000056022E0274D05601FE0254D6D6805F4B0
:1021B0007012234D6D6805F48034022505EB9242C0
:1021C0001CB9214D554305600BE01D4D6D6805F4AC
:1021D00000351DB11C4D5543056002E0194D5543B6
:1021E000056002E0174D056000BF00BF144D6D682B
:1021F00005F0F0010909154D6B5C0568DD4045608F
:102200000F4D6D6805F4E061090A104D6B5C45687F
:10221000DD4085600A4D6D6805F46051C90A0B4DBB
:102220006B5C4568DD40C560054D6D6805F4404157
:10223000890B074D6B5CC568B5FBF3F5056130BDD7
:102240000010024000127A0000093D001400002036
:1022500024000020704700002DE9F04104460A499F
:10226000204600F057FD8046084900F061FE074611
:10227000074900F0EDFC064600F00EFE85B2284648
:10228000FFF732FFBDE8F081000034430000FA445C
:102290000000FA432DE9F04704460C49204600F0BF
:1022A00013FF8146094900F035FD8046084900F0DA
:1022B0003FFE0746074900F0CBFC064600F0ECFD68
:1022C00085B22846FFF718FFBDE8F08700003443C9
:1022D0000000FA440000FA432DE9F04104460A499F
:1022E000204600F017FD8046084900F021FE074611
:1022F000074900F0ADFC064600F0CEFD85B2284649
:10230000FFF702FFBDE8F081000034430000FA440B
:102310000000FA432DE9F04704460C49204600F03E
:10232000D3FE8146094900F0F5FC8046084900F0DB
:10233000FFFD0746074900F08BFC064600F0ACFDA8
:1023400085B22846FFF7E8FEBDE8F0870000344379
:102350000000FA440000FA4310B5FFF715FE10BD67
:102360007047704710B51348006840F001001149EC
:10237000086008464068104908400E494860084611
:1023800000680E4908400B4908600846006820F4C0
:10239000802008600846406820F4FE0048604FF442
:1023A0001F008860FFF7DCFF4FF000600449086001
:1023B00010BD0000001002400000FFF8FFFFF6FE15
:1023C00008ED00E010B501213B4800F090F801282D
:1023D00070D1FFF7FFF83948008801280BD1384841
:1023E000008840B944F62060FFF76AFE44F620609A
:1023F000FFF770FE5AE03148008801284DD130487F
:102400000088012849D12F480088012816D12E487C
:10241000008864302C49088008460088FFF750FE89
:1024200029480088FFF756FE2748008844F62061B7
:1024300088423BD102202349088037E021480088A8
:10244000022813D12048008864381F4908800846B4
:102450000088FFF735FE1C480088FFF73BFE1A484E
:10246000008818BB0320174908801FE01548008822
:1024700003281BD11548008800F57A70134908809D
:102480000846008844F6206188420FD101200D499A
:10249000088000200D49088008E00848008828B915
:1024A0000020FFF70DFE0020FFF714FE0121024877
:1024B00000F00EF810BD00000004004030000020C5
:1024C000320000202C0000202A0000202E000020D6
:1024D000CA430282704721B1028842F001020280A1
:1024E00004E002884FF6FE731A400280704730B550
:1024F0000246002000230024158A05EA010395897D
:1025000005EA010413B10CB1012000E0002030BD48
:102510001AB183890B43838102E083898B438381D2
:10252000704701894FF6F872114001817047000031
:1025300070B5002400220023058C4FF6FE7635404E
:102540000584028C8388048B4FF68F752C40B51E52
:102550002C400D882C43751E2A400D892A434D8836
:102560002A43144DA8420BD0134DA84208D0134D56
:10257000A84205D0124DA84202D0124DA84213D154
:102580004FF6F7752A404D892A434FF6FB752A40CE
:102590008D882A434FF6FF652B404FF6FF552B40A1
:1025A0008D892B43CD892B4383800483CD888586F9
:1025B000028470BD002C0140003401400040014005
:1025C000004401400048014070B50024002200236F
:1025D000058C4FF6EF7635400584028C8388048B9A
:1025E00048F6FF752C404FF6FF452C400D884FF6FE
:1025F000FF7606EA05252C434FF6DF752A400D8944
:1026000006EA05152A434D8806EA05152A43154DA5
:10261000A84202D0144DA8421DD14FF67F752A4022
:102620004D894FF6FF7606EA05152A434FF6BF752A
:102630002A408D8806EA05152A434FF6FF352B40C0
:102640004FF2FF752B408D8906EA85052B43CD8916
:1026500006EA85052B4383800483CD8805870284A1
:1026600070BD0000002C01400034014070B5002412
:1026700000220023058C4FF6FF6635400584028C4E
:102680008388848B4FF68F752C404FF6FC752C4059
:102690000D882C434FF6FF552A400D894FF6FF76E3
:1026A00006EA05252A434D8806EA05252A43154DE5
:1026B000A84202D0144DA8421DD14FF2FF752A4006
:1026C0004D894FF6FF7606EA05252A434FF6FF357A
:1026D0002A408D8806EA05252A434EF6FF752B40D1
:1026E0004DF6FF752B408D8906EA05152B43CD89E4
:1026F00006EA05152B4383808483CD888587028471
:1027000070BD0000002C01400034014070B5002273
:1027100000230024058C4EF6FF7635400584038C9B
:102720008488828B48F6FF752A404FF6FF452A4081
:102730000D884FF6FF7606EA05252A434DF6FF750C
:102740002B400D8906EA05352B434D8806EA0535F1
:102750002B430B4DA84202D00A4DA84208D14BF69C
:10276000FF752C408D894FF6FF7606EA85152C43C0
:1027700084808283CD88A0F84050038470BD00001F
:10278000002C014000340140002101804180818003
:10279000C180018141818181C181704781867047FB
:1027A0000187704781877047A0F84010704700008C
:1027B000002202881D4B98420ED01D4B98420BD030
:1027C000B0F1804F08D01B4B984205D01A4B98426D
:1027D00002D01A4B984204D14FF68F731A404B889F
:1027E0001A43174B984207D0164B984204D04FF625
:1027F000FF431A40CB881A4302808B8883850B885D
:1028000003850A4B98420BD0094B984208D00E4BD7
:10281000984205D00D4B984202D00D4B984201D101
:102820000B7A03860123838270470000002C01404D
:10283000003401400004004000080040000C00404B
:1028400000100040001400400040014000440140DE
:102850000048014010B50F48FEF784FF40F22551B3
:102860000C4800F071F8012813D10A4800F028F94B
:10287000C4B22046FFF74AF928B100200649088073
:102880002046FFF731F840F22551024800F034F8B5
:1028900000BF10BD003801403400002010B51248C0
:1028A000FEF760FF40F225510F4800F04DF8012877
:1028B00019D10D4800F004F9C4B20C48007860B199
:1028C0000B48008848B92046FFF720F928B10020BE
:1028D000084908802046FFF707F840F225510248D2
:1028E00000F00AF800BF10BD00480040450000207D
:1028F000420000203400002010B50022002340F6E2
:102900006A14A14200D100BF0A1201249440A3B26C
:10291000DC43048010BD21B1828942F400528281DF
:1029200004E082894DF6FF731A40828170470246A7
:102930000020B1F5007F00D100BF13880B400BB120
:10294000012000E00020704770B5024600240023FB
:102950000025002040F66A16B14200D100BFC1F345
:10296000421501F01F03012606FA03F3012D02D1DF
:102970009689334006E0022D02D1168A334001E0E9
:10298000968A33400C12012606FA04F41688344065
:1029900013B10CB1012000E0002070BDF0B503467A
:1029A000002400260025002040F66A17B94200D115
:1029B00000BF1846C1F3421401F01F06012707FAB1
:1029C00006F5012C01D10C3004E0022C01D11030AD
:1029D00000E014301AB107682F43076002E007686F
:1029E000AF430760F0BD00002DE9F04786B0054613
:1029F0000E460024A24600BFA1460027B08900B1C0
:102A000000BF2F462C8A4CF6FF700440F088044328
:102A10002C82AC894EF6F3100440B088318908430B
:102A2000718908430443AC81AC8A4FF6FF400440EF
:102A3000B0890443AC8201A8FFF7A2FB1F4887427C
:102A400002D1DDF810A001E0DDF80CA0A88900F4A7
:102A5000004040B10AEBCA0000EB0A10316849009F
:102A6000B0FBF1F807E00AEBCA0000EB0A1031688E
:102A70008900B0FBF1F86420B8FBF0F004012009F4
:102A8000642101FB1089A88900F4004040B1322084
:102A900000EBC900B0FBF1F000F00700044308E0D0
:102AA000322000EB09106421B0FBF1F000F00F00C0
:102AB00004432C8106B0BDE8F087000000380140D7
:102AC00001468888C0F308007047C1F3080282807D
:102AD000704700BFFEE700002DE9F04104460A49B7
:102AE000204600F017F98046084900F021FA074611
:102AF000074900F0ADF8064600F0CEF985B2284649
:102B0000FFF712FBBDE8F081000034430000FA44F7
:102B10000000FA4308B5FFF71FFCFFF707F9484824
:102B200040238022002100900846FFF75FF9FFF75D
:102B3000DBF9FEF777FB82E020214248FEF7C1FE79
:102B40000446012C04D110213E48FEF7C3FE03E0E9
:102B500010213C48FEF7C0FEFEF77AFC3A48008898
:102B600028B9FEF79BF93948FFF7B6FF67E036480A
:102B70000088012802D1FEF7A7F960E032480088FA
:102B8000022802D1FEF73EFA59E02F4800880328B8
:102B900002D1FEF765F952E02B480088042802D1E3
:102BA000FEF702F84BE028480088052802D1FEF71E
:102BB000A9F844E024480088062802D1FDF74CFD1E
:102BC0003DE021480088072802D1FDF781FE36E06C
:102BD0001D480088082802D1FDF7EEFE2FE01A48B4
:102BE0000088092802D1FDF781FF28E016480088F7
:102BF0000A2802D1FDF7EAFC21E0134800880B28DF
:102C000002D1FDF79FFC1AE00F4800880C2802D182
:102C1000FEF716FA13E00C4800880D2802D1FDF7E4
:102C200033FC0CE0084800880E2802D1FEF76CF94E
:102C300005E0054800880F2801D1FDF781FD7BE7FD
:102C4000314B000800080140360000200000B4426B
:102C500090EA010F48BF81F0004100F14682421A1C
:102C60003CBF801A89184FEAD0524FF07F4C1CEAC3
:102C7000410FA2EBD15318BF9CEA026F00F03B80DA
:102C80004FF0004C4CEA00204CEA012121FA03FCF1
:102C900010EB0C0C1ED202F1FF325FEA1C2040EB5D
:102CA000C25038BF70471CF07F0F4FEA400C18BF6E
:102CB000BCF17F4F38BF7047C3F12003994008BF74
:102CC00020F00100BCF17F4F38BF7047A0F1C04039
:102CD00000F0F5B94FEA3C00000A40EBC25028BFB3
:102CE0001CF0FF0F4FEA400CE6D018BFBCF17F4F3D
:102CF00038BF7047EAE79CEA026F05D010EA5C0F24
:102D000008BF00F00040704710B500F092F900BF16
:102D100064FBBE3E4FF47F0C1CEAD0121EBF1CEABF
:102D2000D11392EA0C0F93EA0C0F00F0858090EA21
:102D3000010F48BF42F4807240F4000C41F40000DF
:102D40002CF07F4120F07F4000B58142A2EB0302CE
:102D50000FF2081CACEB504EC0F100009EF800E0F2
:102D60004FEA4E0E00FB0EFC38BF49004FEA2C1C08
:102D700002F5FA020CFB0EF34FEACE1E4FEA112CBD
:102D80004FEAC1210EEB635E42EB22420EFB0CFCCC
:102D90004FEA1C5300FB03114FEA112C4FEA01319B
:102DA0000EFB0CFC4FEADC4C00FB0C11C14228BFAF
:102DB00009184CEB03335DF804EB10EB410143EBD6
:102DC000C250B2F57C0F38BF704729D512F0F00F12
:102DD0001CBF00F1C04000F00040704700818283BA
:102DE0008485868788898B8C8D8E8F91929395961A
:102DF00097999A9C9D9FA0A2A3A5A7A8AAACAEB0A4
:102E0000B2B3B5B7B9BCBEC0C2C5C7C9CCCED1D4A8
:102E1000D7D9DCDFE2E6E9ECF0F3F7FAFE000000D8
:102E20004FEA400C0CF1807CBCF17E4F28BF70470C
:102E3000B0F1C04000F043B990EA010F0CEAD113A1
:102E400048BF42F48072624538BF634507D213F42D
:102E50007F0F16D080EA010000F00040704710B5E7
:102E600000F0E7F8097EFC3E00F005B880EA0100BA
:102E700000F00040704780EA010000F0004000F0E0
:102E80001EB912F47F0F04BF0248704780EA0100A8
:102E900000F015B90000C07FC10DD1F19E0206DB24
:102EA0004FEA002343F0004323FA02F07047004248
:102EB00007D54FEA4001B1F1FE4F02D24FF00000BA
:102EC000704710B500F0B5F8499224800020704793
:102ED0006FEA20007047000010F0004148BF4042F8
:102EE000B0FA80F310FA03F2C3F19D030BD051EA5C
:102EF000C35101EB1220530638BF704700F10100A7
:102F000008BF20F001007047B0FA80F310FA03F216
:102F1000C3F19D030AD0D90501EB1220530638BF37
:102F2000704700F1010008BF20F001007047000069
:102F30004FF47F0C1CEAD0121EBF1CEAD11392EA98
:102F40000C0F93EA0C0F00F0478090EA010F48BF86
:102F500042F480724FF0004C4CEA00204CEA012110
:102F600002EB0302A0FB0113A2F50002002918BF27
:102F700043F001035B0028BF4FEA330342EB2242D8
:102F80005FEA132C4CEBC2502EBFBCEB436FB2F583
:102F90007C0F70474FEA036CBCF1004F08BF20F074
:102FA0000100B2F57C0F38BF70470BD582F0FF02ED
:102FB00012F5803FC8BF704700F1C040D8BF00F095
:102FC0000040704700F5000C5FEA4C0C48BF7047AA
:102FD000B0F1C04000F073B890EA010F0CEAD113D1
:102FE00048BF42F48072624538BF634504D280EA2C
:102FF000010000F00040704710B500F01AF800BF63
:103000008900013E00F007B800F009B85FEA410C02
:103010005FEA1C6C08D080EA010000F050B85FEA5B
:10302000400C5FEA1C6CF6D14FF00040A0F5800028
:1030300070470EF1020E2EF0030E5EF8044B244290
:1030400004D44FEA4102B2F17F4F11D84FEA400356
:10305000B3F17F4F0CD80ED14FEAD07CB2F17F4F45
:103060000CEB4C0C0CF1020C08BF4CEBD17C04E0D7
:103070004FF0080C01E04FEAD17C0CEB4C0324FA32
:1030800003F404F00704B4F1040C06D20EEB840C34
:10309000BDE810404CF0010C6047DFE80CF0070879
:1030A00002024FF00040A0F5800010BD084642002B
:1030B00018BFD2F1807288BF00F0004010BDFF2120
:1030C00041EAD050C005704780F0004090EA010FFF
:1030D0007FF5C5AD81F0004100F007B890EA010F1F
:1030E00048BF81F000413FF5BAAD421A04D882F0E2
:1030F0000042A0EB020011444FEAD0524FF07F4C47
:103100001CEA410FA2EBD15318BF9CEA026F4AD0D0
:103110004FF0004C4CEA00204CEA012121FA03FC5C
:10312000B0EB0C0C0FD412F0FE0F36D05FEA4C005F
:103130001DD5001240EBC25038BF70471CF03F0F46
:1031400018BF70470BE0A2F101025FEA1C2040EBC0
:10315000C25038BF70471CF07F0F18BF7047C3F1D3
:103160002003994014BF401E20F0010070478008E2
:103170004FEA122308BF7047B0FA80FCA2EB0C02A2
:10318000CCF1280C60FA0CF093EA122F04BF00EB8C
:10319000C25070474FEAC3707047130A5FEADC10F1
:1031A00008BF7047F6E79CEA026F04D010EA5C0F94
:1031B00008BF0020704710B5FFF73BFF40DFF63E29
:1031C00081F0004070476162636465666768696AA0
:1031D0006B6C6D6E6F707172737475767778797AC7
:1031E00030313233343536373839000000000000D2
:1031F0000000000000000000000000000000F800D7
:10320000000000000000333000000000160E001621
:103210000E0000000000000000000040C07840C028
:10322000784000043F04043F040400007088FC0858
:10323000300000001820FF211E0000F008F000E020
:1032400018000000211C031E211E0000F0088870D9
:103250000000001E21232419272110000000160E53
:103260000000000000000000000000000000E01866
:10327000040200000000071820400000020418E0CB
:103280000000000040201807000000404080F0804F
:103290004040000202010F01020200000000F000A5
:1032A0000000000101011F010101000000000000F9
:1032B00000000000B07000000000000000000000EE
:1032C00000000000010101010101010000000000F7
:1032D000000000003030000000000000000000800E
:1032E000601804006018060100000000E0100808E3
:1032F00010E000000F102020100F00001010F80048
:103300000000000020203F20200000007008080876
:10331000887000003028242221300000300888887E
:103320004830000018202020110E000000C020109E
:10333000F8000000070424243F240000F8088888CF
:103340000808000019212020110E0000E0108888D4
:10335000180000000F112020110E0000380808C8C6
:103360003808000000003F000000000070880808D6
:10337000887000001C222121221C0000E010080897
:1033800010E0000000312222110F00000000C0C038
:103390000000000000003030000000000000C0C04D
:1033A000000000000080B07000000000008040209D
:1033B0001008000001020408102000404040404076
:1033C00040400004040404040404000008102040E9
:1033D0008000000020100804020100007048080866
:1033E00008F0000000003036010000C030C828E8B6
:1033F00010E0000718272423140B000000C038E059
:10340000000000203C23020227382008F888888822
:10341000700000203F202020110E00C03008080856
:10342000083800071820202010080008F8080808AD
:1034300010E000203F202020100F0008F88888E8C6
:10344000081000203F20202320180008F88888E872
:10345000081000203F200003000000C030080808CA
:1034600038000007182020221E020008F80800007B
:1034700008F808203F210101213F20000808F80832
:103480000800000020203F2020000000000808F86D
:10349000080800C08080807F00000008F888C028ED
:1034A000180800203F20012638200008F8080000F6
:1034B000000000203F20202020300008F8F800F80D
:1034C000F80800203F003F003F200008F830C0000F
:1034D00008F808203F200007183F00E010080808FF
:1034E00010E0000F10202020100F0008F808080836
:1034F00008F000203F210101010000E01008080849
:1035000010E0000F18242438504F0008F8888888ED
:10351000887000203F2000030C30200070880808CD
:103520000838000038202121221C00180808F8085B
:103530000818000000203F2000000008F8080000E4
:1035400008F808001F202020201F000878880000AD
:10355000C83808000007380E010000F80800F8001D
:1035600008F800033C0700073C0300081868808047
:1035700068180820302C03032C30200838C800C8F5
:103580003808000000203F2000000010080808C88C
:103590003808002038262120201800000000FE02F4
:1035A0000202000000007F40404000000C30C000DC
:1035B000000000000000010638C00000020202FE08
:1035C000000000004040407F000000002010080480
:1035D00008102000000000000000000000000000B3
:1035E00000000080808080808080800002040800CD
:1035F000000000000000000000000000008080804B
:103600008000000019242222223F2008F800808038
:10361000000000003F112020110E000000008080FB
:10362000800000000E11202020110000000080808A
:1036300088F800000E112020103F200000808080BC
:10364000800000001F222222221300008080F088C8
:103650008888180020203F20200000000080808003
:10366000808000006B94949493600008F800808040
:10367000800000203F210000203F2000809898001B
:103680000000000020203F20200000000000809863
:1036900098000000C08080807F000008F800008053
:1036A000808000203F24022D302000000808F80010
:1036B0000000000020203F202000008080808080CB
:1036C000808000203F20003F20003F00808000805D
:1036D00080000000203F2100203F200000808080EB
:1036E000800000001F202020201F0080800080809C
:1036F00000000080FFA12020110E0000000080804B
:10370000808000000E112020A0FF8080808000803B
:1037100080800020203F2120000100000080808068
:103720008080000033242424241900008080E0805D
:103730008000000000001F202000008080000000AA
:10374000808000001F202020103F2080808000000B
:1037500080808000010E300806010080800080001B
:103760008080800F300C030C300F000080800080C0
:103770008080000020312E0E3120008080800000EB
:1037800080808080818E701806010000808080809B
:103790008080000021302C222130000000000080B9
:1037A0007C020200000000003F404000000000FFDB
:1037B00000000000000000FF0000000002027C800A
:1037C0000000000040403F000000000080404080BA
:1037D0000000800000000000010100000000000067
:1037E000000000002F000000000700070000147F09
:1037F000147F1400242A7F2A120023130864620015
:10380000364955225000000007000000001C2241EC
:1038100000000041221C000014083E0814000808A3
:103820003E0808000000A060000008080808080022
:103830000060600000002010080402003E5149456D
:103840003E0000427F400000426151494600214154
:10385000454B31001814127F1000274545453900AB
:103860003C4A49493000017109050300364949497C
:103870003600064949291E00003636000000005671
:10388000360000000814224100001414141414001F
:103890000041221408000201510906003E49555911
:1038A0002E007C1211127C007F49494936003E41AE
:1038B000414122007F4141221C007F49494941008A
:1038C0007F09090901003E4149497A007F0808083B
:1038D0007F0000417F4100002040413F01007F0800
:1038E000142241007F40404040007F020C027F00D4
:1038F0007F0408107F003E4141413E007F090909D5
:1039000006003E4151215E007F09192946004649C3
:103910004949310001017F0101003F4040403F0023
:103920001F2040201F003F4038403F006314081410
:103930006300070870080700615149454300007F94
:10394000414100000204081020000041417F0000B6
:103950000402010204004040404040000001020413
:1039600000002054545478007F48444438003844C0
:1039700044442000384444487F00385454541800CC
:10398000087E0901020018A4A4A47C007F08040496
:10399000780000447D4000004080847D00007F105E
:1039A0002844000000417F4000007C041804780097
:1039B0007C0804047800384444443800FC2424245F
:1039C000180018242418FC007C080404080048543B
:1039D00054542000043F444020003C4040207C00E0
:1039E0001C2040201C003C4030403C004428102853
:1039F00044001CA0A0A07C004464544C4400000877
:103A00007F41000000007F00000000417F080000AF
:103A10000804081008EFBC8C000000000000000043
:103A20000000000000000000000000583800000006
:103A3000000000000000000000E3808200000000A1
:103A4000000000000000000000000000000000185E
:103A500024241800000000000000000000E4BDA0C5
:103A600000008060F8074020180F08C808082818D0
:103A700000010000FF00100C0340807F00010618C9
:103A800000E5A5BD001010F01F10F000808282E25A
:103A9000928A868000402215081661000040807FCF
:103AA0000000000000E4B89600202020FE2020FF47
:103AB000202020FF20202020000000007F404047E1
:103AC000444444474040400000E7958C000000001B
:103AD000FE929292FE929292FE000000000808046C
:103AE00084621E010001FE020404080800000000B8
:103AF00000FF010101310909090989710101010171
:103B0000FFFF8080808080809681808080808080A0
:103B1000FFFF01818181FD8991A1C1FD8181810129
:103B2000FFFF808080809F888482819F808080804A
:103B3000FF00000000000000000000000000000086
:103B40000000000000000000000000000000000075
:103B50000000000000000000000000000000000065
:103B60000000000000000000000000000000000055
:103B70000000000000000000000000000000000045
:103B80000000000000000000000000000000000035
:103B90000000000000000000000000000000000025
:103BA0000000000000000000000000000000000015
:103BB0000000000000000000000000000000000005
:103BC00000000000000000000000000000000000F5
:103BD00000000000000000000000000000000000E5
:103BE00000000000000000000000000000000000D5
:103BF00000000000000000000000000000000000C5
:103C000000000000000000000000000000000000B4
:103C100000000000000000000000000000000000A4
:103C20000000000000000000000000000000000094
:103C30000000000000000000000000000000000084
:103C40000000000000000000000000000000000074
:103C500000000000000000000000000000000080E4
:103C60008080808080800000000000000000000054
:103C70000000000000000000000000000000000044
:103C80000000000000000000000000000000000034
:103C90000000000000000000000000000000000024
:103CA0000000000000000000000000000000000014
:103CB0000000000000000000000000000000000004
:103CC00000000000000000000000000000000000F4
:103CD0000000000000000086C6C6C7C7E3E3E3E3B8
:103CE000E3E1E1E3E7C7C78706000000000000004A
:103CF00000000000000000000000000000000000C4
:103D000010181C1C1E0E06078783838707070706EB
:103D1000060E1E1C1C1C1800000000000000000005
:103D20000000000000000000000000000000000093
:103D30000000000000000000000000000000000083
:103D40000000000000000000000000000000000073
:103D50000000000000000F0F1F1F3F3F38383030B9
:103D60003038383D3F1F1F1F0F00000000000000CB
:103D70000000000000000000000000000000000043
:103D8000083C7E7EFEFFEFC7C3C3C3C3C3E7FFFF8C
:103D9000FF7E7E3C180000000000000000000000D4
:103DA0000000000000000000000000000000000013
:103DB0000000000000000000000000000010383883
:103DC000387C7C7C7C7C7C6C6C6C6C6C6C6C6C6C07
:103DD0006C7C7C7C783838300000000000000000EB
:103DE00000000000C0C0C0C0C00000000000000013
:103DF0008080808000000000000000C0C0C0C08043
:103E0000000000000000000101010101010000802C
:103E100080C0C0C0C0C0C0C0C0C0C0C0C0C0C0C0E2
:103E20008080800000000000000000000000000012
:103E30000000000000000000000000000000000082
:103E40000000000000000000000000000000000072
:103E50000000000000000000000000000000000062
:103E600000000000070F1F1F1F1C181818181C1F28
:103E70000F0F1F1F3E383838383838393F1F1F0F93
:103E80000F0400000000000000000000000307070E
:103E90000707070706060E0E0E0E0E0E0E0E0F0F6C
:103EA00007070703030000000000000000000000F7
:103EB0000000000000000000000000000000000002
:103EC00000000000000000000000000000000000F2
:103ED00000000000000000000000000000000000E2
:103EE00000000000000000000000000000000000D2
:103EF00000000000000000000000000000000000C2
:103F000000000000000000000000000000000000B1
:103F100000000000000000000000000000000000A1
:103F20000000000000000000000000000000000091
:103F30000000000000000000000000000000000081
:103F40000000000000000000000000000000000071
:103F50000000000000000000000000000000000061
:103F60000000000000000000000000000000000051
:103F70000000000000000000000000000000000041
:103F80000000000000000000000000000000000031
:103F90000000000000000000000000000000000021
:103FA0000000000000000000000000000000000011
:103FB0000000000000000000000000000000000001
:103FC000000000000000000000000000000080C0B1
:103FD000E0F0F8F8FCFCFCFCFCFCF8F0F0E0800001
:103FE00000000000000000000000000000000000D1
:103FF00000000000000000000000000000000000C1
:10400000000080C0E0F0F8F8FCFCFCFCFCF8F8F0E4
:10401000F0E0800000000000000000000000000050
:104020000000000000000000000000000000000090
:104030000000000000000000000000000000000080
:104040000000000000000000000000C0F8FEFFFFBC
:10405000FFFFFFFFFFFFFFFFFFFFFFFFFFFFFFFF70
:10406000FCF08000000000000000000000000000E4
:10407000000000000000000000000000000000C080
:10408000F8FEFFFFFFFFFFFFFFFFFFFFFFFFFFFF48
:10409000FFFFFFFFFCF080000000000000000000B8
:1040A0000000000000000000000000000000000010
:1040B0000000000000000000000000000000000000
:1040C00000000000000000000000FCFFFFFFFFFFF9
:1040D000FFFFFFFFFFFFFFFFFFFFFFFFFFFFFFFFF0
:1040E000FFFFFF00000000000000000000000000D3
:1040F0000000000000000000000000000000FCFFC5
:10410000FFFFFFFFFFFFFFFFFFFFFFFFFFFFFFFFBF
:10411000FFFFFFFFFFFFFF000000000000000000A6
:10412000000000000000000000000000000000008F
:10413000000000000000000000000000000000007F
:10414000000000000000000000003FFFFFFFFFFF35
:10415000FFFFFFFFFFFFFFFFFFFFFFFFFFFFFFFF6F
:10416000FFFFFF0000000000000000000000000052
:1041700000000000000000000000000000003FFF01
:10418000FFFFFFFFFFFFFFFFFFFFFFFFFFFFFFFF3F
:10419000FFFFFFFFFFFFFF00000000000000000026
:1041A000000000000000000000000000000000000F
:1041B00000000000000000000000000000000000FF
:1041C0000000000000000000000000031F7FFFFF50
:1041D000FFFFFFFFFFFFFFFFFFFFFFFFFFFFFFFFEF
:1041E0003F0F010000000000000000000000000080
:1041F00000000000000000000000000000000003BC
:104200001F7FFFFFFFFFFFFFFFFFFFFFFFFFFFFF1E
:10421000FFFFFFFF3F0F0100000000000000000053
:10422000000000000000000000000000000000008E
:10423000000000000000000000000000000000007E
:10424000000000000000000000000000000001036A
:10425000070F1F1F3F3F3F3F3F3F1F1F0F07030039
:10426000000000000000000000000000000000004E
:10427000000000000000000000000000000000003E
:1042800000000103070F1F1F3F3F3F3F3F3F1F1F1E
:104290000F07030000000000000000000000000005
:1042A000000000000000000000000000000000000E
:1042B00000000000000000000000000000000000FE
:1042C00000000000000000000000000000000000EE
:1042D00000000000000000000000000000000000DE
:1042E00000000000000000000000000000000000CE
:1042F00000000000000000000000000000000000BE
:1043000000000000000000000000000000000000AD
:10431000000000000000000000000000000000009D
:10432000000000000000000000000000000000008D
:10433000000000000000000000000000000000007D
:10434000000000000000000000000000000000006D
:10435000000000000000000000000000000000005D
:10436000000000000000000000000000000000004D
:10437000000000000000000000000000000000003D
:10438000000000000000000000000000000000002D
:10439000000000000000000000000000000000001D
:1043A000000000000000000000000000000000000D
:1043B0000000000000000000003070F0F0F0E0E0CD
:1043C000E0C0C0808080000000000000000000000D
:1043D00000000000000000000000000000000000DD
:1043E00000000000000000000000000000000000CD
:1043F00000000000000000000000000000000000BD
:1044000000000000000000000000000000000000AC
:1044100000000000000000000000808080C0C0E0BC
:10442000E0F0F070787878300000000000000000C4
:10443000000000000000000000000000000000017B
:10444000010303030707070F0E1E1E1C3C3C787870
:1044500078F0F0E0E0E0C0C0C08080000000000024
:10446000000000000000000000000000000000004C
:10447000000000000000000000000000000000003C
:1044800000000000000000000000C0E0E0F0F0F0DC
:10449000F8F8F83C1C1E1E0F0F0707070703010161
:1044A000010100000000000000000000000000000A
:1044B000000000000000000000000000008080C03C
:1044C000C0C0C0E0E0E0E0F07070787838383C3C84
:1044D0001C1C1E1F1F0F0F0F0F07070300000000FB
:1044E00000000000000000000000000000000000CC
:1044F00000000000000000000000000000000000BC
:10450000000000000000000000000001030303079A
:1045100007070F0F0F0F1E1E1E3C3C3C787878F0EB
:10452000F0F0E0E0E0E0C0800000000000000000EB
:104530000000000000000000000000808103030371
:10454000F36101010180E03000000080C0C0000084
:10455000000000000000000000000000000000005B
:104560000000000000103878F8F8F878383838384B
:104570003838383838383838383878F8F8783830C3
:10458000000000000000000000000000000000002B
:1045900000000000C0E0000080F03000000080F06B
:1045A0007000000101E1C1000000000000000000F7
:1045B00000000000000000000000070F0100103F95
:1045C0000F0000007C1F030000603C0F0300000090
:1045D00000000000000000000000000000000000DB
:1045E0000000000000000000000F3FFCF0C0C0C051
:1045F000C0C0C0C0C0C0C0C0C0E0FC7F0F00000091
:1046000000000000000000000000000000000000AA
:1046100000000000070300003F070000003C1F00EF
:104620000000103C1F01000000000000000000001E
:10463000000000000000000000000000000000007A
:10464000000000000000000000000000000000006A
:10465000000000000000000000000000000000005A
:10466000000000000000000000000000000000004A
:10467000000000000000000000000000000000003A
:10468000000000000000000000000000000000002A
:10469000000000000000000000000000000000001A
:1046A000000000000000000000000000000000000A
:1046B00000000000000000000000000000000000FA
:1046C00000000000000000000000000000000000EA
:1046D00000000000000000000000000000000000DA
:1046E00000000000000000000000000000000000CA
:1046F00000000000000000000000000000000000BA
:1047000000000000000000000000000000000000A9
:104710000000000000000000000000000000000099
:104720000000000000000000000000000000000089
:104730000000000000000000000000000000000079
:104740000000000000000000000000000000000069
:104750000000000000000000000000000000000059
:104760000000000000000000000000000000000049
:104770000000000000000000000000000000000039
:104780000000000000000000000000000000000029
:104790000000000000000000000000000000000019
:1047A0000000000000000000000000000000000009
:1047B0000000000000000000C0F838383060E0C0A1
:1047C0008000000000000000000000000000000069
:1047D00000000000000000000000000000000000D9
:1047E00000000000000000000000000000000000C9
:1047F00000000000000000000000000000000000B9
:1048000000000000000000000000000000000000A8
:104810000000000000000000000000000000008018
:10482000C0E07030387CF080000000000000000024
:1048300000000000000000FCFF87000000000001F5
:1048400003070E0C183870E0C08000000000000064
:104850000000000000000000000000000000000058
:104860000000000000000000000000000000000048
:104870000000000000000000000000000000000038
:104880000000000000000000000000000000000028
:1048900000000000000080C0E070381C0E06070316
:1048A000010000000000FFFF3000000000000000D9
:1048B0000000000000000000071F3C70E0C0808086
:1048C0000000000000000000010103070E1C38700A
:1048D00060C0C08000000000000000000000000078
:1048E00000000000000000000000000000000000C8
:1048F0000080C0C0000000000000000000000000B8
:1049000000000000000000000000000080C0E06027
:1049100030381C0E0703010000000000000000807A
:1049200080C0C060381C0F030000000000000000C1
:104930000000000000000000000000000000010175
:104940008303070606068C8C0C0C0C181818181814
:104950001818191B1F1E1C18100000000000000072
:10496000000000000000FEFE0E1C38706070180E83
:104970000703010103061C3830381C0EFFFF00003E
:104980000000000000000018181C1E1F1B1918183A
:10499000181898980C0C0C0C0C8C060606070303D0
:1049A0008101000000000000000000000000000085
:1049B0000000000000000000000000000000101EC9
:1049C000070000C0701C030000000000F03E000063
:1049D00000000000000000000000000000000000D7
:1049E000000000000000FFFF800000000000000049
:1049F000000000000000000000000080FFFF000039
:104A000000000000000000000000000000000000A6
:104A1000180E0300000000380F0100000000003FE6
:104A20000300000000000000000000000000000083
:104A30000000000000000000000000000000000076
:104A40000000000000000000000000000000000066
:104A50000000000000000000000000000000000056
:104A6000000000000000000303030303030303032B
:104A7000030303030303030303030303030100000E
:104A80000000000000000000000000000000000026
:104A90000000000000000000000000000000000016
:104AA0000000000000000000000000000000000006
:104AB00000000000000000000000000000000000F6
:104AC00000000000000000000000000000000000E6
:104AD00000000000000000000000000000000000D6
:104AE00000000000000000000000000000000000C6
:104AF00000000000000000000000000000000000B6
:104B000000000000000000000000000000000000A5
:104B10000000000000000000000000000000000095
:104B20000000000000000000000000000000000085
:104B30000000000000000000000000000000000075
:104B40000000000000000000000000000000000065
:104B50000000000000000000000000000000000055
:104B60000000000000000000000000000000000045
:104B70000000000000000000000000000000000035
:104B80000000000000000000000000000000000025
:104B90000000000000000000000000000000000015
:104BA0000000000000000000000000000000000005
:104BB00000000000000000000000000000000000F5
:104BC00000000000000000000000000000000000E5
:104BD00000000000000000000000000000000000D5
:104BE00000000000000000000000000000000000C5
:104BF00000000000000000000000000000000000B5
:104C000000000000000000000000000000000000A4
:104C10000000000000000000000000000000000094
:104C20000000000000000000000000000000000084
:104C30000000000000000000808080C0C0C0C0C034
:104C4000C0C0C0C0C0C0C0C0C0E0E0E0E0E0E0E084
:104C5000E0E0E0E0E0E0E0F0F0F0F0200000000054
:104C60000000000000000000000000000000000044
:104C70000000000000000000000000000000000034
:104C800000000008181858F8F8F8F8F8F8F8F8F8DC
:104C9000F8F8F8F8F8F8F8F8F8F8F8F8F8F8F8F09C
:104CA000F0F0F0F0F0F0F0F0F0F0F0F000000000C4
:104CB00000000000000080F3F3FBFBFBFBFBFFFFA9
:104CC000FFFFFFFFFFFFFFFFFFFFFFFFFF7D7D7D7A
:104CD0003D3D3D3D3D3D1D1F1F1F1F1E0E0E0C0C7B
:104CE00000000000000000000000000000000000C4
:104CF00000000000000000000000000000000000B4
:104D000000000000003C7EFFFFFFFFFFFFFFFFFFF2
:104D1000FFFFFFFFFFFFFFFFFFFFFFFFFFFFFDFDA7
:104D2000F9F9F9F9F9F9F9F1F1F170300000000041
:104D3000000000000000010100113F3F3F1F1F1F46
:104D40001F1F1F1F1F0F0F0F0F0F0F0F0F0F0F072B
:104D50000707070707070707070303030303000005
:104D600000000080808080808080808080808080C3
:104D700080808080808080808080808080808000B3
:104D80000000000000000000000000000000000023
:104D90000000000000000000000000000000000013
:104DA0000000000000000000000000000000000003
:104DB00000000000000000000000000000000000F3
:104DC00000000000000000000000000000000000E3
:104DD00000000000000000000000000000000000D3
:104DE000000000FFFF0100000000000000000000C4
:104DF0000000000000000000000000000081FFFF34
:104E000000000000000000000000000000000000A2
:104E10000000000000000000000000000000000092
:104E20000000000000000000000000000000000082
:104E30000000000000000000000000000000000072
:104E40000000000000000000000000000000000062
:104E50000000000000000000000000000000000052
:104E60000000000101010101010101010101010135
:104E700001010101010101FFFF00000003FF01002A
:104E80000000000000000000000000000000000022
:104E90000000000000000000000000000000000012
:104EA0000000000000000000000000000000000002
:104EB00000000000000000000000000000000000F2
:104EC00000000000000000000000000000000000E2
:104ED00000000000000000000000000000000000D2
:104EE00000000000000000000000000000000000C2
:104EF00000000000000000000303060203010000A0
:104F000000000000000000000000000000000000A1
:104F10000000000000000000000000000000000091
:104F20000000000000000000000000000000000081
:104F30000000000000000000000000000000000071
:104F40000000000000000000000000000000000061
:104F50000000000000000000000000000000000051
:104F60000000000000000000000000000000000041
:104F70000000000000000000000000000000000031
:104F80000000000000000000000000000000000021
:104F90000000000000000000000000000000000011
:104FA0000000000000000000000000000000000001
:104FB00000000000000000000000000000000000F1
:104FC00000000000000000000000000000000000E1
:104FD00000000000000000000000000000000000D1
:104FE00000000000000000000000000000000000C1
:104FF00000000000000000000000000000000000B1
:1050000000000000000000000000000000000000A0
:105010000000000000000000000000000000000090
:105020000000000000000000000000000000000080
:105030000000000000000000C0E0F0F8F8FC7C3E3A
:105040003E1E1F1F1F1F1E3E3E7CFCF8F8F0E08036
:105050000000000000000000000000000000000050
:105060000000000000000000000000000000C00080
:105070000000000000808000000000000000000030
:1050800000008000000000000000000000000000A0
:1050900000000080E0F0F8F8FC7C3E3E1E1F1F1E62
:1050A0001E1E3E3E7CFCF8F8F0E080000000000090
:1050B000000000000000F8FFFFFFFF0701000000F4
:1050C00000000000000000000000000107FFFFFFDB
:1050D000FFF0000000000000000000000000603051
:1050E0001C0603C0E0380E0700C0E0380E070100C0
:1050F00000E0701C07030060701C070300006038AC
:105100000E070130380E0300000000000000000010
:1051100000F8FFFFFFFF0301000000000000000097
:105120000000000000000107FFFFFFFFF00000008B
:10513000000000000000010F3F7FFFFCF8F0E0C01E
:10514000C0808080808080C0C0E0F0F8FEFF7F1FBC
:105150000F00000000000000000000000000000040
:10516000000000000000000000000000000000003F
:10517000000000000000000000000000000000002F
:10518000000000000000000000000000000000001F
:1051900000010F3F7FFFFCF8F0E0C0C080808080FE
:1051A0008080C0C0E0F0F8FEFF7F3F0F01000000EC
:1051B00000000000000000000000000103030707DA
:1051C00007070F0F0F0F0F0707070301010000006C
:1051D00000000000000000000000000000000000CF
:1051E0000000007FFC8000000000000000000000C4
:1051F000E0FFFE800000000000000000000080FED4
:105200007E00000000000000000000000000000020
:10521000000000000000010303070707070F0F0F3E
:105220000F0707070703010100000000000000004E
:10523000000000000000000000000000000000006E
:10524000000000000000000000000000000000005E
:10525000000000000000000000000000000000004E
:105260000000000001030306060606060606060304
:1052700001010103070606060606060606030301EA
:10528000000000000000000000000000000000001E
:10529000000000000000000000000000000000000E
:1052A00000000000000000000000000000000000FE
:1052B00000000000000000000000000000000000EE
:1052C00000000000000000000000000000000000DE
:1052D00000000000000000000000000000000000CE
:1052E00000000000000000000000000000000000BE
:1052F00000000000000000000000000000000000AE
:10530000000000000000000000000000000000009D
:10531000000000000000000000000000000000008D
:10532000000000000000000000000000000000007D
:10533000000000000000000000000000000000006D
:10534000000000000000000000000000000000005D
:10535000000000000000000000000000000000004D
:10536000000000000000000000000000000000003D
:10537000000000000000000000000000000000002D
:10538000000000000000000000000000000000001D
:10539000000000000000000000000000000000000D
:1053A00000000000000000000000000000000000FD
:1053B000000000E0E0E0E0C0C0C08080000000002D
:1053C00000000000000000000000000000000000DD
:1053D00000000000000000000000000000000000CD
:1053E00000000000000000000000000000000000BD
:1053F00000000000000000000000000000000000AD
:10540000000000000000000000000000000000009C
:10541000000000000000000000000000000000008C
:1054200000008080C0C0C0E0E0F0F0F000000000AC
:105430000000000001010303030707070F0F0F1E01
:105440001E3E3C7C7C78F8F0F0E0E0E0E0C0C080FC
:10545000808000000000000000000000000000004C
:10546000000000000000000000000000000000003C
:10547000000000000000000000000000000000002C
:10548000000000000000000000000000000080801C
:10549000C0C0C0E0E0E0F0F0F8F8F8BCBC9E9E9F11
:1054A0008F8F8FC7C7C3C3C3C1C1C0C0C0000000B6
:1054B0000000000000081C1C1C1C1C1C1C1C1C1CCC
:1054C0001C9C9C9C9CDCDCDCDCFDFDFFFFFFFFFFEB
:1054D000FF7F7F7F3E3E3E3C1C000000000000003E
:1054E00000E0E0E00000000000000000000000001C
:1054F0000000C0C0C000000000000000000000006C
:10550000C0C0C00000000000000000000F0F0F1F0F
:105510001F1F3F3F3F3F7F7F7FFBF3F3F3E3E3E357
:10552000E3C1C1C1818181010101010000000000CE
:10553000000000000000001C3C3C1E1E1E1F0F0F40
:105540000F0F870707070303030101010100000094
:10555000000000000000000000000000000000004B
:1055600000031F7FF8E0C0C0808080808080C0E0A2
:10557000F0783F7FFFE08000000000000000008026
:10558000F3FFFF000000000000000000000000002A
:105590000000000000000000000000000101010305
:1055A0000303038787070F0F0F0F0E0C0000000087
:1055B0000000000000F8FC0000C0FE7F0200008038
:1055C000F07F0F010000C0F81E0400000000000082
:1055D00000000000000000000000000000000000CB
:1055E00000000000000003FFFFFF030303030101AD
:1055F00000000000010307070FFEFE3E0607070735
:105600000301000000000000000000000000000096
:10561000000000000000F07E0C0000F87F07000092
:1056200000E0FC1F030000C0F03E06000000000088
:105630000000000000010000000303000000040F50
:105640000700000000060700000000000000000046
:10565000000000000000000000000000000000004A
:10566000000000000000000003070F1E1C1C1C1C93
:105670001C1C1C1C1C1C1C1E0F0F03000000000027
:10568000000000000000000000000000000000001A
:105690000000000000000000000000030000000007
:1056A00007070000000002070100000000000000E2
:1056B00000000000000000000000000000000000EA
:1056C00000000000000000000000000000000000DA
:1056D00000000000000000000000000000000000CA
:1056E00000000000000000000000000000000000BA
:1056F00000000000000000000000000000000000AA
:105700000000000000000000000000000000000099
:105710000000000000000000000000000000000089
:105720000000000000000000000000000000000079
:10573000000000005457000800000020580000003E
:1057400028010008AC57000858000020C00A0000DB
:105750004401000800127A00000000000000000070
:105760000102030406070809000000000102030407
:1057700001020304060708090204060800000000ED
:10578000010000000100000000000000C800060049
:1057900000000000000000000000E803000000001E
:0C57A000DF9B5713020000000000000017
:04000005080000ED02
:00000001FF
