:020000040800F2
:10000000A80A0020890100086F1200086712000882
:100010006B120008B50F00088B26000800000000D6
:10002000000000000000000000000000A11900080E
:10003000B90F00080000000089180008AF1A000876
:10004000A3010008A3010008A3010008A301000800
:10005000A3010008A3010008A3010008A3010008F0
:10006000A3010008A3010008A3010008A3010008E0
:10007000A3010008A3010008A3010008A3010008D0
:10008000A3010008A3010008A3010008A3010008C0
:10009000A3010008A3010008A3010008A3010008B0
:1000A000A3010008A3010008A3010008A3010008A0
:1000B000A3010008111B0008A3010008A301000808
:1000C000A3010008A3010008A3010008A301000880
:1000D000A30100089D1F0008A30100088122000859
:1000E000A3010008A3010008A301000800F002F822
:1000F00000F03AF80AA090E8000C82448344AAF188
:100100000107DA4501D100F02FF8AFF2090EBAE885
:100110000F0013F0010F18BFFB1A43F0010318473B
:10012000A0510000C0510000103A24BF78C878C127
:10013000FAD8520724BF30C830C144BF04680C60ED
:10014000704700000023002400250026103A28BF35
:1001500078C1FBD8520728BF30C148BF0B60704739
:100160001FB51FBD10B510BD00F036F81146FFF7E2
:10017000F7FF02F0ABFA00F054F803B4FFF7F2FF18
:1001800003BC00F057F800000948804709480047C1
:10019000FEE7FEE7FEE7FEE7FEE7FEE7FEE7FEE737
:1001A000FEE7FEE704480549054A064B7047000094
:1001B000B11A0008ED000008A8040020A80A0020D9
:1001C000A8060020A806002070477047704700006E
:1001D00000487047480400207546FFF7F9FFAE4617
:1001E00005006946534620F00700854618B020B543
:1001F000FFF7D8FFBDE820404FF000064FF00007A2
:100200004FF000084FF0000B21F00701AC46ACE8BE
:10021000C009ACE8C009ACE8C009ACE8C0098D462B
:10022000704710B50446AFF300802046BDE810408B
:10023000FFF7A3BF01491820ABBEFEE7260002006E
:100240007047000070B50425284801F0EBFB2848F2
:1002500001F006FC502000F0B0FE264801F0A2FBA1
:1002600035E0254800880D2800D035E000240FE057
:10027000214800880D2800D00CE0204602F006FC42
:10028000064601F0ADFB1D48008800F096FE641C98
:100290002D2CEDDD00BF2D240FE0174800880D2820
:1002A00000D00CE0204602F0F1FB064601F098FB7E
:1002B0001248008800F081FE641E002CEDDC00BFB7
:1002C0000D4800880D2800D006E0681E85B21DB1DB
:1002D000094800880D28C4D000BF074800880D28B1
:1002E00002D102200449088070BD00000000A04136
:1002F000000034420000B442360000203A000020E2
:1003000010B51C480088D0B91B4801F0A9FB1B4858
:1003100001F048FB1A48008800F04FFE164801F033
:1003200081FB164801F05CFB1548008800F045FE93
:100330000C201449088001200E49088019E00E485D
:1003400001F070FB0D4801F04BFB0D48008800F0F8
:1003500034FE094801F084FB084801F023FB0848FB
:10036000008800F02AFE0C20064908800020014980
:10037000088010BD4400002000000C4200000C4327
:10038000380000203600002010B51D480088D8B97C
:100390001C4801F007FB1C4801F062FB1B48008869
:1003A00000F00BFE174801F01BFB174801F03AFB69
:1003B00016480088503000F000FE022014490880E2
:1003C00001200F4908801AE00E4801F009FB0E4891
:1003D00001F028FB0D48008800F0EFFD094801F00E
:1003E000E1FA094801F03CFB08480088503000F071
:1003F000E4FD02200649088000200149088010BD64
:100400004200002000000C4300000C423800002095
:100410003600002010B55EE0022031490880084611
:100420000088801C088040E02E4801F0D9FA2E4850
:1004300001F0F8FA2D48008800F0BFFD2C48008834
:10044000062800D03BE0274801F0ACFA264801F02E
:1004500007FB2648008800F0B0FD254800880628E4
:1004600000D02CE0234801F0BBFA224801F0DAFA70
:100470001E48008800F0A1FD1D480088062800D015
:100480001DE01C4801F08EFA1A4801F0E9FA1748FD
:10049000008800F092FD16480088062800D00EE083
:1004A0000F480088401E0E4908800D48008810B98A
:1004B0001148008818B10E4800880628B4D000BF43
:1004C0000D480088012806D009480088062802D176
:1004D0000220074908800648008806289CD010BDE5
:1004E0004000002000003442000007433800002094
:1004F000360000200000B442340000202DE9F04115
:1005000001260324A7E0574801F04CFA564801F0B1
:1005100067FA3C2000F051FD544801F0A1FA5A2539
:100520000EE0534800880F2800D00BE0284602F068
:10053000ADFA074601F076FA062000F03EFD6D1C8C
:10054000B42DEEDB00BF14E0B4250EE0484800886F
:100550000F2800D00BE0284602F098FA074601F079
:1005600061FA0F2000F029FD6D1E962DEEDC00BF14
:10057000641E1CB13E4800880F28E5D03C48008826
:100580000F2800D06AE0642000F017FD354801F024
:1005900009FA344801F024FA354800880F2800D0C1
:1005A0005CE0502000F009FD2E4801F03BFA2D4898
:1005B00001F056FA642000F000FD2D4800880F2855
:1005C00000D04BE00324274801F00AFA264801F046
:1005D000E9F9274800880F2800D03FE03C2000F0D0
:1005E000ECFC224801F01EFA5A250EE02048008853
:1005F0000F2800D00BE0284602F048FA074601F029
:100600002FFA062000F0D9FC6D1CB42DEEDB00BFE4
:1006100014E0B4250EE0164800880F2800D00BE047
:10062000284602F033FA074601F01AFA0F2000F0CC
:10063000C4FC6D1E962DEEDC00BF641E1CB10C4880
:1006400000880F28E5D00A4800880F2802D1022030
:10065000074908800026002E7FF455AF00BFBDE893
:10066000F08100000000B4420000A0410000DC4224
:100670003600002010B5034802F00AF800200249B5
:10068000087010BD0000B4423E00002010B55EE0CE
:1006900002203149088008460088801C088040E01C
:1006A0002E4801F07FF92E4801F0DAF92D48008834
:1006B00000F083FC2C480088072800D03BE0274846
:1006C00001F08EF9264801F0ADF92648008800F0C7
:1006D00074FC25480088072800D02CE0234801F04E
:1006E00061F9224801F0BCF91E48008800F065FC61
:1006F0001D480088072800D01DE01C4801F070F953
:100700001A4801F08FF91748008800F056FC164887
:100710000088072800D00EE00F480088401E0E49D0
:1007200008800D48008810B91148008818B10E489B
:1007300000880728B4D000BF0D480088012806D0E3
:1007400009480088072802D1022007490880064886
:10075000008807289CD010BD4000002000003442D3
:100760000000074338000020360000200000B4429B
:100770003400002070B503255BE01E2422E02046F3
:1007800002F09CF9064601F00DF9204602F096F9B8
:10079000064601F025F9204602F090F9064601F0E0
:1007A00041F9204602F08AF9064601F059F93C4821
:1007B000008800F002FC3B480088082800D003E0D5
:1007C000601CC4B2962CDADB00BF364800880828CB
:1007D00000D033E0962422E0204602F06FF906466E
:1007E00001F0E0F8204602F069F9064601F0F8F859
:1007F000204602F063F9064601F014F9204602F0A3
:100800005DF9064601F02CF92548008800F0D5FB7B
:1008100024480088082800D003E0601EC4B21E2CC3
:10082000DADC00BF1F480088082800D006E0681EF8
:1008300085B21DB11B48008808289ED000BF1E2429
:1008400022E0204602F03AF9064601F0ABF82046D5
:1008500002F034F9064601F0C3F8204602F02EF902
:10086000064601F0DFF8204602F028F9064601F0BE
:10087000F7F80B48008800F0A0FB0A480088082819
:1008800000D003E0601CC4B25A2CDADB00BF05487C
:100890000088082802D102200249088070BD0000AB
:1008A0003A0000203600002070B503253C2000F0FF
:1008B00084FB37E01E2410E0204602F0FFF80646D5
:1008C00001F0E6FE2348008800F077FB224800880C
:1008D000092800D003E0601CC4B2962CECDB00BFFA
:1008E0001D480088092800D022E0962410E0204608
:1008F00002F0E4F8064601F0CBFE1648008800F04E
:100900005CFB15480088092800D003E0601EC4B2D3
:100910001E2CECDC00BF10480088092800D007E03E
:10092000681E05B2002D03DD0B4800880928C1D0E0
:1009300000BF0A4801F0ACFE3C2000F03EFB064838
:100940000088092802D102200349088000200449B8
:10095000087070BD3A000020360000200000B4424C
:100960003E00002010B597E002204E4908807CE050
:100970004D4801F035F84C4801F054F84B480088D8
:1009800000F01BFB4A480088042800D078E0494862
:1009900001F008F8474801F063F84448008800F087
:1009A0000CFB43480088042800D069E0424801F06D
:1009B00017F8414801F036F83C48008800F0FDFA8D
:1009C0003B480088042800D05AE03B4800F0EAFF8A
:1009D000394801F045F83548008800F0EEFA34480F
:1009E0000088042800D04BE02F4800F0DBFF2E48A1
:1009F00001F036F82D48008800F0DFFA2C48008816
:100A0000042800D03CE02B4800F0EAFF294801F020
:100A100009F82648008800F0D0FA25480088042804
:100A200000D02DE0244800F0BDFF234801F018F865
:100A30001E48008800F0C1FA1D480088042800D034
:100A40001EE01D4800F0CCFF1B4800F0EBFF1748EC
:100A5000008800F0B2FA16480088042800D00FE0A1
:100A600010480088401E0F4908800E48008810B9C1
:100A70001248008820B10E48008804283FF478AF5F
:100A800000BF0E480088012806D0094800880428C5
:100A900002D10220064908800548008804283FF456
:100AA00063AF10BD40000020000034423800002039
:100AB00036000020000007430000B442340000204C
:100AC00010B597E002204E4908807CE04D4800F0C8
:100AD00087FF4C4800F0A6FF4B48008800F06DFAF5
:100AE0004A480088052800D078E0494800F05AFFBD
:100AF000474800F0B5FF4448008800F05EFA4348DC
:100B00000088052800D069E0424800F069FF4148AC
:100B100000F088FF3C48008800F04FFA3B4800880E
:100B2000052800D05AE03B4800F03CFF394800F06F
:100B300097FF3548008800F040FA344800880528BF
:100B400000D04BE02F4800F02DFF2E4800F088FF2A
:100B50002D48008800F031FA2C480088052800D084
:100B60003CE02B4800F03CFF294800F05BFF2648A2
:100B7000008800F022FA25480088052800D02DE0E2
:100B8000244800F00FFF234800F06AFF1E48008849
:100B900000F013FA1D480088052800D01EE01D480B
:100BA00000F01EFF1B4800F03DFF1748008800F0D2
:100BB00004FA16480088052800D00FE01048008885
:100BC000401E0F4908800E48008810B9124800885E
:100BD00020B10E48008805283FF478AF00BF0E48CA
:100BE0000088012806D009480088052802D1022083
:100BF000064908800548008805283FF463AF10BD0A
:100C0000400000200000074338000020360000208C
:100C1000000034420000B4423400002010B50B48FC
:100C200000F0C0FE094800F0DBFE502000F0C5F9DE
:100C3000064800F0F7FE054800F012FF044800786F
:100C4000012802D109200349088010BD0000A041FD
:100C50003E0000203600002010B5084800F0A2FE3B
:100C6000064800F0BDFE502000F0A7F9044800F04F
:100C7000D9FE034800F0F4FE10BD00000000A041C2
:100C80000000204310B50B4800F08CFE094800F02E
:100C9000A7FE502000F091F9074800F0C3FE064877
:100CA00000F0DEFE05480078012802D10920044941
:100CB000088010BD0000B4420000A0413E000020AA
:100CC0003600002070B53C4800F0ACFE3A4800F019
:100CD000C7FE502000F071F95A2414E0204601F0BC
:100CE000D5FE054600F05EFE204601F0CFFE05462B
:100CF00000F076FE314800880E2800D005E00F2075
:100D000000F05BF9641E0A2CE8DC00BF0A2414E042
:100D1000204601F0BBFE054600F044FE204601F0EF
:100D2000B5FE054600F05CFE244800880E2800D081
:100D300005E00F2000F041F9641C5A2CE8DB00BFED
:100D40005A2414E0204601F0A1FE054600F06AFE98
:100D5000204601F09BFE054600F082FE1748008801
:100D60000E2800D005E00F2000F027F9641CAA2C03
:100D7000E8DB00BFAA2414E0204601F087FE054608
:100D800000F050FE204601F081FE054600F068FEAE
:100D90000A4800880E2800D005E00F2000F00DF969
:100DA000641E5A2CE8DC00BF044800880E2802D1DB
:100DB0000F200249088070BD0000B44236000020B8
:100DC00010B50B4800F0EEFD094800F009FE502078
:100DD00000F0F3F8064800F025FE054800F040FE5C
:100DE00004480078012802D109200349088010BD79
:100DF0000000B4423E0000203600002010B50B4831
:100E000000F010FE094800F02BFE502000F0D5F84D
:100E1000064800F0C7FD054800F0E2FD04480078F0
:100E2000012802D109200349088010BD0000B44206
:100E30003E0000203600002000B587B001210420CC
:100E400000F034FD0121880300F030FD012108206D
:100E500000F02CFD0121880400F018FD18208DF809
:100E60001B004FF40070ADF8180003208DF81A0035
:100E700006A94C4800F05AF948208DF81B004FF4A1
:100E80008060ADF8180003208DF81A0006A94548C7
:100E900000F04CF918208DF81B004FF48060ADF87D
:100EA000180003208DF81A0006A93F4800F03EF90B
:100EB00048208DF81B004FF40060ADF818000320A7
:100EC0008DF81A0006A9384800F030F910208DF886
:100ED0001B00ADF8180003208DF81A0006A9314850
:100EE00000F024F910212F4800F0B6F904208DF805
:100EF0001B002020ADF8180003208DF81A0006A969
:100F0000284800F013F90020ADF814000C20ADF8CB
:100F100012000020ADF81000ADF80E00ADF80C0086
:100F20004FF41650029002A9204801F03DFB02A99F
:100F30001F4801F039FB012240F225511B4801F006
:100F40000EFB012240F22551194801F008FB4FF435
:100F5000A06000F0C5F925208DF8040001208DF86F
:100F600007008DF805008DF8060001A800F080F953
:100F700027208DF8040001208DF8070002208DF84D
:100F8000050001208DF8060001A800F071F901218B
:100F9000064801F0AEFA0121054801F0AAFA07B0AF
:100FA00000BD000000080140000C01400038014075
:100FB0000048004000BFFEE7704710B5044603E05C
:100FC0004FF47A7000F006F8201EA4F10104F7D166
:100FD00010BD000001460F4A12680F4BB2FBF3F23E
:100FE0004A434FF0E0235A6100229A6105221A61B8
:100FF00000BF4FF0E022106900F001021AB100F4C6
:101000008032002AF5D004224FF0E0231A6100223A
:101010009A6170470000002040420F0008B53B482D
:10102000008860B900F066F9394840238022002129
:101030000090084600F080FA00F0FCFA64E03348C3
:10104000008801280CD100F055F932484023802255
:1010500000210090084600F06FFA00F0EBFA53E030
:101060002A48008802280CD100F044F92A4840237D
:10107000802200210090084600F05EFA00F0DAFAC3
:1010800042E02248008803280CD100F033F92348BD
:101090004023802200210090084600F04DFA00F025
:1010A000C9FA31E01948008804280CD100F022F96F
:1010B0001B484023802200210090084600F03CFAA3
:1010C00000F0B8FA20E01148008805280CD100F0A3
:1010D00011F914484023802200210090084600F0B6
:1010E0002BFA00F0A7FA0FE00848008806280BD179
:1010F00000F000F90C4840238022002100900846AF
:1011000000F01AFA00F096FA08BD00003C0000203A
:10111000C0460008C04A0008C03E0008C04200089F
:10112000C04E0008C03A0008C03600082DE9F04162
:10113000024600250026002000230024002791F805
:1011400003C00CF00F0591F803C00CF0100CBCF1BB
:10115000000F03D091F802C04CEA050591F800C0D9
:10116000BCF1000F31D0146800202BE04FF0010CCF
:101170000CFA00F3B1F800C00CEA03069E4220D13D
:1011800083004FF00F0C0CFA03F7BC4305FA03FC85
:101190004CEA040491F803C0BCF1280F06D14FF0CB
:1011A000010C0CFA00FCC2F814C00AE091F803C06C
:1011B000BCF1480F05D14FF0010C0CFA00FCC2F84D
:1011C00010C0401C0828D1D31460B1F800C0BCF195
:1011D000FF0F34DD546800202EE000F1080C4FF0C2
:1011E000010808FA0CF3B1F800C00CEA03069E42AD
:1011F00021D183004FF00F0C0CFA03F7BC4305FA22
:1012000003FC4CEA040491F803C0BCF1280F05D19B
:1012100000F1080C08FA0CF8C2F8148091F803C029
:10122000BCF1480F07D100F1080C4FF0010808FA93
:101230000CF8C2F81080401C0828CED35460BDE8DA
:10124000F0810246002093680B400BB1012000E0C2
:101250000020704741617047016170470AB1016128
:1012600000E04161704700BFFEE700BFFEE7704746
:1012700070B5002100230F22C47804B3154C2468F4
:1012800004F4E064C4F5E064210AC1F10403CA4037
:10129000447804FA03F184781440214309010E4C88
:1012A0000678A155047804F01F050124AC400578A8
:1012B0006D11AD0005F1E025C5F8004109E00478A5
:1012C00004F01F050124AC40044D0678761145F862
:1012D000264070BD0CED00E000E400E080E100E09D
:1012E00002490143024A1160704700000000FA05FC
:1012F0000CED00E000200CE0002106E00022064B8F
:1013000003EBC0135A544A1CD1B28029F6DB421CAD
:10131000D0B20828F0DB7047480000202DE9F043E8
:1013200004460D4616461F46284638E0224631E060
:10133000002A2DDB7F2A2BDC002829DB3F2827DC35
:101340004FEAE07C00EB5C7C4FEAEC0CDFF8588065
:1013500008EBCC1C1CF802C003464FEAE07800EB17
:1013600058784FEAE808A0EBC8094FF0010808FADE
:1013700009F82CEA080C01464FEAE07800EB5878AF
:101380004FEAE808DFF8209009EBC81808F802C017
:10139000511C0AB2A1199142CADC411C08B2E919D8
:1013A0008142C3DCBDE8F0834800002038B500244A
:1013B00006E0002500E06D1CB5F57A7FFBD3641CC8
:1013C000B4F57A7FF5D30121082000F06FFA1420DC
:1013D0008DF8030003208DF802004020ADF80000D6
:1013E00069460848FFF7A2FE8020ADF80000694674
:1013F0000448FFF79BFE012000F030F9012000F0C7
:1014000037F938BD000C014070B50546002411E0E5
:1014100080212141294009B1012100E00021084635
:1014200000F026F9012000F019F9002000F016F96B
:10143000601CC4B2082CEBDB012000F00FF9002087
:1014400000F00CF970BD10B5012000F011F9012079
:1014500000F004F9002000F00BF9002000F0FEF885
:1014600010BD10B5002000F003F9012000F0F6F8DF
:10147000012000F0FDF810BD10B5FFF797FFAE207A
:1014800000F000F9D52000F0FDF8802000F0FAF817
:10149000A82000F0F7F83F2000F0F4F8D32000F087
:1014A000F1F8002000F0EEF8402000F0EBF8A12069
:1014B00000F0E8F8C82000F0E5F8DA2000F0E2F8E3
:1014C000122000F0DFF8812000F0DCF8CF2000F0DF
:1014D000D9F8D92000F0D6F8F12000F0D3F8DB20BD
:1014E00000F0D0F8302000F0CDF8A42000F0CAF8C9
:1014F000A62000F0C7F88D2000F0C4F8142000F0FA
:10150000C1F8AF2000F0BEF8FFF7F4FE00F092F84B
:1015100010BD70B505460C46A01CC4B245F0B00025
:1015200000F0B0F8102141EA141000F0ABF804F01C
:101530000F0000F0A7F870BD2DE9FF4F80460E4662
:101540009146DDF834B0002500244A463146404635
:10155000039BFFF7E3FE00BF5EE0002558E008EBC9
:101560000500002852DB08EB05007F284EDC3046E2
:10157000F11706EB5171C9100FB2F11706EB51715B
:10158000C910A6EBC10A002E05DA781E07B20AF1CF
:1015900008000FFA80FA3819002817DB38190728D5
:1015A00014DC3819224901EBC01008EB0501405C3E
:1015B00004FB09511BF8011001FA0AF1084339191B
:1015C0001B4A02EBC11108EB050288543819401C74
:1015D00000281BDB3819401C072817DC3819401C71
:1015E000134901EBC01008EB0501405C04FB0951F5
:1015F0001BF80110CAF10802114108433919491CAE
:101600000B4A02EBC11108EB05028854681CC5B2F5
:101610004D45A4DB601CC4B20399481EC11700EB02
:101620005171012202EBE101A14296DCBDE8FF8F7E
:101630004800002010B500240BE000212046FFF7F1
:1016400068FF054901EBC410802100F02BF8601CF5
:10165000C4B2082CF1DB10BD4800002010B50446D0
:10166000224640210148FFF7F9FD10BD000C014062
:1016700010B50446224680210148FFF7EFFD10BD5A
:10168000000C014010B50446FFF7DDFE7820FFF79F
:10169000BBFE0020FFF7B8FE2046FFF7B5FEFFF7C0
:1016A000E0FE10BD70B505460E46FFF7CCFE782073
:1016B000FFF7AAFE4020FFF7A7FE002404E0285D04
:1016C000FFF7A2FE601CC4B2B442F8DBFFF7C9FE0C
:1016D00070BD000000B589B00121084600F0D6F8C1
:1016E0000121022000F0D2F80121042000F0DEF8F0
:1016F0000121082000F0DAF818208DF823004F208F
:10170000ADF8200003208DF8220008A93C48FFF71F
:101710000DFD18208DF823000320ADF820008DF872
:10172000220008A93748FFF701FD4FF0804000F084
:101730009CFA354800F099FA0020ADF81A00ADF88F
:10174000160044F61F60ADF818000720ADF814002D
:1017500000208DF81C0005A94FF0804000F0CCFB64
:1017600005A9294800F0C8FB1D208DF810000120B4
:101770008DF8130000208DF811008DF8120004A8D8
:10178000FFF776FD012211461F4800F065FA684612
:1017900000F09EFB6020ADF800000020ADF80800CE
:1017A0000120ADF802000020ADF8060069464FF0B8
:1017B000804000F061FA69464FF0804000F0A8FADE
:1017C00069464FF0804000F0F5FA69464FF08040DE
:1017D00000F040FB69460C4800F04EFA69460A48A2
:1017E00000F0E8FA6946084800F034FB0121880758
:1017F00000F015FA0121044800F011FA09B000BD0B
:1018000000080140000C01400004004010B50446EF
:101810002146024800F06AFB10BD000000040040B1
:1018200010B504462146024800F062FB10BD0000DE
:101830000004004010B5044621464FF0804000F0FF
:1018400051FB10BD10B5044621464FF0804000F01A
:101850004BFB10BD10B5044621464FF0804000F010
:1018600045FB10BD10B5044621464FF0804000F006
:101870003FFB10BD10B504462146024800F032FB84
:1018800010BD0000000400407047000029B1064A66
:10189000D2690243044BDA6104E0034AD26982430D
:1018A000014BDA61704700000010024029B1064A7E
:1018B00092690243044B9A6104E0034A92698243AD
:1018C000014B9A61704700000010024030B50021C2
:1018D0000022002400232D4D6D6805F00C0121B17C
:1018E000042905D0082923D105E0294D056022E00F
:1018F000274D05601FE0254D6D6805F47012234DDE
:101900006D6805F48034022505EB92421CB9214D27
:10191000554305600BE01D4D6D6805F400351DB1A4
:101920001C4D5543056002E0194D5543056002E02A
:10193000174D056000BF00BF144D6D6805F0F00144
:101940000909154D6B5C0568DD4045600F4D6D68FC
:1019500005F4E061090A104D6B5C4568DD40856067
:101960000A4D6D6805F46051C90A0B4D6B5C456802
:10197000DD40C560054D6D6805F44041890B074D9C
:101980006B5CC568B5FBF3F5056130BD0010024026
:1019900000127A0000093D001400002024000020FD
:1019A000704700002DE9F04104460A49204600F046
:1019B0008BFF8046084901F095F80746074900F07B
:1019C00021FF064601F042F885B22846FFF732FFB4
:1019D000BDE8F081000034430000FA440000FA43FF
:1019E0002DE9F04704460C49204601F047F98146AD
:1019F000094900F069FF8046084901F073F807467D
:101A0000074900F0FFFE064601F020F885B228469F
:101A1000FFF718FFBDE8F087000034430000FA44E8
:101A20000000FA432DE9F04104460A49204600F03F
:101A30004BFF8046084901F055F80746074900F07A
:101A4000E1FE064601F002F885B22846FFF702FFE4
:101A5000BDE8F081000034430000FA440000FA437E
:101A60002DE9F04704460C49204601F007F981466C
:101A7000094900F029FF8046084901F033F807467C
:101A8000074900F0BFFE064600F0E0FF85B2284699
:101A9000FFF7E8FEBDE8F087000034430000FA4499
:101AA0000000FA4310B5FFF715FE10BD70477047F0
:101AB00010B51348006840F001001149086008465D
:101AC0004068104908400E494860084600680E49C1
:101AD00008400B4908600846006820F48020086030
:101AE0000846406820F4FE0048604FF41F008860FC
:101AF000FFF7DCFF4FF000600449086010BD0000F4
:101B0000001002400000FFF8FFFFF6FE08ED00E0C5
:101B100010B501213A4800F08EF801286ED13948FD
:101B2000008801280BD13848008840B944F620606D
:101B3000FFF76CFE44F62060FFF772FE5AE0314872
:101B4000008801284DD130480088012849D12F480C
:101B50000088012816D12E48008864302C4908805E
:101B600008460088FFF752FE29480088FFF758FE14
:101B70002748008844F6206188423BD1022023494F
:101B8000088037E021480088022813D120480088C7
:101B900064381F49088008460088FFF737FE1C4854
:101BA0000088FFF73DFE1A48008818BB032017493C
:101BB00008801FE01548008803281BD115480088BD
:101BC00000F57A70134908800846008844F62061C1
:101BD00088420FD101200D49088000200D4908805E
:101BE00008E00848008828B90020FFF70FFE002011
:101BF000FFF716FE0121024800F00EF810BD0000AC
:101C00000004004030000020320000202C000020A2
:101C10002A0000202E000020CA430282704721B112
:101C2000028842F00102028004E002884FF6FE734F
:101C30001A400280704730B502460020002300247D
:101C4000158A05EA0103958905EA010413B10CB16F
:101C5000012000E0002030BD1AB183890B4383814D
:101C600002E083898B438381704701894FF6F872C4
:101C7000114001817047000070B50024002200234C
:101C8000058C4FF6FE7635400584028C8388048BE4
:101C90004FF68F752C40B51E2C400D882C43751EB9
:101CA0002A400D892A434D882A43144DA8420BD05F
:101CB000134DA84208D0134DA84205D0124DA8429A
:101CC00002D0124DA84213D14FF6F7752A404D8924
:101CD0002A434FF6FB752A408D882A434FF6FF654D
:101CE0002B404FF6FF552B408D892B43CD892B433D
:101CF00083800483CD888586028470BD002C0140DA
:101D000000340140004001400044014000480140CF
:101D100070B5002400220023058C4FF6EF76354085
:101D20000584028C8388048B48F6FF752C404FF69F
:101D3000FF452C400D884FF6FF7606EA05252C431B
:101D40004FF6DF752A400D8906EA05152A434D88AE
:101D500006EA05152A43154DA84202D0144DA842A3
:101D60001DD14FF67F752A404D894FF6FF7606EA62
:101D700005152A434FF6BF752A408D8806EA0515DA
:101D80002A434FF6FF352B404FF2FF752B408D89CC
:101D900006EA85052B43CD8906EA85052B4383801A
:101DA0000483CD880587028470BD0000002C0140AB
:101DB0000034014070B5002400220023058C4FF64A
:101DC000FF6635400584028C8388848B4FF68F75BF
:101DD0002C404FF6FC752C400D882C434FF6FF55D8
:101DE0002A400D894FF6FF7606EA05252A434D88DD
:101DF00006EA05252A43154DA84202D0144DA842F3
:101E00001DD14FF2FF752A404D894FF6FF7606EA45
:101E100005252A434FF6FF352A408D8806EA052519
:101E20002A434EF6FF752B404DF6FF752B408D89EA
:101E300006EA05152B43CD8906EA05152B43838059
:101E40008483CD888587028470BD0000002C01400A
:101E50000034014070B5002200230024058C4EF6AA
:101E6000FF7635400584038C8488828B48F6FF75A5
:101E70002A404FF6FF452A400D884FF6FF7606EAC6
:101E800005252A434DF6FF752B400D8906EA0535D9
:101E90002B434D8806EA05352B430B4DA84202D053
:101EA0000A4DA84208D14BF6FF752C408D894FF69C
:101EB000FF7606EA85152C4384808283CD88A0F8BE
:101EC0004050038470BD0000002C014000340140EC
:101ED0000021018041808180C18001814181818117
:101EE000C18170478186704701877047818770473D
:101EF000A0F8401070470000002202881D4B984255
:101F00000ED01D4B98420BD0B0F1804F08D01B4B28
:101F1000984205D01A4B984202D01A4B984204D1ED
:101F20004FF68F731A404B881A43174B984207D0CD
:101F3000164B984204D04FF6FF431A40CB881A4301
:101F400002808B8883850B8803850A4B98420BD0CF
:101F5000094B984208D00E4B984205D00D4B984241
:101F600002D00D4B984201D10B7A03860123838264
:101F700070470000002C0140003401400004004084
:101F800000080040000C0040001000400014004019
:101F900000400140004401400048014010B540F2BB
:101FA0002551AE4800F0B1FA012872D10020AC49A9
:101FB0000880AA4800F064FB292808D10020A9491C
:101FC0000880FFF72BF80020A74908803FE1A348CD
:101FD00000F056FB302808D10120A2490880FFF705
:101FE0001DF80120A049088031E19C4800F048FB21
:101FF000312808D105209B490880FFF70FF80220FF
:102000009949088023E1954800F03AFB322808D12D
:10201000012094490880FFF701F8032092490880C5
:1020200015E18E4800F02CFB332808D102208D49A1
:102030000880FEF7F3FF04208B49088007E18748FA
:1020400000F01EFB342808D1022086490880FEF7E4
:10205000E5FF052084490880F9E0804800F010FB86
:10206000352808D102207F490880FEF7D7FF0620D7
:102070007D490880EBE0794800F002FB362809D161
:10208000022078490880FEF7C9FF072076490880BA
:10209000DDE0E1E0714800F0F3FA372808D10420D0
:1020A00070490880FEF7BAFF08206F490880CEE02B
:1020B0006A4800F0E5FA38281BD16C480088782877
:1020C00004D1032067490880FEF7A8FF674800880D
:1020D000642805DD65480088143864490880B6E046
:1020E000022060490880FEF799FFC8205F490880F8
:1020F000ADE05A4800F0C4FA39281BD15C4800888A
:10210000042804D1032057490880FEF787FF584868
:102110000088032805DD56480088401E5449088081
:1021200095E004204F490880FEF778FF09205049C8
:1021300008808CE0494800F0A3FA40281ED14D48A1
:10214000007808B9012000E000204A490870012009
:1021500044490880FEF762FF46480078012803D111
:1021600009204149088072E03F48008809286ED163
:1021700002203D490880FEF77DFA68E0374800F00C
:102180007FFA412808D1022036490880FEF746FF31
:102190000A20354908805AE0304800F071FA422898
:1021A00008D102202F490880FEF738FF0B202E4966
:1021B00008804CE0294800F063FA432808D1062043
:1021C00028490880FEF72AFF0D20274908803EE0B5
:1021D000224800F055FA442803D1012026490880FE
:1021E00035E01E4800F04CFA452803D10020224972
:1021F00008802CE0194800F043FA462803D101205A
:102200001E49088023E0154800F03AFA472803D118
:1022100000201A4908801AE0104800F031FA4828D6
:1022200008D106200F490880FEF7F8FE0E200E495F
:1022300008800CE0094800F023FA492807D106205D
:1022400008490880FEF7EAFE0F200749088040F29F
:102250002551024800F03EF910BD00000038014051
:10226000340000203C000020360000203800002010
:102270003A0000203E000020300000203200002004
:1022800010B540F225518A4800F03FF900286ED081
:10229000874800F0F5F9C4B2002086490880A4F10F
:1022A0002900212877D2DFE800F011F9F9F9F9F9CE
:1022B000F91A232C353E4750596380F9F9F9F9F999
:1022C000F99CBBC4CDD6DADEE2E6F00000207A4904
:1022D0000880FEF7A3FE002078490880DFE0012097
:1022E00075490880FEF79AFE012074490880D6E0FF
:1022F000052071490880FEF791FE02206F49088091
:10230000CDE001206C490880FEF788FE03206B4970
:102310000880C4E0022068490880FEF77FFE0420A0
:1023200066490880BBE0022063490880FEF776FE1C
:10233000052062490880B2E002205F490880FEF76C
:102340006DFE06205D490880A9E002205A490880F8
:10235000FEF764FE072059490880A0E00420564992
:102360000880FEF75BFE08205449088097E09DE056
:1023700053480088782804D103204F490880FEF78D
:102380004DFE4F480088642806DD4D48008814380B
:102390004B49088008E081E0022047490880FEF7A9
:1023A0003DFEC8204649088079E046480088042858
:1023B00004D1032040490880FEF730FE41480088E0
:1023C000032805DD3F480088401E3E49088007E09D
:1023D000042039490880FEF721FE09203949088088
:1023E0005DE03948007808B9012000E00020364956
:1023F0000870012030490880FEF710FE324800784E
:10240000012803D109202D49088008E02B480088C5
:10241000092804D1022029490880FEF72BF93EE063
:10242000022025490880FEF7F9FD0A20234908808B
:1024300035E0022020490880FEF7F0FD0B201F49FF
:1024400008802CE006201C490880FEF7E7FD0D20DF
:102450001A49088023E001201C4908801FE0002061
:102460001A4908801BE001201949088017E0002064
:102470001749088013E006200F490880FEF7CEFDBB
:102480000E200E4908800AE0FFE706200A4908806E
:10249000FEF7C4FD0F200949088000E000BF00BF1F
:1024A00040F22551024800F015F800BF10BD0000B1
:1024B00000480040340000203C000020360000208E
:1024C000380000203A0000203E00002030000020AC
:1024D0003200002010B50022002340F66A14A14209
:1024E00000D100BF0A1201249440A3B2DC4304804F
:1024F00010BD21B1828942F40052828104E08289B8
:102500004DF6FF731A408281704770B50246002471
:1025100000230025002040F66A16B14200D100BF1A
:10252000C1F3421501F01F03012606FA03F3012D42
:1025300002D19689334006E0022D02D1168A33403B
:1025400001E0968A33400C12012606FA04F416883C
:10255000344013B10CB1012000E0002070BDF0B593
:102560000346002400260025002040F66A17B942E1
:1025700000D100BF1846C1F3421401F01F06012725
:1025800007FA06F5012C01D10C3004E0022C01D130
:10259000103000E014301AB107682F43076002E0E2
:1025A0000768AF430760F0BD2DE9F04786B00546E8
:1025B0000E460024A24600BFA1460027B08900B104
:1025C00000BF2F462C8A4CF6FF700440F08804436D
:1025D0002C82AC894EF6F3100440B0883189084350
:1025E000718908430443AC81AC8A4FF6FF40044034
:1025F000B0890443AC8201A8FFF768F91F488742FD
:1026000002D1DDF810A001E0DDF80CA0A88900F4EB
:10261000004040B10AEBCA0000EB0A1031684900E3
:10262000B0FBF1F807E00AEBCA0000EB0A103168D2
:102630008900B0FBF1F86420B8FBF0F00401200938
:10264000642101FB1089A88900F4004040B13220C8
:1026500000EBC900B0FBF1F000F00700044308E014
:10266000322000EB09106421B0FBF1F000F00F0004
:1026700004432C8106B0BDE8F0870000003801401B
:1026800001468888C0F30800704700BFFEE70000DD
:102690002DE9F04104460A49204600F015F980462C
:1026A000084900F01FFA0746074900F0ABF8064654
:1026B00000F0CCF985B22846FFF7DCF8BDE8F081E0
:1026C000000034430000FA440000FA4308B5FFF765
:1026D000E9F9FEF7D1FEFEF7AFFB46484023802222
:1026E000002100900846FEF727FFFEF7A3FF80E0D9
:1026F00020214148FEF7A5FD0446012C04D11021FC
:102700003D48FEF7A7FD03E010213B48FEF7A4FD7E
:102710003A48008828B9FEF79FFA3948FFF7B8FF12
:1027200067E036480088012802D1FEF7ABFA60E086
:1027300032480088022802D1FEF742FB59E02F48B8
:102740000088032802D1FEF769FA52E02B4800887E
:10275000042802D1FEF706F94BE028480088052836
:1027600002D1FEF7ADF944E024480088062802D1E2
:10277000FDF750FE3DE021480088072802D1FDF713
:1027800085FF36E01D480088082802D1FDF7F2FFDA
:102790002FE01A480088092802D1FEF785F828E0C2
:1027A000164800880A2802D1FDF7EEFD21E0134803
:1027B00000880B2802D1FDF7A3FD1AE00F4800881E
:1027C0000C2802D1FEF71AFB13E00C4800880D28F4
:1027D00002D1FDF737FD0CE0084800880E2802D131
:1027E000FEF770FA05E0054800880F2801D1FDF7D3
:1027F00085FE7DE7C0460008000801403600002045
:102800000000B44290EA010F48BF81F0004100F19E
:102810004682421A3CBF801A89184FEAD0524FF0C4
:102820007F4C1CEA410FA2EBD15318BF9CEA026F08
:1028300000F03B804FF0004C4CEA00204CEA0121B4
:1028400021FA03FC10EB0C0C1ED202F1FF325FEAFE
:102850001C2040EBC25038BF70471CF07F0F4FEA7E
:10286000400C18BFBCF17F4F38BF7047C3F1200345
:10287000994008BF20F00100BCF17F4F38BF70477E
:10288000A0F1C04000F0F5B94FEA3C00000A40EB6F
:10289000C25028BF1CF0FF0F4FEA400CE6D018BF13
:1028A000BCF17F4F38BF7047EAE79CEA026F05D062
:1028B00010EA5C0F08BF00F00040704710B500F050
:1028C00092F900BF64FBBE3E4FF47F0C1CEAD012AD
:1028D0001EBF1CEAD11392EA0C0F93EA0C0F00F012
:1028E000858090EA010F48BF42F4807240F4000CEA
:1028F00041F400002CF07F4120F07F4000B5814280
:10290000A2EB03020FF2081CACEB504EC0F100002A
:102910009EF800E04FEA4E0E00FB0EFC38BF490067
:102920004FEA2C1C02F5FA020CFB0EF34FEACE1E06
:102930004FEA112C4FEAC1210EEB635E42EB2242BB
:102940000EFB0CFC4FEA1C5300FB03114FEA112C49
:102950004FEA01310EFB0CFC4FEADC4C00FB0C1182
:10296000C14228BF09184CEB03335DF804EB10EBB0
:10297000410143EBC250B2F57C0F38BF704729D5F7
:1029800012F0F00F1CBF00F1C04000F00040704793
:10299000008182838485868788898B8C8D8E8F9138
:1029A0009293959697999A9C9D9FA0A2A3A5A7A85C
:1029B000AAACAEB0B2B3B5B7B9BCBEC0C2C5C7C988
:1029C000CCCED1D4D7D9DCDFE2E6E9ECF0F3F7FAEC
:1029D000FE0000004FEA400C0CF1807CBCF17E4F01
:1029E00028BF7047B0F1C04000F043B990EA010F32
:1029F0000CEAD11348BF42F48072624538BF634588
:102A000007D213F47F0F16D080EA010000F00040D7
:102A1000704710B500F0E7F8097EFC3E00F005B8FD
:102A200080EA010000F00040704780EA010000F0F9
:102A3000004000F01EB912F47F0F04BF0248704737
:102A400080EA010000F015B90000C07FC10DD1F18E
:102A50009E0206DB4FEA002343F0004323FA02F014
:102A60007047004207D54FEA4001B1F1FE4F02D254
:102A70004FF00000704710B500F0B5F8499224807F
:102A8000002070476FEA20007047000010F00041FE
:102A900048BF4042B0FA80F310FA03F2C3F19D033D
:102AA0000BD051EAC35101EB1220530638BF7047D7
:102AB00000F1010008BF20F001007047B0FA80F378
:102AC00010FA03F2C3F19D030AD0D90501EB1220DD
:102AD000530638BF704700F1010008BF20F0010025
:102AE000704700004FF47F0C1CEAD0121EBF1CEA96
:102AF000D11392EA0C0F93EA0C0F00F0478090EA92
:102B0000010F48BF42F480724FF0004C4CEA0020A5
:102B10004CEA012102EB0302A0FB0113A2F5000223
:102B2000002918BF43F001035B0028BF4FEA3303BD
:102B300042EB22425FEA132C4CEBC2502EBFBCEB9F
:102B4000436FB2F57C0F70474FEA036CBCF1004F46
:102B500008BF20F00100B2F57C0F38BF70470BD5DD
:102B600082F0FF0212F5803FC8BF704700F1C040FD
:102B7000D8BF00F00040704700F5000C5FEA4C0C35
:102B800048BF7047B0F1C04000F073B890EA010F41
:102B90000CEAD11348BF42F48072624538BF6345E6
:102BA00004D280EA010000F00040704710B500F048
:102BB0001AF800BF8900013E00F007B800F009B81C
:102BC0005FEA410C5FEA1C6C08D080EA010000F06B
:102BD00050B85FEA400C5FEA1C6CF6D14FF0004041
:102BE000A0F5800070470EF1020E2EF0030E5EF885
:102BF000044B244204D44FEA4102B2F17F4F11D872
:102C00004FEA4003B3F17F4F0CD80ED14FEAD07C8E
:102C1000B2F17F4F0CEB4C0C0CF1020C08BF4CEBEB
:102C2000D17C04E04FF0080C01E04FEAD17C0CEBC2
:102C30004C0324FA03F404F00704B4F1040C06D2A4
:102C40000EEB840CBDE810404CF0010C6047DFE84F
:102C50000CF0070802024FF00040A0F5800010BD04
:102C60000846420018BFD2F1807288BF00F00040D1
:102C700010BDFF2141EAD050C005704780F00040F0
:102C800090EA010F7FF5C5AD81F0004100F007B873
:102C900090EA010F48BF81F000413FF5BAAD421AFA
:102CA00004D882F00042A0EB020011444FEAD05257
:102CB0004FF07F4C1CEA410FA2EBD15318BF9CEAA6
:102CC000026F4AD04FF0004C4CEA00204CEA012140
:102CD00021FA03FCB0EB0C0C0FD412F0FE0F36D02F
:102CE0005FEA4C001DD5001240EBC25038BF704760
:102CF0001CF03F0F18BF70470BE0A2F101025FEA22
:102D00001C2040EBC25038BF70471CF07F0F18BF2B
:102D10007047C3F12003994014BF401E20F001000A
:102D2000704780084FEA122308BF7047B0FA80FC52
:102D3000A2EB0C02CCF1280C60FA0CF093EA122FF3
:102D400004BF00EBC25070474FEAC3707047130ACC
:102D50005FEADC1008BF7047F6E79CEA026F04D018
:102D600010EA5C0F08BF0020704710B5FFF73BFF6B
:102D700040DFF63E81F00040704700000000000098
:102D800000000000000000000000000000F800004B
:102D90000000000000333000000000160E00160E88
:102DA0000000000000000000000040C07840C07833
:102DB0004000043F04043F040400007088FC083015
:102DC0000000001820FF211E0000F008F000E018AD
:102DD000000000211C031E211E0000F00888700066
:102DE00000001E21232419272110000000160E00C8
:102DF00000000000000000000000000000E01804D7
:102E00000200000000071820400000020418E00043
:102E100000000040201807000000404080F0804083
:102E200040000202010F01020200000000F0000059
:102E300000000101011F010101000000000000006D
:102E4000000000B070000000000000000000000062
:102E5000000000010101010101010000000000006B
:102E60000000003030000000000000000000806022
:102E70001804006018060100000000E010080810A7
:102E8000E000000F102020100F00001010F80000CC
:102E900000000020203F2020000000700808088863
:102EA0007000003028242221300000300888884833
:102EB00030000018202020110E000000C02010F863
:102EC000000000070424243F240000F80888880834
:102ED00008000019212020110E0000E01088881839
:102EE0000000000F112020110E0000380808C8381B
:102EF00008000000003F00000000007088080888FB
:102F00007000001C222121221C0000E01008081083
:102F1000E0000000312222110F00000000C0C000BC
:102F200000000000003030000000000000C0C000C1
:102F30000000000080B07000000000008040201001
:102F400008000001020408102000404040404040BA
:102F5000400004040404040404000008102040801D
:102F60000000002010080402010000704808080852
:102F7000F0000000003036010000C030C828E81022
:102F8000E0000718272423140B000000C038E000DD
:102F90000000203C23020227382008F88888887027
:102FA0000000203F202020110E00C0300808080833
:102FB0003800071820202010080008F8080808101A
:102FC000E000203F202020100F0008F88888E80843
:102FD0001000203F20202320180008F88888E808E7
:102FE0001000203F200003000000C030080808380F
:102FF000000007182020221E020008F80800000820
:10300000F808203F210101213F20000808F80808A6
:1030100000000020203F2020000000000808F808E1
:103020000800C08080807F00000008F888C0281851
:103030000800203F20012638200008F80800000082
:103040000000203F20202020300008F8F800F8F889
:103050000800203F003F003F200008F830C0000873
:10306000F808203F200007183F00E010080808106B
:10307000E0000F10202020100F0008F808080808B2
:10308000F000203F210101010000E01008080810B5
:10309000E0000F18242438504F0008F888888888EA
:1030A0007000203F2000030C3020007088080808C2
:1030B00038000038202121221C00180808F80808D0
:1030C00018000000203F2000000008F80800000859
:1030D000F808001F202020201F000878880000C862
:1030E0003808000007380E010000F80800F8000852
:1030F000F800033C0700073C03000818688080685C
:10310000180820302C03032C30200838C800C83899
:1031100008000000203F2000000010080808C83800
:1031200008002038262120201800000000FE02029E
:1031300002000000007F40404000000C30C0000052
:103140000000000000010638C00000020202FE007C
:103150000000004040407F000000002010080408EC
:10316000102000000000000000000000000000002F
:103170000000808080808080808000020408000041
:10318000000000000000000000000000808080803F
:1031900000000019242222223F2008F8008080002D
:1031A0000000003F112020110E00000000808080F0
:1031B0000000000E112020201100000000808088F7
:1031C000F800000E112020103F2000008080808039
:1031D0000000001F222222221300008080F0888835
:1031E00088180020203F2020000000008080808080
:1031F0008000006B94949493600008F800808080B5
:103200000000203F210000203F200080989800000F
:1032100000000020203F202000000000008098983F
:10322000000000C08080807F000008F800008080DF
:103230008000203F24022D302000000808F8000004
:1032400000000020203F20200000808080808080BF
:103250008000203F20003F20003F008080008080D1
:10326000000000203F2100203F200000808080805F
:103270000000001F202020201F0080800080800090
:10328000000080FFA12020110E000000008080803F
:103290008000000E112020A0FF80808080008080B0
:1032A000800020203F2120000100000080808080DD
:1032B00080000033242424241900008080E08080D2
:1032C00000000000001F202000008080000000801F
:1032D0008000001F202020103F2080808000008080
:1032E000808000010E300806010080800080008090
:1032F00080800F300C030C300F0000808000808035
:1033000080000020312E0E3120008080800000805F
:10331000808080818E70180601000080808080800F
:1033200080000021302C2221300000000000807C31
:10333000020200000000003F404000000000FF00CB
:10334000000000000000FF0000000002027C80007E
:1033500000000040403F000000000080404080002E
:1033600000800000000000010100000000000000DB
:103370000000002F000000000700070000147F1469
:103380007F1400242A7F2A12002313086462003667
:103390004955225000000007000000001C22410097
:1033A000000041221C000014083E08140008083EDA
:1033B0000808000000A060000008080808080000D5
:1033C00060600000002010080402003E5149453EA4
:1033D0000000427F400000426151494600214145C2
:1033E0004B31001814127F10002745454539003C29
:1033F0004A494930000171090503003649494936F7
:1034000000064949291E00003636000000005636E5
:1034100000000008142241000014141414140000C9
:1034200041221408000201510906003E4955592E57
:10343000007C1211127C007F49494936003E41410F
:103440004122007F4141221C007F49494941007FC0
:1034500009090901003E4149497A007F0808087FAF
:103460000000417F4100002040413F01007F0814DF
:103470002241007F40404040007F020C027F007FDD
:103480000408107F003E4141413E007F09090906C2
:10349000003E4151215E007F0919294600464949F5
:1034A00049310001017F0101003F4040403F001FC2
:1034B0002040201F003F4038403F00631408146341
:1034C00000070870080700615149454300007F412B
:1034D0004100000204081020000041417F00000468
:1034E000020102040040404040400000010204008C
:1034F000002054545478007F4844443800384444F1
:10350000442000384444487F00385454541800087C
:103510007E0901020018A4A4A47C007F080404789A
:103520000000447D4000004080847D00007F102822
:1035300044000000417F4000007C04180478007CB7
:103540000804047800384444443800FC2424241837
:103550000018242418FC007C080404080048545473
:10356000542000043F444020003C4040207C001C8C
:103570002040201C003C4030403C0044281028449F
:10358000001CA0A0A07C004464544C440000087FB0
:1035900041000000007F00000000417F080000089B
:1035A00004081008EFBC8C000000000000000000C0
:1035B000000000000000000000005838000000007B
:1035C0000000000000000000E38082000000000016
:1035D00000000000000000000000000000001824AF
:1035E000241800000000000000000000E4BDA0005E
:1035F000008060F8074020180F08C8080828180045
:10360000010000FF00100C0340807F00010618003D
:10361000E5A5BD001010F01F10F000808282E2923C
:103620008A868000402215081661000040807F00D5
:1036300000000000E4B89600202020FE2020FF209B
:103640002020FF20202020000000007F4040474431
:103650004444474040400000E7958C00000000FED5
:10366000929292FE929292FE00000000080804845A
:10367000621E010001FE02040408080000000000B0
:10368000FF0101013109090909897101010101FFE6
:10369000FF8080808080809681808080808080FF15
:1036A000FF01818181FD8991A1C1FD81818101FF9E
:1036B000FF808080809F888482819F80808080FFBF
:1036C00000000000000000000000000000000000FA
:1036D00000000000000000000000000000000000EA
:1036E00000000000000000000000000000000000DA
:1036F00000000000000000000000000000000000CA
:1037000000000000000000000000000000000000B9
:1037100000000000000000000000000000000000A9
:103720000000000000000000000000000000000099
:103730000000000000000000000000000000000089
:103740000000000000000000000000000000000079
:103750000000000000000000000000000000000069
:103760000000000000000000000000000000000059
:103770000000000000000000000000000000000049
:103780000000000000000000000000000000000039
:103790000000000000000000000000000000000029
:1037A0000000000000000000000000000000000019
:1037B0000000000000000000000000000000000009
:1037C00000000000000000000000000000000000F9
:1037D00000000000000000000000000000000000E9
:1037E00000000000000000000000000000008080D9
:1037F0008080808080000000000000000000000049
:1038000000000000000000000000000000000000B8
:1038100000000000000000000000000000000000A8
:103820000000000000000000000000000000000098
:103830000000000000000000000000000000000088
:103840000000000000000000000000000000000078
:103850000000000000000000000000000000000068
:1038600000000000000086C6C6C7C7E3E3E3E3E349
:10387000E1E1E3E7C7C787060000000000000000A1
:103880000000000000000000000000000000001028
:10389000181C1C1E0E06078783838707070706066A
:1038A0000E1E1C1C1C180000000000000000000080
:1038B0000000000000000000000000000000000008
:1038C00000000000000000000000000000000000F8
:1038D00000000000000000000000000000000000E8
:1038E00000000000000F0F1F1F3F3F3838303030FE
:1038F00038383D3F1F1F1F0F000000000000000070
:1039000000000000000000000000000000000008AF
:103910003C7E7EFEFFEFC7C3C3C3C3C3E7FFFFFF09
:103920007E7E3C1800000000000000000000000047
:103930000000000000000000000000000000000087
:1039400000000000000000000000000010383838BF
:103950007C7C7C7C7C7C6C6C6C6C6C6C6C6C6C6C47
:103960007C7C7C78383830000000000000000000CB
:10397000000000C0C0C0C0C0000000000000008007
:1039800080808000000000000000C0C0C0C0800037
:103990000000000000000101010101010000808021
:1039A000C0C0C0C0C0C0C0C0C0C0C0C0C0C0C08057
:1039B0008080000000000000000000000000000007
:1039C00000000000000000000000000000000000F7
:1039D00000000000000000000000000000000000E7
:1039E00000000000000000000000000000000000D7
:1039F000000000070F1F1F1F1C181818181C1F0F8E
:103A00000F1F1F3E383838383838393F1F1F0F0F07
:103A1000040000000000000000000000030707078A
:103A200007070706060E0E0E0E0E0E0E0E0F0F07E0
:103A30000707030300000000000000000000000072
:103A40000000000000000000000000000000000076
:103A50000000000000000000000000000000000066
:103A60000000000000000000000000000000000056
:103A70000000000000000000000000000000000046
:103A80000000000000000000000000000000000036
:103A90000000000000000000000000000000000026
:103AA0000000000000000000000000000000000016
:103AB0000000000000000000000000000000000006
:103AC00000000000000000000000000000000000F6
:103AD00000000000000000000000000000000000E6
:103AE00000000000000000000000000000000000D6
:103AF00000000000000000000000000000000000C6
:103B000000000000000000000000000000000000B5
:103B100000000000000000000000000000000000A5
:103B20000000000000000000000000000000000095
:103B30000000000000000000000000000000000085
:103B40000000000000000000000000000000000075
:103B50000000000000000000000000000080C0E045
:103B6000F0F8F8FCFCFCFCFCFCF8F0F0E080000055
:103B70000000000000000000000000000000000045
:103B80000000000000000000000000000000000035
:103B90000080C0E0F0F8F8FCFCFCFCFCF8F8F0F069
:103BA000E0800000000000000000000000000000B5
:103BB0000000000000000000000000000000000005
:103BC00000000000000000000000000000000000F5
:103BD00000000000000000000000C0F8FEFFFFFF32
:103BE000FFFFFFFFFFFFFFFFFFFFFFFFFFFFFFFCE8
:103BF000F080000000000000000000000000000055
:103C00000000000000000000000000000000C0F8FC
:103C1000FEFFFFFFFFFFFFFFFFFFFFFFFFFFFFFFB5
:103C2000FFFFFFFCF080000000000000000000002B
:103C30000000000000000000000000000000000084
:103C40000000000000000000000000000000000074
:103C5000000000000000000000FCFFFFFFFFFFFF6E
:103C6000FFFFFFFFFFFFFFFFFFFFFFFFFFFFFFFF64
:103C7000FFFF000000000000000000000000000046
:103C800000000000000000000000000000FCFFFF3A
:103C9000FFFFFFFFFFFFFFFFFFFFFFFFFFFFFFFF34
:103CA000FFFFFFFFFFFF000000000000000000001A
:103CB0000000000000000000000000000000000004
:103CC00000000000000000000000000000000000F4
:103CD0000000000000000000003FFFFFFFFFFFFFAB
:103CE000FFFFFFFFFFFFFFFFFFFFFFFFFFFFFFFFE4
:103CF000FFFF0000000000000000000000000000C6
:103D0000000000000000000000000000003FFFFF76
:103D1000FFFFFFFFFFFFFFFFFFFFFFFFFFFFFFFFB3
:103D2000FFFFFFFFFFFF0000000000000000000099
:103D30000000000000000000000000000000000083
:103D40000000000000000000000000000000000073
:103D500000000000000000000000031F7FFFFFFFC5
:103D6000FFFFFFFFFFFFFFFFFFFFFFFFFFFFFF3F23
:103D70000F01000000000000000000000000000033
:103D80000000000000000000000000000000031F11
:103D90007FFFFFFFFFFFFFFFFFFFFFFFFFFFFFFFB3
:103DA000FFFFFF3F0F0100000000000000000000C7
:103DB0000000000000000000000000000000000003
:103DC00000000000000000000000000000000000F3
:103DD00000000000000000000000000000010307D8
:103DE0000F1F1F3F3F3F3F3F3F1F1F0F07030000B5
:103DF00000000000000000000000000000000000C3
:103E000000000000000000000000000000000000B2
:103E1000000103070F1F1F3F3F3F3F3F3F1F1F0F83
:103E20000703000000000000000000000000000088
:103E30000000000000000000000000000000000082
:103E40000000000000000000000000000000000072
:103E50000000000000000000000000000000000062
:103E60000000000000000000000000000000000052
:103E70000000000000000000000000000000000042
:103E80000000000000000000000000000000000032
:103E90000000000000000000000000000000000022
:103EA0000000000000000000000000000000000012
:103EB0000000000000000000000000000000000002
:103EC00000000000000000000000000000000000F2
:103ED00000000000000000000000000000000000E2
:103EE00000000000000000000000000000000000D2
:103EF00000000000000000000000000000000000C2
:103F000000000000000000000000000000000000B1
:103F100000000000000000000000000000000000A1
:103F20000000000000000000000000000000000091
:103F30000000000000000000000000000000000081
:103F400000000000000000003070F0F0F0E0E0E061
:103F5000C0C0808080000000000000000000000061
:103F60000000000000000000000000000000000051
:103F70000000000000000000000000000000000041
:103F80000000000000000000000000000000000031
:103F90000000000000000000000000000000000021
:103FA000000000000000000000808080C0C0E0E051
:103FB000F0F0707878783000000000000000000019
:103FC00000000000000000000000000000000101EF
:103FD0000303030707070F0E1E1E1C3C3C7878786E
:103FE000F0F0E0E0E0C0C0C0808000000000000011
:103FF00000000000000000000000000000000000C1
:1040000000000000000000000000000000000000B0
:10401000000000000000000000C0E0E0F0F0F0F858
:10402000F8F83C1C1E1E0F0F0707070703010101CC
:10403000010000000000000000000000000000007F
:104040000000000000000000000000008080C0C0F0
:10405000C0C0E0E0E0E0F07070787838383C3C1C9C
:104060001C1E1F1F0F0F0F0F07070300000000008B
:104070000000000000000000000000000000000040
:104080000000000000000000000000000000000030
:104090000000000000000000000001030303070708
:1040A000070F0F0F0F1E1E1E3C3C3C787878F0F077
:1040B000F0E0E0E0E0C08000000000000000000050
:1040C000000000000000000000008081030303F3F3
:1040D0006101010180E03000000080C0C0000000EC
:1040E00000000000000000000000000000000000D0
:1040F00000000000103878F8F8F878383838383888
:1041000038383838383838383878F8F8783830006F
:10411000000000000000000000000000000000009F
:10412000000000C0E0000080F03000000080F0706F
:1041300000000101E1C100000000000000000000DB
:10414000000000000000000000070F0100103F0FFA
:104150000000007C1F030000603C0F030000000013
:10416000000000000000000000000000000000004F
:1041700000000000000000000F3FFCF0C0C0C0C005
:10418000C0C0C0C0C0C0C0C0E0FC7F0F00000000C5
:10419000000000000000000000000000000000001F
:1041A000000000070300003F070000003C1F000064
:1041B00000103C1F01000000000000000000000093
:1041C00000000000000000000000000000000000EF
:1041D00000000000000000000000000000000000DF
:1041E00000000000000000000000000000000000CF
:1041F00000000000000000000000000000000000BF
:1042000000000000000000000000000000000000AE
:10421000000000000000000000000000000000009E
:10422000000000000000000000000000000000008E
:10423000000000000000000000000000000000007E
:10424000000000000000000000000000000000006E
:10425000000000000000000000000000000000005E
:10426000000000000000000000000000000000004E
:10427000000000000000000000000000000000003E
:10428000000000000000000000000000000000002E
:10429000000000000000000000000000000000001E
:1042A000000000000000000000000000000000000E
:1042B00000000000000000000000000000000000FE
:1042C00000000000000000000000000000000000EE
:1042D00000000000000000000000000000000000DE
:1042E00000000000000000000000000000000000CE
:1042F00000000000000000000000000000000000BE
:1043000000000000000000000000000000000000AD
:10431000000000000000000000000000000000009D
:10432000000000000000000000000000000000008D
:10433000000000000000000000000000000000007D
:1043400000000000000000C0F838383060E0C08095
:10435000000000000000000000000000000000005D
:10436000000000000000000000000000000000004D
:10437000000000000000000000000000000000003D
:10438000000000000000000000000000000000002D
:10439000000000000000000000000000000000001D
:1043A000000000000000000000000000000080C0CD
:1043B000E07030387CF08000000000000000000059
:1043C000000000000000FCFF870000000000010367
:1043D000070E0C183870E0C08000000000000000DC
:1043E00000000000000000000000000000000000CD
:1043F00000000000000000000000000000000000BD
:1044000000000000000000000000000000000000AC
:10441000000000000000000000000000000000009C
:10442000000000000080C0E070381C0E0607030189
:104430000000000000FFFF3000000000000000004E
:1044400000000000000000071F3C70E0C0808000FA
:1044500000000000000000010103070E1C3870601E
:10446000C0C080000000000000000000000000004C
:10447000000000000000000000000000000000003C
:1044800080C0C0000000000000000000000000002C
:10449000000000000000000000000080C0E060306C
:1044A000381C0E070301000000000000000080809F
:1044B000C0C060381C0F03000000000000000000B6
:1044C0000000000000000000000000000001018367
:1044D00003070606068C8C0C0C0C181818181818F4
:1044E00018191B1F1E1C18100000000000000000FF
:1044F0000000000000FEFE0E1C38706070180E07F1
:1045000003010103061C3830381C0EFFFF000000B9
:1045100000000000000018181C1E1F1B1918181896
:104520001898980C0C0C0C0C8C06060607030381DB
:10453000010000000000000000000000000000007A
:1045400000000000000000000000000000101E0736
:104550000000C0701C030000000000F03E000000DE
:10456000000000000000000000000000000000004B
:104570000000000000FFFF800000000000000000BD
:104580000000000000000000000080FFFF000000AD
:104590000000000000000000000000000000001803
:1045A0000E0300000000380F0100000000003F0370
:1045B00000000000000000000000000000000000FB
:1045C00000000000000000000000000000000000EB
:1045D00000000000000000000000000000000000DB
:1045E00000000000000000000000000000000000CB
:1045F000000000000000030303030303030303039D
:104600000303030303030303030303030100000085
:10461000000000000000000000000000000000009A
:10462000000000000000000000000000000000008A
:10463000000000000000000000000000000000007A
:10464000000000000000000000000000000000006A
:10465000000000000000000000000000000000005A
:10466000000000000000000000000000000000004A
:10467000000000000000000000000000000000003A
:10468000000000000000000000000000000000002A
:10469000000000000000000000000000000000001A
:1046A000000000000000000000000000000000000A
:1046B00000000000000000000000000000000000FA
:1046C00000000000000000000000000000000000EA
:1046D00000000000000000000000000000000000DA
:1046E00000000000000000000000000000000000CA
:1046F00000000000000000000000000000000000BA
:1047000000000000000000000000000000000000A9
:104710000000000000000000000000000000000099
:104720000000000000000000000000000000000089
:104730000000000000000000000000000000000079
:104740000000000000000000000000000000000069
:104750000000000000000000000000000000000059
:104760000000000000000000000000000000000049
:104770000000000000000000000000000000000039
:104780000000000000000000000000000000000029
:104790000000000000000000000000000000000019
:1047A0000000000000000000000000000000000009
:1047B00000000000000000000000000000000000F9
:1047C00000000000000000808080C0C0C0C0C0C0E9
:1047D000C0C0C0C0C0C0C0C0E0E0E0E0E0E0E0E0D9
:1047E000E0E0E0E0E0E0F0F0F0F0200000000000A9
:1047F00000000000000000000000000000000000B9
:1048000000000000000000000000000000000000A8
:10481000000008181858F8F8F8F8F8F8F8F8F8F858
:10482000F8F8F8F8F8F8F8F8F8F8F8F8F8F8F0F018
:10483000F0F0F0F0F0F0F0F0F0F0F0000000000028
:10484000000000000080F3F3FBFBFBFBFBFFFFFF1E
:10485000FFFFFFFFFFFFFFFFFFFFFFFF7D7D7D3DB0
:104860003D3D3D3D3D1D1F1F1F1F1E0E0E0C0C002C
:104870000000000000000000000000000000000038
:104880000000000000000000000000000000000028
:10489000000000003C7EFFFFFFFFFFFFFFFFFFFF68
:1048A000FFFFFFFFFFFFFFFFFFFFFFFFFFFDFDF922
:1048B000F9F9F9F9F9F9F1F1F170300000000000AF
:1048C0000000000000010100113F3F3F1F1F1F1F9C
:1048D0001F1F1F1F0F0F0F0F0F0F0F0F0F0F0707B8
:1048E0000707070707070707030303030300000081
:1048F00000008080808080808080808080808080B8
:1049000080808080808080808080808080800000A7
:104910000000000000000000000000000000000097
:104920000000000000000000000000000000000087
:104930000000000000000000000000000000000077
:104940000000000000000000000000000000000067
:104950000000000000000000000000000000000057
:104960000000000000000000000000000000000047
:104970000000FFFF01000000000000000000000038
:1049800000000000000000000000000081FFFF00A8
:104990000000000000000000000000000000000017
:1049A0000000000000000000000000000000000007
:1049B00000000000000000000000000000000000F7
:1049C00000000000000000000000000000000000E7
:1049D00000000000000000000000000000000000D7
:1049E00000000000000000000000000000000000C7
:1049F00000000101010101010101010101010101A9
:104A0000010101010101FFFF00000003FF0100009F
:104A10000000000000000000000000000000000096
:104A20000000000000000000000000000000000086
:104A30000000000000000000000000000000000076
:104A40000000000000000000000000000000000066
:104A50000000000000000000000000000000000056
:104A60000000000000000000000000000000000046
:104A70000000000000000000000000000000000036
:104A80000000000000000003030602030100000014
:104A90000000000000000000000000000000000016
:104AA0000000000000000000000000000000000006
:104AB00000000000000000000000000000000000F6
:104AC00000000000000000000000000000000000E6
:104AD00000000000000000000000000000000000D6
:104AE00000000000000000000000000000000000C6
:104AF00000000000000000000000000000000000B6
:104B000000000000000000000000000000000000A5
:104B10000000000000000000000000000000000095
:104B20000000000000000000000000000000000085
:104B30000000000000000000000000000000000075
:104B40000000000000000000000000000000000065
:104B50000000000000000000000000000000000055
:104B60000000000000000000000000000000000045
:104B70000000000000000000000000000000000035
:104B80000000000000000000000000000000000025
:104B90000000000000000000000000000000000015
:104BA0000000000000000000000000000000000005
:104BB00000000000000000000000000000000000F5
:104BC00000000000000000C0E0F0F8F8FC7C3E3E71
:104BD0001E1F1F1F1F1E3E3E7CFCF8F8F0E08000E9
:104BE00000000000000000000000000000000000C5
:104BF00000000000000000000000000000C00000F5
:104C000000000000808000000000000000000000A4
:104C10000080000000000000000000000000000014
:104C2000000080E0F0F8F8FC7C3E3E1E1F1F1E1EB8
:104C30001E3E3E7CFCF8F8F0E08000000000000022
:104C40000000000000F8FFFFFFFF07010000000068
:104C5000000000000000000000000107FFFFFFFF50
:104C6000F000000000000000000000000060301CA8
:104C70000603C0E0380E0700C0E0380E0701000050
:104C8000E0701C07030060701C0703000060380E12
:104C9000070130380E030000000000000000000093
:104CA000F8FFFFFFFF03010000000000000000000C
:104CB00000000000000107FFFFFFFFF00000000000
:104CC0000000000000010F3F7FFFFCF8F0E0C0C0D3
:104CD000808080808080C0C0E0F0F8FEFF7F1F0FE2
:104CE00000000000000000000000000000000000C4
:104CF00000000000000000000000000000000000B4
:104D000000000000000000000000000000000000A3
:104D10000000000000000000000000000000000093
:104D2000010F3F7FFFFCF8F0E0C0C08080808080F2
:104D300080C0C0E0F0F8FEFF7F3F0F0100000000E0
:104D40000000000000000000000001030307070747
:104D5000070F0F0F0F0F07070703010100000000E7
:104D60000000000000000000000000000000000043
:104D700000007FFC8000000000000000000000E058
:104D8000FFFE800000000000000000000080FE7EAA
:104D90000000000000000000000000000000000013
:104DA0000000000000010303070707070F0F0F0FA4
:104DB00007070707030101000000000000000000D2
:104DC00000000000000000000000000000000000E3
:104DD00000000000000000000000000000000000D3
:104DE00000000000000000000000000000000000C3
:104DF0000000000103030606060606060606030178
:104E0000010103070606060606060606030301005F
:104E10000000000000000000000000000000000092
:104E20000000000000000000000000000000000082
:104E30000000000000000000000000000000000072
:104E40000000000000000000000000000000000062
:104E50000000000000000000000000000000000052
:104E60000000000000000000000000000000000042
:104E70000000000000000000000000000000000032
:104E80000000000000000000000000000000000022
:104E90000000000000000000000000000000000012
:104EA0000000000000000000000000000000000002
:104EB00000000000000000000000000000000000F2
:104EC00000000000000000000000000000000000E2
:104ED00000000000000000000000000000000000D2
:104EE00000000000000000000000000000000000C2
:104EF00000000000000000000000000000000000B2
:104F000000000000000000000000000000000000A1
:104F10000000000000000000000000000000000091
:104F20000000000000000000000000000000000081
:104F30000000000000000000000000000000000071
:104F40000000E0E0E0E0C0C0C080800000000000A1
:104F50000000000000000000000000000000000051
:104F60000000000000000000000000000000000041
:104F70000000000000000000000000000000000031
:104F80000000000000000000000000000000000021
:104F90000000000000000000000000000000000011
:104FA0000000000000000000000000000000000001
:104FB000008080C0C0C0E0E0F0F0F0000000000021
:104FC00000000001010303030707070F0F0F1E1E58
:104FD0003E3C7C7C78F8F0F0E0E0E0E0C0C080800F
:104FE0008000000000000000000000000000000041
:104FF00000000000000000000000000000000000B1
:1050000000000000000000000000000000000000A0
:10501000000000000000000000000000008080C0D0
:10502000C0C0E0E0E0F0F0F8F8F8BCBC9E9E9F8FB6
:105030008F8FC7C7C3C3C3C1C1C0C0C000000000B9
:1050400000000000081C1C1C1C1C1C1C1C1C1C1C24
:105050009C9C9C9CDCDCDCDCFDFDFFFFFFFFFFFF7C
:105060007F7F7F3E3E3E3C1C0000000000000000B1
:10507000E0E0E00000000000000000000000000090
:1050800000C0C0C00000000000000000000000C020
:10509000C0C00000000000000000000F0F0F1F1F25
:1050A0001F3F3F3F3F7F7F7FFBF3F3F3E3E3E3E308
:1050B000C1C1C18181810101010100000000000026
:1050C0000000000000001C3C3C1E1E1E1F0F0F0FA6
:1050D0000F87070707030303010101010000000018
:1050E00000000000000000000000000000000000C0
:1050F000031F7FF8E0C0C0808080808080C0E0F027
:10510000783F7FFFE080000000000000000080F397
:10511000FFFF000000000000000000000000000091
:105120000000000000000000000000010101030376
:1051300003038787070F0F0F0F0E0C0000000000FE
:1051400000000000F8FC0000C0FE7F02000080F0BC
:105150007F0F010000C0F81E0400000000000000E6
:10516000000000000000000000000000000000003F
:10517000000000000003FFFFFF0303030301010021
:10518000000000010307070FFEFE3E0607070703A6
:10519000010000000000000000000000000000000E
:1051A0000000000000F07E0C0000F87F0700000007
:1051B000E0FC1F030000C0F03E06000000000000FD
:1051C00000000000010000000303000000040F07BE
:1051D00000000000060700000000000000000000C2
:1051E00000000000000000000000000000000000BF
:1051F0000000000000000003070F1E1C1C1C1C1CEC
:105200001C1C1C1C1C1C1E0F0F03000000000000B7
:10521000000000000000000000000000000000008E
:105220000000000000000000000003000000000774
:10523000070000000002070100000000000000005D
:10524000000000000000000000000000000000005E
:10525000000000000000000000000000000000004E
:10526000000000000000000000000000000000003E
:10527000000000000000000000000000000000002E
:10528000000000000000000000000000000000001E
:10529000000000000000000000000000000000000E
:1052A00000000000000000000000000000000000FE
:1052B00000000000000000000000000000000000EE
:1052C000E05200080000002048000000280100080B
:1052D0002853000848000020600A0000440100082C
:1052E00000127A0000000000000000000102030428
:1052F000060708090000000001020304010203047C
:10530000060708090204060800000000010000006A
:105310000100000000000000C800060000000000BE
:08532000020000000000000083
:04000005080000ED02
:00000001FF
